{
  "contractName": "Asignatura",
  "abi": [
    {
      "inputs": [
        {
          "internalType": "string",
          "name": "_nombre",
          "type": "string"
        },
        {
          "internalType": "string",
          "name": "_curso",
          "type": "string"
        }
      ],
      "stateMutability": "nonpayable",
      "type": "constructor"
    },
    {
      "inputs": [
        {
          "internalType": "string",
          "name": "dni",
          "type": "string"
        }
      ],
      "name": "DNIExistsError",
      "type": "error"
    },
    {
      "inputs": [
        {
          "internalType": "address",
          "name": "",
          "type": "address"
        },
        {
          "internalType": "uint256",
          "name": "",
          "type": "uint256"
        }
      ],
      "name": "calificaciones",
      "outputs": [
        {
          "internalType": "enum Asignatura.TipoNota",
          "name": "tipo",
          "type": "uint8"
        },
        {
          "internalType": "uint256",
          "name": "calificacion",
          "type": "uint256"
        }
      ],
      "stateMutability": "view",
      "type": "function",
      "constant": true
    },
    {
      "inputs": [],
      "name": "cerrada",
      "outputs": [
        {
          "internalType": "bool",
          "name": "",
          "type": "bool"
        }
      ],
      "stateMutability": "view",
      "type": "function",
      "constant": true
    },
    {
      "inputs": [],
      "name": "coordinador",
      "outputs": [
        {
          "internalType": "address",
          "name": "",
          "type": "address"
        }
      ],
      "stateMutability": "view",
      "type": "function",
      "constant": true
    },
    {
      "inputs": [],
      "name": "curso",
      "outputs": [
        {
          "internalType": "string",
          "name": "",
          "type": "string"
        }
      ],
      "stateMutability": "view",
      "type": "function",
      "constant": true
    },
    {
      "inputs": [
        {
          "internalType": "address",
          "name": "",
          "type": "address"
        }
      ],
      "name": "datosAlumno",
      "outputs": [
        {
          "internalType": "string",
          "name": "nombre",
          "type": "string"
        },
        {
          "internalType": "string",
          "name": "email",
          "type": "string"
        },
        {
          "internalType": "string",
          "name": "dni",
          "type": "string"
        }
      ],
      "stateMutability": "view",
      "type": "function",
      "constant": true
    },
    {
      "inputs": [
        {
          "internalType": "address",
          "name": "",
          "type": "address"
        }
      ],
      "name": "datosProfesor",
      "outputs": [
        {
          "internalType": "string",
          "name": "",
          "type": "string"
        }
      ],
      "stateMutability": "view",
      "type": "function",
      "constant": true
    },
    {
      "inputs": [
        {
          "internalType": "string",
          "name": "",
          "type": "string"
        }
      ],
      "name": "dniMap",
      "outputs": [
        {
          "internalType": "string",
          "name": "",
          "type": "string"
        }
      ],
      "stateMutability": "view",
      "type": "function",
      "constant": true
    },
    {
      "inputs": [
        {
          "internalType": "uint256",
          "name": "",
          "type": "uint256"
        }
      ],
      "name": "evaluaciones",
      "outputs": [
        {
          "internalType": "string",
          "name": "nombre",
          "type": "string"
        },
        {
          "internalType": "uint256",
          "name": "fecha",
          "type": "uint256"
        },
        {
          "internalType": "uint256",
          "name": "puntos",
          "type": "uint256"
        }
      ],
      "stateMutability": "view",
      "type": "function",
      "constant": true
    },
    {
      "inputs": [
        {
          "internalType": "address",
          "name": "",
          "type": "address"
        }
      ],
      "name": "isProfesor",
      "outputs": [
        {
          "internalType": "bool",
          "name": "",
          "type": "bool"
        }
      ],
      "stateMutability": "view",
      "type": "function",
      "constant": true
    },
    {
      "inputs": [
        {
          "internalType": "uint256",
          "name": "",
          "type": "uint256"
        }
      ],
      "name": "matriculas",
      "outputs": [
        {
          "internalType": "address",
          "name": "",
          "type": "address"
        }
      ],
      "stateMutability": "view",
      "type": "function",
      "constant": true
    },
    {
      "inputs": [],
      "name": "nombre",
      "outputs": [
        {
          "internalType": "string",
          "name": "",
          "type": "string"
        }
      ],
      "stateMutability": "view",
      "type": "function",
      "constant": true
    },
    {
      "inputs": [],
      "name": "owner",
      "outputs": [
        {
          "internalType": "address",
          "name": "",
          "type": "address"
        }
      ],
      "stateMutability": "view",
      "type": "function",
      "constant": true
    },
    {
      "inputs": [],
      "name": "profesor",
      "outputs": [
        {
          "internalType": "address",
          "name": "",
          "type": "address"
        }
      ],
      "stateMutability": "view",
      "type": "function",
      "constant": true
    },
    {
      "inputs": [
        {
          "internalType": "uint256",
          "name": "",
          "type": "uint256"
        }
      ],
      "name": "profesores",
      "outputs": [
        {
          "internalType": "address",
          "name": "",
          "type": "address"
        }
      ],
      "stateMutability": "view",
      "type": "function",
      "constant": true
    },
    {
      "inputs": [],
      "name": "version",
      "outputs": [
        {
          "internalType": "uint256",
          "name": "",
          "type": "uint256"
        }
      ],
      "stateMutability": "view",
      "type": "function",
      "constant": true
    },
    {
      "stateMutability": "payable",
      "type": "receive",
      "payable": true
    },
    {
      "inputs": [
        {
          "internalType": "address",
          "name": "dirProfesor",
          "type": "address"
        }
      ],
      "name": "getNombreProfesor",
      "outputs": [
        {
          "internalType": "string",
          "name": "",
          "type": "string"
        }
      ],
      "stateMutability": "view",
      "type": "function",
      "constant": true
    },
    {
      "inputs": [
        {
          "internalType": "address",
          "name": "dirAlumno",
          "type": "address"
        }
      ],
      "name": "getDatosAlumno",
      "outputs": [
        {
          "components": [
            {
              "internalType": "string",
              "name": "nombre",
              "type": "string"
            },
            {
              "internalType": "string",
              "name": "email",
              "type": "string"
            },
            {
              "internalType": "string",
              "name": "dni",
              "type": "string"
            }
          ],
          "internalType": "struct Asignatura.DatosAlumno",
          "name": "",
          "type": "tuple"
        }
      ],
      "stateMutability": "view",
      "type": "function",
      "constant": true
    },
    {
      "inputs": [
        {
          "internalType": "address",
          "name": "dirAlumno",
          "type": "address"
        },
        {
          "internalType": "uint256",
          "name": "indice",
          "type": "uint256"
        }
      ],
      "name": "getCalificacion",
      "outputs": [
        {
          "components": [
            {
              "internalType": "enum Asignatura.TipoNota",
              "name": "tipo",
              "type": "uint8"
            },
            {
              "internalType": "uint256",
              "name": "calificacion",
              "type": "uint256"
            }
          ],
          "internalType": "struct Asignatura.Nota",
          "name": "",
          "type": "tuple"
        }
      ],
      "stateMutability": "view",
      "type": "function",
      "constant": true
    },
    {
      "inputs": [
        {
          "internalType": "uint256",
          "name": "evaluacion",
          "type": "uint256"
        }
      ],
      "name": "miNota",
      "outputs": [
        {
          "internalType": "enum Asignatura.TipoNota",
          "name": "tipo",
          "type": "uint8"
        },
        {
          "internalType": "uint256",
          "name": "calificacion",
          "type": "uint256"
        }
      ],
      "stateMutability": "view",
      "type": "function",
      "constant": true
    },
    {
      "inputs": [
        {
          "internalType": "address",
          "name": "coord",
          "type": "address"
        }
      ],
      "name": "setCoordinador",
      "outputs": [],
      "stateMutability": "nonpayable",
      "type": "function"
    },
    {
      "inputs": [],
      "name": "cerrar",
      "outputs": [],
      "stateMutability": "nonpayable",
      "type": "function"
    },
    {
      "inputs": [],
      "name": "abrir",
      "outputs": [],
      "stateMutability": "nonpayable",
      "type": "function"
    },
    {
      "inputs": [
        {
          "internalType": "address",
          "name": "dirProfesor",
          "type": "address"
        },
        {
          "internalType": "string",
          "name": "nombreProfesor",
          "type": "string"
        }
      ],
      "name": "addProfesor",
      "outputs": [],
      "stateMutability": "nonpayable",
      "type": "function"
    },
    {
      "inputs": [],
      "name": "profesoresLength",
      "outputs": [
        {
          "internalType": "uint256",
          "name": "",
          "type": "uint256"
        }
      ],
      "stateMutability": "view",
      "type": "function",
      "constant": true
    },
    {
      "inputs": [],
      "name": "evaluacionesLength",
      "outputs": [
        {
          "internalType": "uint256",
          "name": "",
          "type": "uint256"
        }
      ],
      "stateMutability": "view",
      "type": "function",
      "constant": true
    },
    {
      "inputs": [
        {
          "internalType": "string",
          "name": "_nombre",
          "type": "string"
        },
        {
          "internalType": "uint256",
          "name": "_fecha",
          "type": "uint256"
        },
        {
          "internalType": "uint256",
          "name": "_puntos",
          "type": "uint256"
        }
      ],
      "name": "creaEvaluacion",
      "outputs": [
        {
          "internalType": "uint256",
          "name": "",
          "type": "uint256"
        }
      ],
      "stateMutability": "nonpayable",
      "type": "function"
    },
    {
      "inputs": [],
      "name": "matriculasLength",
      "outputs": [
        {
          "internalType": "uint256",
          "name": "",
          "type": "uint256"
        }
      ],
      "stateMutability": "view",
      "type": "function",
      "constant": true
    },
    {
      "inputs": [
        {
          "internalType": "string",
          "name": "_nombre",
          "type": "string"
        },
        {
          "internalType": "string",
          "name": "_email",
          "type": "string"
        },
        {
          "internalType": "string",
          "name": "_dni",
          "type": "string"
        }
      ],
      "name": "automatricula",
      "outputs": [],
      "stateMutability": "nonpayable",
      "type": "function"
    },
    {
      "inputs": [],
      "name": "quienSoy",
      "outputs": [
        {
          "internalType": "string",
          "name": "_nombre",
          "type": "string"
        },
        {
          "internalType": "string",
          "name": "_email",
          "type": "string"
        },
        {
          "internalType": "string",
          "name": "_dni",
          "type": "string"
        }
      ],
      "stateMutability": "view",
      "type": "function",
      "constant": true
    },
    {
      "inputs": [
        {
          "internalType": "address",
          "name": "alumno",
          "type": "address"
        },
        {
          "internalType": "uint256",
          "name": "evaluacion",
          "type": "uint256"
        },
        {
          "internalType": "enum Asignatura.TipoNota",
          "name": "tipo",
          "type": "uint8"
        },
        {
          "internalType": "uint256",
          "name": "calificacion",
          "type": "uint256"
        }
      ],
      "name": "califica",
      "outputs": [],
      "stateMutability": "nonpayable",
      "type": "function"
    },
    {
      "inputs": [
        {
          "internalType": "address",
          "name": "alumno",
          "type": "address"
        }
      ],
      "name": "estaMatriculado",
      "outputs": [
        {
          "internalType": "bool",
          "name": "",
          "type": "bool"
        }
      ],
      "stateMutability": "view",
      "type": "function",
      "constant": true
    }
  ],
  "bytecode": "0x60806040526107e56000553480156200001757600080fd5b5060405162003ce538038062003ce583398181016040528101906200003d9190620003fd565b60008290506000815114156200008a576040517f08c379a00000000000000000000000000000000000000000000000000000000081526004016200008190620004e3565b60405180910390fd5b6000829050600081511415620000d7576040517f08c379a0000000000000000000000000000000000000000000000000000000008152600401620000ce906200057b565b60405180910390fd5b8360029080519060200190620000ef929190620001b0565b50826003908051906020019062000108929190620001b0565b5033600160006101000a81548173ffffffffffffffffffffffffffffffffffffffff021916908373ffffffffffffffffffffffffffffffffffffffff16021790555033600460006101000a81548173ffffffffffffffffffffffffffffffffffffffff021916908373ffffffffffffffffffffffffffffffffffffffff1602179055506000600560146101000a81548160ff0219169083151502179055505050505062000602565b828054620001be90620005cc565b90600052602060002090601f016020900481019282620001e257600085556200022e565b82601f10620001fd57805160ff19168380011785556200022e565b828001600101855582156200022e579182015b828111156200022d57825182559160200191906001019062000210565b5b5090506200023d919062000241565b5090565b5b808211156200025c57600081600090555060010162000242565b5090565b6000604051905090565b600080fd5b600080fd5b600080fd5b600080fd5b6000601f19601f8301169050919050565b7f4e487b7100000000000000000000000000000000000000000000000000000000600052604160045260246000fd5b620002c9826200027e565b810181811067ffffffffffffffff82111715620002eb57620002ea6200028f565b5b80604052505050565b60006200030062000260565b90506200030e8282620002be565b919050565b600067ffffffffffffffff8211156200033157620003306200028f565b5b6200033c826200027e565b9050602081019050919050565b60005b83811015620003695780820151818401526020810190506200034c565b8381111562000379576000848401525b50505050565b600062000396620003908462000313565b620002f4565b905082815260208101848484011115620003b557620003b462000279565b5b620003c284828562000349565b509392505050565b600082601f830112620003e257620003e162000274565b5b8151620003f48482602086016200037f565b91505092915050565b600080604083850312156200041757620004166200026a565b5b600083015167ffffffffffffffff8111156200043857620004376200026f565b5b6200044685828601620003ca565b925050602083015167ffffffffffffffff8111156200046a57620004696200026f565b5b6200047885828601620003ca565b9150509250929050565b600082825260208201905092915050565b7f5375626a6563742773206e616d652063616e277420626520626c616e6b000000600082015250565b6000620004cb601d8362000482565b9150620004d88262000493565b602082019050919050565b60006020820190508181036000830152620004fe81620004bc565b9050919050565b7f5375626a65637427732061636164656d696320796561722063616e277420626560008201527f20626c616e6b0000000000000000000000000000000000000000000000000000602082015250565b60006200056360268362000482565b9150620005708262000505565b604082019050919050565b60006020820190508181036000830152620005968162000554565b9050919050565b7f4e487b7100000000000000000000000000000000000000000000000000000000600052602260045260246000fd5b60006002820490506001821680620005e557607f821691505b60208210811415620005fc57620005fb6200059d565b5b50919050565b6136d380620006126000396000f3fe6080604052600436106101dc5760003560e01c80638ab724c411610102578063d27c3f3c11610095578063df09657611610064578063df0965761461075a578063e41e28b514610785578063e81378d9146107c2578063f967f986146107ff5761021c565b8063d27c3f3c146106b1578063d51b4584146106ef578063dab6ff2814610718578063deafcc411461072f5761021c565b8063bc7b35b2116100d1578063bc7b35b2146105cf578063c7918139146105fa578063c837375014610637578063d017da1f146106745761021c565b80638ab724c4146105255780638da5cb5b1461053c57806393a3a345146105675780639e1d8f4b146105a45761021c565b8063488cf4f51161017a578063681d4ca611610149578063681d4ca6146104555780636bf8aad61461047e5780636fbb9dc7146104bd5780637810ff1e146104fa5761021c565b8063488cf4f51461039557806353766883146103c057806354fd4d50146103ed578063641945bf146104185761021c565b806330322c9b116101b657806330322c9b146102b25780633e65b79d146102db57806342a6dde21461031857806344f7a8cc146103565761021c565b80630c2e7895146102215780631d2e4d2b1461025e57806322c4e394146102875761021c565b3661021c576040517f08c379a00000000000000000000000000000000000000000000000000000000081526004016102139061254e565b60405180910390fd5b600080fd5b34801561022d57600080fd5b5061024860048036038101906102439190612616565b61082a565b604051610255919061270b565b60405180910390f35b34801561026a57600080fd5b506102856004803603810190610280919061286c565b6108da565b005b34801561029357600080fd5b5061029c610b76565b6040516102a991906128e3565b60405180910390f35b3480156102be57600080fd5b506102d960048036038101906102d49190612923565b610b89565b005b3480156102e757600080fd5b5061030260048036038101906102fd919061298a565b610dff565b60405161030f91906128e3565b60405180910390f35b34801561032457600080fd5b5061033f600480360381019061033a9190612616565b610ee3565b60405161034d9291906129d5565b60405180910390f35b34801561036257600080fd5b5061037d600480360381019061037891906129fe565b610f21565b60405161038c93929190612aa2565b60405180910390f35b3480156103a157600080fd5b506103aa610fe3565b6040516103b79190612ae0565b60405180910390f35b3480156103cc57600080fd5b506103d5610ff0565b6040516103e493929190612afb565b60405180910390f35b3480156103f957600080fd5b5061040261125c565b60405161040f9190612ae0565b60405180910390f35b34801561042457600080fd5b5061043f600480360381019061043a919061298a565b611262565b60405161044c9190612b47565b60405180910390f35b34801561046157600080fd5b5061047c60048036038101906104779190612b69565b611302565b005b34801561048a57600080fd5b506104a560048036038101906104a0919061298a565b6116cf565b6040516104b493929190612afb565b60405180910390f35b3480156104c957600080fd5b506104e460048036038101906104df919061298a565b611891565b6040516104f19190612cb8565b60405180910390f35b34801561050657600080fd5b5061050f611aa0565b60405161051c9190612ce9565b60405180910390f35b34801561053157600080fd5b5061053a611ac6565b005b34801561054857600080fd5b50610551611b73565b60405161055e9190612ce9565b60405180910390f35b34801561057357600080fd5b5061058e60048036038101906105899190612d04565b611b99565b60405161059b9190612b47565b60405180910390f35b3480156105b057600080fd5b506105b9611c4f565b6040516105c69190612ae0565b60405180910390f35b3480156105db57600080fd5b506105e4611c5c565b6040516105f19190612b47565b60405180910390f35b34801561060657600080fd5b50610621600480360381019061061c91906129fe565b611cea565b60405161062e9190612ce9565b60405180910390f35b34801561064357600080fd5b5061065e600480360381019061065991906129fe565b611d29565b60405161066b9190612ce9565b60405180910390f35b34801561068057600080fd5b5061069b60048036038101906106969190612d4d565b611d68565b6040516106a89190612ae0565b60405180910390f35b3480156106bd57600080fd5b506106d860048036038101906106d391906129fe565b611f2e565b6040516106e69291906129d5565b60405180910390f35b3480156106fb57600080fd5b506107166004803603810190610711919061298a565b612078565b005b34801561072457600080fd5b5061072d6121a2565b005b34801561073b57600080fd5b5061074461224f565b6040516107519190612b47565b60405180910390f35b34801561076657600080fd5b5061076f6122dd565b60405161077c9190612ce9565b60405180910390f35b34801561079157600080fd5b506107ac60048036038101906107a7919061298a565b612303565b6040516107b991906128e3565b60405180910390f35b3480156107ce57600080fd5b506107e960048036038101906107e4919061298a565b612323565b6040516107f69190612b47565b60405180910390f35b34801561080b57600080fd5b506108146123f4565b6040516108219190612ae0565b60405180910390f35b610832612401565b600d60008473ffffffffffffffffffffffffffffffffffffffff1673ffffffffffffffffffffffffffffffffffffffff16815260200190815260200160002060008381526020019081526020016000206040518060400160405290816000820160009054906101000a900460ff1660028111156108b2576108b1612656565b5b60028111156108c4576108c3612656565b5b8152602001600182015481525050905092915050565b600460009054906101000a900473ffffffffffffffffffffffffffffffffffffffff1673ffffffffffffffffffffffffffffffffffffffff163373ffffffffffffffffffffffffffffffffffffffff161461096a576040517f08c379a000000000000000000000000000000000000000000000000000000000815260040161096190612e08565b60405180910390fd5b60001515600560149054906101000a900460ff161515146109c0576040517f08c379a00000000000000000000000000000000000000000000000000000000081526004016109b790612e9a565b60405180910390fd5b6000819050600081511415610a0a576040517f08c379a0000000000000000000000000000000000000000000000000000000008152600401610a0190612f06565b60405180910390fd5b6000610a1584612323565b905060008190506000815114610a60576040517f08c379a0000000000000000000000000000000000000000000000000000000008152600401610a5790612f98565b60405180910390fd5b6007859080600181540180825580915050600190039060005260206000200160009091909190916101000a81548173ffffffffffffffffffffffffffffffffffffffff021916908373ffffffffffffffffffffffffffffffffffffffff16021790555083600660008773ffffffffffffffffffffffffffffffffffffffff1673ffffffffffffffffffffffffffffffffffffffff1681526020019081526020016000209080519060200190610b1692919061242d565b506001600860008773ffffffffffffffffffffffffffffffffffffffff1673ffffffffffffffffffffffffffffffffffffffff16815260200190815260200160002060006101000a81548160ff0219169083151502179055505050505050565b600560149054906101000a900460ff1681565b600860003373ffffffffffffffffffffffffffffffffffffffff1673ffffffffffffffffffffffffffffffffffffffff16815260200190815260200160002060009054906101000a900460ff16610c15576040517f08c379a0000000000000000000000000000000000000000000000000000000008152600401610c0c90613004565b60405180910390fd5b60001515600560149054906101000a900460ff16151514610c6b576040517f08c379a0000000000000000000000000000000000000000000000000000000008152600401610c6290612e9a565b60405180910390fd5b610c7484610dff565b610cb3576040517f08c379a0000000000000000000000000000000000000000000000000000000008152600401610caa90613096565b60405180910390fd5b6009805490508310610cfa576040517f08c379a0000000000000000000000000000000000000000000000000000000008152600401610cf190613128565b60405180910390fd5b6103e8811115610d3f576040517f08c379a0000000000000000000000000000000000000000000000000000000008152600401610d36906131ba565b60405180910390fd5b60006040518060400160405280846002811115610d5f57610d5e612656565b5b815260200183815250905080600d60008773ffffffffffffffffffffffffffffffffffffffff1673ffffffffffffffffffffffffffffffffffffffff168152602001908152602001600020600086815260200190815260200160002060008201518160000160006101000a81548160ff02191690836002811115610de657610de5612656565b5b0217905550602082015181600101559050505050505050565b600080600a60008473ffffffffffffffffffffffffffffffffffffffff1673ffffffffffffffffffffffffffffffffffffffff1681526020019081526020016000206000018054610e4f90613209565b80601f0160208091040260200160405190810160405280929190818152602001828054610e7b90613209565b8015610ec85780601f10610e9d57610100808354040283529160200191610ec8565b820191906000526020600020905b815481529060010190602001808311610eab57829003601f168201915b50505050509050600081905060008151141592505050919050565b600d602052816000526040600020602052806000526040600020600091509150508060000160009054906101000a900460ff16908060010154905082565b60098181548110610f3157600080fd5b9060005260206000209060030201600091509050806000018054610f5490613209565b80601f0160208091040260200160405190810160405280929190818152602001828054610f8090613209565b8015610fcd5780601f10610fa257610100808354040283529160200191610fcd565b820191906000526020600020905b815481529060010190602001808311610fb057829003601f168201915b5050505050908060010154908060020154905083565b6000600980549050905090565b6060806060610ffe33610dff565b61103d576040517f08c379a000000000000000000000000000000000000000000000000000000000815260040161103490613287565b60405180910390fd5b6000600a60003373ffffffffffffffffffffffffffffffffffffffff1673ffffffffffffffffffffffffffffffffffffffff16815260200190815260200160002060405180606001604052908160008201805461109990613209565b80601f01602080910402602001604051908101604052809291908181526020018280546110c590613209565b80156111125780601f106110e757610100808354040283529160200191611112565b820191906000526020600020905b8154815290600101906020018083116110f557829003601f168201915b5050505050815260200160018201805461112b90613209565b80601f016020809104026020016040519081016040528092919081815260200182805461115790613209565b80156111a45780601f10611179576101008083540402835291602001916111a4565b820191906000526020600020905b81548152906001019060200180831161118757829003601f168201915b505050505081526020016002820180546111bd90613209565b80601f01602080910402602001604051908101604052809291908181526020018280546111e990613209565b80156112365780601f1061120b57610100808354040283529160200191611236565b820191906000526020600020905b81548152906001019060200180831161121957829003601f168201915b505050505081525050905080600001519350806020015192508060400151915050909192565b60005481565b6006602052806000526040600020600091509050805461128190613209565b80601f01602080910402602001604051908101604052809291908181526020018280546112ad90613209565b80156112fa5780601f106112cf576101008083540402835291602001916112fa565b820191906000526020600020905b8154815290600101906020018083116112dd57829003601f168201915b505050505081565b60001515600560149054906101000a900460ff16151514611358576040517f08c379a000000000000000000000000000000000000000000000000000000000815260040161134f90612e9a565b60405180910390fd5b61136133610dff565b156113a1576040517f08c379a000000000000000000000000000000000000000000000000000000000815260040161139890613319565b60405180910390fd5b60008390506000815114156113eb576040517f08c379a00000000000000000000000000000000000000000000000000000000081526004016113e290613385565b60405180910390fd5b6000839050600081511415611435576040517f08c379a000000000000000000000000000000000000000000000000000000000815260040161142c906133f1565b60405180910390fd5b600083905060008151141561147f576040517f08c379a00000000000000000000000000000000000000000000000000000000081526004016114769061345d565b60405180910390fd5b6000600b8560405161149191906134b9565b908152602001604051809103902080546114aa90613209565b80601f01602080910402602001604051908101604052809291908181526020018280546114d690613209565b80156115235780601f106114f857610100808354040283529160200191611523565b820191906000526020600020905b81548152906001019060200180831161150657829003601f168201915b505050505090506000819050600081511461157557816040517f995e035300000000000000000000000000000000000000000000000000000000815260040161156c9190612b47565b60405180910390fd5b600060405180606001604052808a815260200189815260200188815250905080600a60003373ffffffffffffffffffffffffffffffffffffffff1673ffffffffffffffffffffffffffffffffffffffff16815260200190815260200160002060008201518160000190805190602001906115f092919061242d565b50602082015181600101908051906020019061160d92919061242d565b50604082015181600201908051906020019061162a92919061242d565b5090505088600b8860405161163f91906134b9565b9081526020016040518091039020908051906020019061166092919061242d565b50600c339080600181540180825580915050600190039060005260206000200160009091909190916101000a81548173ffffffffffffffffffffffffffffffffffffffff021916908373ffffffffffffffffffffffffffffffffffffffff160217905550505050505050505050565b600a6020528060005260406000206000915090508060000180546116f290613209565b80601f016020809104026020016040519081016040528092919081815260200182805461171e90613209565b801561176b5780601f106117405761010080835404028352916020019161176b565b820191906000526020600020905b81548152906001019060200180831161174e57829003601f168201915b50505050509080600101805461178090613209565b80601f01602080910402602001604051908101604052809291908181526020018280546117ac90613209565b80156117f95780601f106117ce576101008083540402835291602001916117f9565b820191906000526020600020905b8154815290600101906020018083116117dc57829003601f168201915b50505050509080600201805461180e90613209565b80601f016020809104026020016040519081016040528092919081815260200182805461183a90613209565b80156118875780601f1061185c57610100808354040283529160200191611887565b820191906000526020600020905b81548152906001019060200180831161186a57829003601f168201915b5050505050905083565b6118996124b3565b600a60008373ffffffffffffffffffffffffffffffffffffffff1673ffffffffffffffffffffffffffffffffffffffff1681526020019081526020016000206040518060600160405290816000820180546118f390613209565b80601f016020809104026020016040519081016040528092919081815260200182805461191f90613209565b801561196c5780601f106119415761010080835404028352916020019161196c565b820191906000526020600020905b81548152906001019060200180831161194f57829003601f168201915b5050505050815260200160018201805461198590613209565b80601f01602080910402602001604051908101604052809291908181526020018280546119b190613209565b80156119fe5780601f106119d3576101008083540402835291602001916119fe565b820191906000526020600020905b8154815290600101906020018083116119e157829003601f168201915b50505050508152602001600282018054611a1790613209565b80601f0160208091040260200160405190810160405280929190818152602001828054611a4390613209565b8015611a905780601f10611a6557610100808354040283529160200191611a90565b820191906000526020600020905b815481529060010190602001808311611a7357829003601f168201915b5050505050815250509050919050565b600560009054906101000a900473ffffffffffffffffffffffffffffffffffffffff1681565b600560009054906101000a900473ffffffffffffffffffffffffffffffffffffffff1673ffffffffffffffffffffffffffffffffffffffff163373ffffffffffffffffffffffffffffffffffffffff1614611b56576040517f08c379a0000000000000000000000000000000000000000000000000000000008152600401611b4d9061351c565b60405180910390fd5b6000600560146101000a81548160ff021916908315150217905550565b600460009054906101000a900473ffffffffffffffffffffffffffffffffffffffff1681565b600b818051602081018201805184825260208301602085012081835280955050505050506000915090508054611bce90613209565b80601f0160208091040260200160405190810160405280929190818152602001828054611bfa90613209565b8015611c475780601f10611c1c57610100808354040283529160200191611c47565b820191906000526020600020905b815481529060010190602001808311611c2a57829003601f168201915b505050505081565b6000600c80549050905090565b60028054611c6990613209565b80601f0160208091040260200160405190810160405280929190818152602001828054611c9590613209565b8015611ce25780601f10611cb757610100808354040283529160200191611ce2565b820191906000526020600020905b815481529060010190602001808311611cc557829003601f168201915b505050505081565b600c8181548110611cfa57600080fd5b906000526020600020016000915054906101000a900473ffffffffffffffffffffffffffffffffffffffff1681565b60078181548110611d3957600080fd5b906000526020600020016000915054906101000a900473ffffffffffffffffffffffffffffffffffffffff1681565b6000801515600560149054906101000a900460ff16151514611dbf576040517f08c379a0000000000000000000000000000000000000000000000000000000008152600401611db690612e9a565b60405180910390fd5b600560009054906101000a900473ffffffffffffffffffffffffffffffffffffffff1673ffffffffffffffffffffffffffffffffffffffff163373ffffffffffffffffffffffffffffffffffffffff1614611e4f576040517f08c379a0000000000000000000000000000000000000000000000000000000008152600401611e469061351c565b60405180910390fd5b6000849050600081511415611e99576040517f08c379a0000000000000000000000000000000000000000000000000000000008152600401611e9090613588565b60405180910390fd5b600960405180606001604052808781526020018681526020018581525090806001815401808255809150506001900390600052602060002090600302016000909190919091506000820151816000019080519060200190611efb92919061242d565b50602082015181600101556040820151816002015550506001600980549050611f2491906135d7565b9150509392505050565b600080611f3a33610dff565b611f79576040517f08c379a0000000000000000000000000000000000000000000000000000000008152600401611f7090613287565b60405180910390fd5b6009805490508310611fc0576040517f08c379a0000000000000000000000000000000000000000000000000000000008152600401611fb79061367d565b60405180910390fd5b6000600d60003373ffffffffffffffffffffffffffffffffffffffff1673ffffffffffffffffffffffffffffffffffffffff16815260200190815260200160002060008581526020019081526020016000206040518060400160405290816000820160009054906101000a900460ff16600281111561204257612041612656565b5b600281111561205457612053612656565b5b81526020016001820154815250509050806000015192508060200151915050915091565b600460009054906101000a900473ffffffffffffffffffffffffffffffffffffffff1673ffffffffffffffffffffffffffffffffffffffff163373ffffffffffffffffffffffffffffffffffffffff1614612108576040517f08c379a00000000000000000000000000000000000000000000000000000000081526004016120ff90612e08565b60405180910390fd5b60001515600560149054906101000a900460ff1615151461215e576040517f08c379a000000000000000000000000000000000000000000000000000000000815260040161215590612e9a565b60405180910390fd5b80600560006101000a81548173ffffffffffffffffffffffffffffffffffffffff021916908373ffffffffffffffffffffffffffffffffffffffff16021790555050565b600560009054906101000a900473ffffffffffffffffffffffffffffffffffffffff1673ffffffffffffffffffffffffffffffffffffffff163373ffffffffffffffffffffffffffffffffffffffff1614612232576040517f08c379a00000000000000000000000000000000000000000000000000000000081526004016122299061351c565b60405180910390fd5b6001600560146101000a81548160ff021916908315150217905550565b6003805461225c90613209565b80601f016020809104026020016040519081016040528092919081815260200182805461228890613209565b80156122d55780601f106122aa576101008083540402835291602001916122d5565b820191906000526020600020905b8154815290600101906020018083116122b857829003601f168201915b505050505081565b600160009054906101000a900473ffffffffffffffffffffffffffffffffffffffff1681565b60086020528060005260406000206000915054906101000a900460ff1681565b6060600660008373ffffffffffffffffffffffffffffffffffffffff1673ffffffffffffffffffffffffffffffffffffffff168152602001908152602001600020805461236f90613209565b80601f016020809104026020016040519081016040528092919081815260200182805461239b90613209565b80156123e85780601f106123bd576101008083540402835291602001916123e8565b820191906000526020600020905b8154815290600101906020018083116123cb57829003601f168201915b50505050509050919050565b6000600780549050905090565b6040518060400160405280600060028111156124205761241f612656565b5b8152602001600081525090565b82805461243990613209565b90600052602060002090601f01602090048101928261245b57600085556124a2565b82601f1061247457805160ff19168380011785556124a2565b828001600101855582156124a2579182015b828111156124a1578251825591602001919060010190612486565b5b5090506124af91906124d4565b5090565b60405180606001604052806060815260200160608152602001606081525090565b5b808211156124ed5760008160009055506001016124d5565b5090565b600082825260208201905092915050565b7f4e6f206d6f6e6579207472616e7366657220616c6c6f77656400000000000000600082015250565b60006125386019836124f1565b915061254382612502565b602082019050919050565b600060208201905081810360008301526125678161252b565b9050919050565b6000604051905090565b600080fd5b600080fd5b600073ffffffffffffffffffffffffffffffffffffffff82169050919050565b60006125ad82612582565b9050919050565b6125bd816125a2565b81146125c857600080fd5b50565b6000813590506125da816125b4565b92915050565b6000819050919050565b6125f3816125e0565b81146125fe57600080fd5b50565b600081359050612610816125ea565b92915050565b6000806040838503121561262d5761262c612578565b5b600061263b858286016125cb565b925050602061264c85828601612601565b9150509250929050565b7f4e487b7100000000000000000000000000000000000000000000000000000000600052602160045260246000fd5b6003811061269657612695612656565b5b50565b60008190506126a782612685565b919050565b60006126b782612699565b9050919050565b6126c7816126ac565b82525050565b6126d6816125e0565b82525050565b6040820160008201516126f260008501826126be565b50602082015161270560208501826126cd565b50505050565b600060408201905061272060008301846126dc565b92915050565b600080fd5b600080fd5b6000601f19601f8301169050919050565b7f4e487b7100000000000000000000000000000000000000000000000000000000600052604160045260246000fd5b61277982612730565b810181811067ffffffffffffffff8211171561279857612797612741565b5b80604052505050565b60006127ab61256e565b90506127b78282612770565b919050565b600067ffffffffffffffff8211156127d7576127d6612741565b5b6127e082612730565b9050602081019050919050565b82818337600083830152505050565b600061280f61280a846127bc565b6127a1565b90508281526020810184848401111561282b5761282a61272b565b5b6128368482856127ed565b509392505050565b600082601f83011261285357612852612726565b5b81356128638482602086016127fc565b91505092915050565b6000806040838503121561288357612882612578565b5b6000612891858286016125cb565b925050602083013567ffffffffffffffff8111156128b2576128b161257d565b5b6128be8582860161283e565b9150509250929050565b60008115159050919050565b6128dd816128c8565b82525050565b60006020820190506128f860008301846128d4565b92915050565b6003811061290b57600080fd5b50565b60008135905061291d816128fe565b92915050565b6000806000806080858703121561293d5761293c612578565b5b600061294b878288016125cb565b945050602061295c87828801612601565b935050604061296d8782880161290e565b925050606061297e87828801612601565b91505092959194509250565b6000602082840312156129a05761299f612578565b5b60006129ae848285016125cb565b91505092915050565b6129c0816126ac565b82525050565b6129cf816125e0565b82525050565b60006040820190506129ea60008301856129b7565b6129f760208301846129c6565b9392505050565b600060208284031215612a1457612a13612578565b5b6000612a2284828501612601565b91505092915050565b600081519050919050565b60005b83811015612a54578082015181840152602081019050612a39565b83811115612a63576000848401525b50505050565b6000612a7482612a2b565b612a7e81856124f1565b9350612a8e818560208601612a36565b612a9781612730565b840191505092915050565b60006060820190508181036000830152612abc8186612a69565b9050612acb60208301856129c6565b612ad860408301846129c6565b949350505050565b6000602082019050612af560008301846129c6565b92915050565b60006060820190508181036000830152612b158186612a69565b90508181036020830152612b298185612a69565b90508181036040830152612b3d8184612a69565b9050949350505050565b60006020820190508181036000830152612b618184612a69565b905092915050565b600080600060608486031215612b8257612b81612578565b5b600084013567ffffffffffffffff811115612ba057612b9f61257d565b5b612bac8682870161283e565b935050602084013567ffffffffffffffff811115612bcd57612bcc61257d565b5b612bd98682870161283e565b925050604084013567ffffffffffffffff811115612bfa57612bf961257d565b5b612c068682870161283e565b9150509250925092565b600082825260208201905092915050565b6000612c2c82612a2b565b612c368185612c10565b9350612c46818560208601612a36565b612c4f81612730565b840191505092915050565b60006060830160008301518482036000860152612c778282612c21565b91505060208301518482036020860152612c918282612c21565b91505060408301518482036040860152612cab8282612c21565b9150508091505092915050565b60006020820190508181036000830152612cd28184612c5a565b905092915050565b612ce3816125a2565b82525050565b6000602082019050612cfe6000830184612cda565b92915050565b600060208284031215612d1a57612d19612578565b5b600082013567ffffffffffffffff811115612d3857612d3761257d565b5b612d448482850161283e565b91505092915050565b600080600060608486031215612d6657612d65612578565b5b600084013567ffffffffffffffff811115612d8457612d8361257d565b5b612d908682870161283e565b9350506020612da186828701612601565b9250506040612db286828701612601565b9150509250925092565b7f4f6e6c7920636f6e74726163742773206f776e657220616c6c6f776564000000600082015250565b6000612df2601d836124f1565b9150612dfd82612dbc565b602082019050919050565b60006020820190508181036000830152612e2181612de5565b9050919050565b7f4f6e6c7920616c6c6f77656420696620746865207375626a656374206973206f60008201527f70656e0000000000000000000000000000000000000000000000000000000000602082015250565b6000612e846023836124f1565b9150612e8f82612e28565b604082019050919050565b60006020820190508181036000830152612eb381612e77565b9050919050565b7f50726f666573736f722773206e616d652063616e277420626520626c616e6b00600082015250565b6000612ef0601f836124f1565b9150612efb82612eba565b602082019050919050565b60006020820190508181036000830152612f1f81612ee3565b9050919050565b7f43616e27742061646420612070726f666573736f72206d756c7469706c65207460008201527f696d657300000000000000000000000000000000000000000000000000000000602082015250565b6000612f826024836124f1565b9150612f8d82612f26565b604082019050919050565b60006020820190508181036000830152612fb181612f75565b9050919050565b7f4f6e6c792070726f666665736f727320616c6c6f776564000000000000000000600082015250565b6000612fee6017836124f1565b9150612ff982612fb8565b602082019050919050565b6000602082019050818103600083015261301d81612fe1565b9050919050565b7f596f752063616e206f6e6c79206d61726b20616e20656e726f6c6c656420737460008201527f7564656e74000000000000000000000000000000000000000000000000000000602082015250565b60006130806025836124f1565b915061308b82613024565b604082019050919050565b600060208201905081810360008301526130af81613073565b9050919050565b7f596f752063616e2774206d61726b2061206e6f6e2d6578697374616e7420657660008201527f616c756174696f6e000000000000000000000000000000000000000000000000602082015250565b60006131126028836124f1565b915061311d826130b6565b604082019050919050565b6000602082019050818103600083015261314181613105565b9050919050565b7f596f752063616e2774206d61726b207769746820686967686572207468616e2060008201527f3130303000000000000000000000000000000000000000000000000000000000602082015250565b60006131a46024836124f1565b91506131af82613148565b604082019050919050565b600060208201905081810360008301526131d381613197565b9050919050565b7f4e487b7100000000000000000000000000000000000000000000000000000000600052602260045260246000fd5b6000600282049050600182168061322157607f821691505b60208210811415613235576132346131da565b5b50919050565b7f4f6e6c7920656e726f6c6c65642073747564656e747320616c6c6f7765640000600082015250565b6000613271601e836124f1565b915061327c8261323b565b602082019050919050565b600060208201905081810360008301526132a081613264565b9050919050565b7f4f6e6c79206e6f6e2d656e726f6c6c65642073747564656e747320616c6c6f7760008201527f6564000000000000000000000000000000000000000000000000000000000000602082015250565b60006133036022836124f1565b915061330e826132a7565b604082019050919050565b60006020820190508181036000830152613332816132f6565b9050919050565b7f4e616d652063616e277420626520626c616e6b00000000000000000000000000600082015250565b600061336f6013836124f1565b915061337a82613339565b602082019050919050565b6000602082019050818103600083015261339e81613362565b9050919050565b7f456d61696c2063616e277420626520626c616e6b000000000000000000000000600082015250565b60006133db6014836124f1565b91506133e6826133a5565b602082019050919050565b6000602082019050818103600083015261340a816133ce565b9050919050565b7f4944206e756d6265722063616e277420626520626c616e6b0000000000000000600082015250565b60006134476018836124f1565b915061345282613411565b602082019050919050565b600060208201905081810360008301526134768161343a565b9050919050565b600081905092915050565b600061349382612a2b565b61349d818561347d565b93506134ad818560208601612a36565b80840191505092915050565b60006134c58284613488565b915081905092915050565b7f4f6e6c7920436f6f7264696e61746f7220616c6c6f7765640000000000000000600082015250565b60006135066018836124f1565b9150613511826134d0565b602082019050919050565b60006020820190508181036000830152613535816134f9565b9050919050565b7f4576616c756174696f6e2773206e616d652063616e277420626520626c616e6b600082015250565b60006135726020836124f1565b915061357d8261353c565b602082019050919050565b600060208201905081810360008301526135a181613565565b9050919050565b7f4e487b7100000000000000000000000000000000000000000000000000000000600052601160045260246000fd5b60006135e2826125e0565b91506135ed836125e0565b925082821015613600576135ff6135a8565b5b828203905092915050565b7f4576616c756174696f6e277320696e64657820646f6573206e6f74206578697360008201527f7400000000000000000000000000000000000000000000000000000000000000602082015250565b60006136676021836124f1565b91506136728261360b565b604082019050919050565b600060208201905081810360008301526136968161365a565b905091905056fea2646970667358221220350640e19824408b653512cd40fe10781007a2b74b8395544aa1ba90fbc8c1c464736f6c634300080b0033",
  "immutableReferences": {},
  "source": "// Authors: Javier Sanz Sez\n//          Javier Antn Yuste\n\n// SPDX-License-Identifier: GPL-3.O\npragma solidity ^0.8.7;\n\ncontract Asignatura {\n    uint256 public version = 2021;\n    /**\n     * address del profesor que ha desplegado el contrato.\n     * El contrato lo despliega el profesor.\n     */\n\n    address public profesor;\n    string public nombre; // Subject's name\n    string public curso; // Academic year\n    address public owner; // User that has deployed the contract\n    address public coordinador; // Coordinator's address\n    bool public cerrada; // Boolean to check whether the subject is closed or not\n    mapping(address => string) public datosProfesor; // Dict: name-address\n    address[] public profesores; // Proffessors' user addresses\n    mapping(address => bool) public isProfesor;\n\n    // Error definition\n    error DNIExistsError(string dni);\n\n    /**\n     * Datos de una evaluacin\n     */\n    struct Evaluacion {\n        string nombre;\n        uint256 fecha;\n        uint256 puntos;\n    }\n\n    /// Evaluaciones de la asignatura\n    Evaluacion[] public evaluaciones;\n\n    /// Datos de un getAlumno\n    struct DatosAlumno {\n        string nombre;\n        string email;\n        string dni;\n    }\n\n    /// Acceder a los datos de un alumno dada su direccin\n    mapping(address => DatosAlumno) public datosAlumno;\n\n    // Mapping para poder comprobar si existe el DNI\n    mapping(string => string) public dniMap;\n\n    /// Array con las direcciones de los alumnos matriculados\n    address[] public matriculas;\n\n    /// Tipos de notas: no presentado, nota entre 0 y 10, y matricula\n    enum TipoNota {\n        NP,\n        Normal,\n        MH\n    }\n\n    /**\n     * Datos de una nota.\n     * La calificacin est multiplicada por 100 porque no hay decimales\n     */\n    struct Nota {\n        TipoNota tipo;\n        uint256 calificacion;\n    }\n\n    // Dada pa direccion de un alumno, y el indice de la evaluacin, devuelve\n    // la nota del alumno\n    mapping(address => mapping(uint256 => Nota)) public calificaciones;\n\n    // Constructor\n    constructor(string memory _nombre, string memory _curso) {\n        bytes memory bn = bytes(_nombre);\n        require(bn.length != 0, \"Subject's name can't be blank\");\n\n        bytes memory bc = bytes(_curso);\n        require(bc.length != 0, \"Subject's academic year can't be blank\");\n\n        nombre = _nombre;\n        curso = _curso;\n        profesor = msg.sender;\n        owner = msg.sender;\n        cerrada = false;\n    }\n\n    // Getters\n    function getNombreProfesor(address dirProfesor)\n        public\n        view\n        returns (string memory)\n    {\n        return datosProfesor[dirProfesor];\n    }\n\n    function getDatosAlumno(address dirAlumno)\n        public\n        view\n        returns (DatosAlumno memory)\n    {\n        return datosAlumno[dirAlumno];\n    }\n\n    function getCalificacion(address dirAlumno, uint256 indice)\n        public\n        view\n        returns (Nota memory)\n    {\n        return calificaciones[dirAlumno][indice];\n    }\n\n    function miNota(uint256 evaluacion)\n        public\n        view\n        soloMatriculados\n        returns (TipoNota tipo, uint256 calificacion)\n    {\n        require(\n            evaluacion < evaluaciones.length,\n            \"Evaluation's index does not exist\"\n        );\n        Nota memory nota = calificaciones[msg.sender][evaluacion];\n\n        tipo = nota.tipo;\n        calificacion = nota.calificacion;\n    }\n\n    // Setter\n    function setCoordinador(address coord) public soloOwner soloAbierta {\n        coordinador = coord;\n    }\n\n    function cerrar() public soloCoordinador {\n        cerrada = true;\n    }\n\n    function abrir() public soloCoordinador {\n        cerrada = false;\n    }\n\n    function addProfesor(address dirProfesor, string memory nombreProfesor)\n        public\n        soloOwner\n        soloAbierta\n    {\n        bytes memory bn = bytes(nombreProfesor);\n        require(bn.length != 0, \"Professor's name can't be blank\");\n\n        string memory existeProfesor = getNombreProfesor(dirProfesor);\n        bytes memory bep = bytes(existeProfesor);\n        require(bep.length == 0, \"Can't add a professor multiple times\");\n\n        profesores.push(dirProfesor);\n        datosProfesor[dirProfesor] = nombreProfesor;\n\n        isProfesor[dirProfesor] = true;\n    }\n\n    function profesoresLength() public view returns (uint256) {\n        return profesores.length;\n    }\n\n    function evaluacionesLength() public view returns (uint256) {\n        return evaluaciones.length;\n    }\n\n    function creaEvaluacion(\n        string memory _nombre,\n        uint256 _fecha,\n        uint256 _puntos\n    ) public soloAbierta soloCoordinador returns (uint256) {\n        bytes memory bn = bytes(_nombre);\n        require(bn.length != 0, \"Evaluation's name can't be blank\");\n\n        evaluaciones.push(Evaluacion(_nombre, _fecha, _puntos));\n        return evaluaciones.length - 1;\n    }\n\n    function matriculasLength() public view returns (uint256) {\n        return matriculas.length;\n    }\n\n    function automatricula(\n        string memory _nombre,\n        string memory _email,\n        string memory _dni\n    ) public soloAbierta noMatriculados {\n        bytes memory bn = bytes(_nombre);\n        require(bn.length != 0, \"Name can't be blank\");\n        bytes memory em = bytes(_email);\n        require(em.length != 0, \"Email can't be blank\");\n        bytes memory bdni = bytes(_dni);\n        require(bdni.length != 0, \"ID number can't be blank\");\n\n        string memory DNIExists = dniMap[_dni];\n        bytes memory bdni_exists = bytes(DNIExists);\n\n        if (bdni_exists.length != 0) {\n            revert DNIExistsError({dni: DNIExists});\n        }\n\n        DatosAlumno memory datos = DatosAlumno(_nombre, _email, _dni);\n\n        datosAlumno[msg.sender] = datos;\n        dniMap[_dni] = _nombre;\n\n        matriculas.push(msg.sender);\n    }\n\n    function quienSoy()\n        public\n        view\n        soloMatriculados\n        returns (\n            string memory _nombre,\n            string memory _email,\n            string memory _dni\n        )\n    {\n        DatosAlumno memory datos = datosAlumno[msg.sender];\n        _nombre = datos.nombre;\n        _email = datos.email;\n        _dni = datos.dni;\n    }\n\n    function califica(\n        address alumno,\n        uint256 evaluacion,\n        TipoNota tipo,\n        uint256 calificacion\n    ) public soloProfesor soloAbierta {\n        require(\n            estaMatriculado(alumno),\n            \"You can only mark an enrolled student\"\n        );\n        require(\n            evaluacion < evaluaciones.length,\n            \"You can't mark a non-existant evaluation\"\n        );\n        require(calificacion <= 1000, \"You can't mark with higher than 1000\");\n\n        Nota memory nota = Nota(tipo, calificacion);\n\n        calificaciones[alumno][evaluacion] = nota;\n    }\n\n    function estaMatriculado(address alumno) public view returns (bool) {\n        string memory _nombre = datosAlumno[alumno].nombre;\n        bytes memory b = bytes(_nombre);\n        return b.length != 0;\n    }\n\n    // Modifiers\n    modifier soloProfesor() {\n        require(isProfesor[msg.sender], \"Only proffesors allowed\");\n        _;\n    }\n    modifier soloMatriculados() {\n        require(estaMatriculado(msg.sender), \"Only enrolled students allowed\");\n        _;\n    }\n    modifier noMatriculados() {\n        require(\n            !estaMatriculado(msg.sender),\n            \"Only non-enrolled students allowed\"\n        );\n        _;\n    }\n    modifier soloOwner() {\n        require(msg.sender == owner, \"Only contract's owner allowed\");\n        _;\n    }\n    modifier soloCoordinador() {\n        require(msg.sender == coordinador, \"Only Coordinator allowed\");\n        _;\n    }\n    modifier soloAbierta() {\n        require(cerrada == false, \"Only allowed if the subject is open\");\n        _;\n    }\n\n    receive() external payable {\n        revert(\"No money transfer allowed\");\n    }\n}\n",
  "sourcePath": "/home/yildirim/Desktop/UNI/BCDA/Practica4/contracts/Asignatura.sol",
  "compiler": {
    "name": "solc",
    "version": "0.8.11+commit.d7f03943.Emscripten.clang"
  },
  "schemaVersion": "3.4.4",
  "updatedAt": "2022-01-05T12:31:20.857Z",
  "networkType": "ethereum",
  "devdoc": {
    "kind": "dev",
    "methods": {},
    "version": 1
  },
  "userdoc": {
    "kind": "user",
    "methods": {
      "datosAlumno(address)": {
        "notice": "Acceder a los datos de un alumno dada su direccin"
      },
      "evaluaciones(uint256)": {
        "notice": "Evaluaciones de la asignatura"
      },
      "matriculas(uint256)": {
        "notice": "Array con las direcciones de los alumnos matriculados"
      },
      "profesor()": {
        "notice": "address del profesor que ha desplegado el contrato. El contrato lo despliega el profesor."
      }
    },
    "version": 1
  }
}