{
  "contractName": "FactoryContract",
  "abi": [
    {
      "inputs": [],
      "stateMutability": "nonpayable",
      "type": "constructor"
    },
    {
      "inputs": [
        {
          "internalType": "address",
          "name": "",
          "type": "address"
        }
      ],
      "name": "is_admin",
      "outputs": [
        {
          "internalType": "bool",
          "name": "",
          "type": "bool"
        }
      ],
      "stateMutability": "view",
      "type": "function"
    },
    {
      "inputs": [
        {
          "internalType": "address",
          "name": "new_admin",
          "type": "address"
        }
      ],
      "name": "addAdmin",
      "outputs": [],
      "stateMutability": "nonpayable",
      "type": "function"
    },
    {
      "inputs": [
        {
          "internalType": "address",
          "name": "_admin",
          "type": "address"
        }
      ],
      "name": "removeAdmin",
      "outputs": [],
      "stateMutability": "nonpayable",
      "type": "function"
    },
    {
      "inputs": [],
      "name": "setMasterContract",
      "outputs": [],
      "stateMutability": "nonpayable",
      "type": "function"
    },
    {
      "inputs": [
        {
          "internalType": "address",
          "name": "_storageContract",
          "type": "address"
        }
      ],
      "name": "setStorageContract",
      "outputs": [],
      "stateMutability": "nonpayable",
      "type": "function"
    },
    {
      "inputs": [
        {
          "internalType": "string",
          "name": "name",
          "type": "string"
        },
        {
          "internalType": "string",
          "name": "symbol",
          "type": "string"
        },
        {
          "internalType": "address",
          "name": "creator",
          "type": "address"
        }
      ],
      "name": "createIndex",
      "outputs": [
        {
          "internalType": "address",
          "name": "index",
          "type": "address"
        }
      ],
      "stateMutability": "nonpayable",
      "type": "function"
    }
  ],
  "bytecode": "0x608060405234801561001057600080fd5b506001600260003373ffffffffffffffffffffffffffffffffffffffff1673ffffffffffffffffffffffffffffffffffffffff16815260200190815260200160002060006101000a81548160ff02191690831515021790555061352b806100786000396000f3fe60806040523480156200001157600080fd5b50600436106200006a5760003560e01c80631785f53c146200006f57806370480275146200008f5780639bdf06a314620000af578063a8a36d9114620000bb578063aac132de14620000f1578063dc38b0a21462000127575b600080fd5b6200008d600480360381019062000087919062000a70565b62000147565b005b620000ad6004803603810190620000a7919062000a70565b620002a3565b005b620000b9620003ff565b005b620000d96004803603810190620000d3919062000b10565b6200063c565b604051620000e8919062000bc5565b60405180910390f35b6200010f600480360381019062000109919062000a70565b620008a0565b6040516200011e919062000bff565b60405180910390f35b6200014560048036038101906200013f919062000a70565b620008c0565b005b600260003373ffffffffffffffffffffffffffffffffffffffff1673ffffffffffffffffffffffffffffffffffffffff16815260200190815260200160002060009054906101000a900460ff16620001d6576040517f08c379a0000000000000000000000000000000000000000000000000000000008152600401620001cd9062000ca3565b60405180910390fd5b600073ffffffffffffffffffffffffffffffffffffffff168173ffffffffffffffffffffffffffffffffffffffff160362000248576040517f08c379a00000000000000000000000000000000000000000000000000000000081526004016200023f9062000d15565b60405180910390fd5b6000600260008373ffffffffffffffffffffffffffffffffffffffff1673ffffffffffffffffffffffffffffffffffffffff16815260200190815260200160002060006101000a81548160ff02191690831515021790555050565b600260003373ffffffffffffffffffffffffffffffffffffffff1673ffffffffffffffffffffffffffffffffffffffff16815260200190815260200160002060009054906101000a900460ff1662000332576040517f08c379a0000000000000000000000000000000000000000000000000000000008152600401620003299062000ca3565b60405180910390fd5b600073ffffffffffffffffffffffffffffffffffffffff168173ffffffffffffffffffffffffffffffffffffffff1603620003a4576040517f08c379a00000000000000000000000000000000000000000000000000000000081526004016200039b9062000d15565b60405180910390fd5b6001600260008373ffffffffffffffffffffffffffffffffffffffff1673ffffffffffffffffffffffffffffffffffffffff16815260200190815260200160002060006101000a81548160ff02191690831515021790555050565b600260003373ffffffffffffffffffffffffffffffffffffffff1673ffffffffffffffffffffffffffffffffffffffff16815260200190815260200160002060009054906101000a900460ff166200048e576040517f08c379a0000000000000000000000000000000000000000000000000000000008152600401620004859062000ca3565b60405180910390fd5b6000600160009054906101000a900473ffffffffffffffffffffffffffffffffffffffff1673ffffffffffffffffffffffffffffffffffffffff1663cd446e226040518163ffffffff1660e01b8152600401602060405180830381865afa158015620004fe573d6000803e3d6000fd5b505050506040513d601f19601f8201168201806040525081019062000524919062000d4e565b9050600060026000600360009054906101000a900473ffffffffffffffffffffffffffffffffffffffff1673ffffffffffffffffffffffffffffffffffffffff1673ffffffffffffffffffffffffffffffffffffffff16815260200190815260200160002060006101000a81548160ff0219169083151502179055506001600260008373ffffffffffffffffffffffffffffffffffffffff1673ffffffffffffffffffffffffffffffffffffffff16815260200190815260200160002060006101000a81548160ff02191690831515021790555080600360006101000a81548173ffffffffffffffffffffffffffffffffffffffff021916908373ffffffffffffffffffffffffffffffffffffffff16021790555050565b6000600260003373ffffffffffffffffffffffffffffffffffffffff1673ffffffffffffffffffffffffffffffffffffffff16815260200190815260200160002060009054906101000a900460ff16620006cd576040517f08c379a0000000000000000000000000000000000000000000000000000000008152600401620006c49062000ca3565b60405180910390fd5b6000600160009054906101000a900473ffffffffffffffffffffffffffffffffffffffff1673ffffffffffffffffffffffffffffffffffffffff16632274346b6040518163ffffffff1660e01b8152600401602060405180830381865afa1580156200073d573d6000803e3d6000fd5b505050506040513d601f19601f8201168201806040525081019062000763919062000dc5565b9050600081888888886040516200077a90620009f3565b6200078a95949392919062000e4a565b604051809103906000f080158015620007a7573d6000803e3d6000fd5b5090508073ffffffffffffffffffffffffffffffffffffffff166340c10f1985670de0b6b3a76400006040518363ffffffff1660e01b8152600401620007ef92919062000ef0565b600060405180830381600087803b1580156200080a57600080fd5b505af11580156200081f573d6000803e3d6000fd5b505050508073ffffffffffffffffffffffffffffffffffffffff1663f2fde38b836040518263ffffffff1660e01b81526004016200085e919062000bc5565b600060405180830381600087803b1580156200087957600080fd5b505af11580156200088e573d6000803e3d6000fd5b50505050809250505095945050505050565b60026020528060005260406000206000915054906101000a900460ff1681565b600260003373ffffffffffffffffffffffffffffffffffffffff1673ffffffffffffffffffffffffffffffffffffffff16815260200190815260200160002060009054906101000a900460ff166200094f576040517f08c379a0000000000000000000000000000000000000000000000000000000008152600401620009469062000ca3565b60405180910390fd5b806000806101000a81548173ffffffffffffffffffffffffffffffffffffffff021916908373ffffffffffffffffffffffffffffffffffffffff16021790555060008054906101000a900473ffffffffffffffffffffffffffffffffffffffff16600160006101000a81548173ffffffffffffffffffffffffffffffffffffffff021916908373ffffffffffffffffffffffffffffffffffffffff16021790555050565b6125d88062000f1e83390190565b600080fd5b600080fd5b600073ffffffffffffffffffffffffffffffffffffffff82169050919050565b600062000a388262000a0b565b9050919050565b62000a4a8162000a2b565b811462000a5657600080fd5b50565b60008135905062000a6a8162000a3f565b92915050565b60006020828403121562000a895762000a8862000a01565b5b600062000a998482850162000a59565b91505092915050565b600080fd5b600080fd5b600080fd5b60008083601f84011262000aca5762000ac962000aa2565b5b8235905067ffffffffffffffff81111562000aea5762000ae962000aa7565b5b60208301915083600182028301111562000b095762000b0862000aac565b5b9250929050565b60008060008060006060868803121562000b2f5762000b2e62000a01565b5b600086013567ffffffffffffffff81111562000b505762000b4f62000a06565b5b62000b5e8882890162000ab1565b9550955050602086013567ffffffffffffffff81111562000b845762000b8362000a06565b5b62000b928882890162000ab1565b9350935050604062000ba78882890162000a59565b9150509295509295909350565b62000bbf8162000a2b565b82525050565b600060208201905062000bdc600083018462000bb4565b92915050565b60008115159050919050565b62000bf98162000be2565b82525050565b600060208201905062000c16600083018462000bee565b92915050565b600082825260208201905092915050565b7f466163746f727920436f6e7472616374202d204f6e6c7920616e2041646d696e60008201527f2063616e20696e746572616374207769746820746869732066756e6374696f6e602082015250565b600062000c8b60408362000c1c565b915062000c988262000c2d565b604082019050919050565b6000602082019050818103600083015262000cbe8162000c7c565b9050919050565b7f4164647265737320617267732063616e6e6f74206265206e756c6c0000000000600082015250565b600062000cfd601b8362000c1c565b915062000d0a8262000cc5565b602082019050919050565b6000602082019050818103600083015262000d308162000cee565b9050919050565b60008151905062000d488162000a3f565b92915050565b60006020828403121562000d675762000d6662000a01565b5b600062000d778482850162000d37565b91505092915050565b600062000d8d8262000a0b565b9050919050565b62000d9f8162000d80565b811462000dab57600080fd5b50565b60008151905062000dbf8162000d94565b92915050565b60006020828403121562000dde5762000ddd62000a01565b5b600062000dee8482850162000dae565b91505092915050565b82818337600083830152505050565b6000601f19601f8301169050919050565b600062000e25838562000c1c565b935062000e3483858462000df7565b62000e3f8362000e06565b840190509392505050565b600060608201905062000e61600083018862000bb4565b818103602083015262000e7681868862000e17565b9050818103604083015262000e8d81848662000e17565b90509695505050505050565b6000819050919050565b6000819050919050565b6000819050919050565b600062000ed862000ed262000ecc8462000e99565b62000ead565b62000ea3565b9050919050565b62000eea8162000eb7565b82525050565b600060408201905062000f07600083018562000bb4565b62000f16602083018462000edf565b939250505056fe60806040523480156200001157600080fd5b50604051620025d8380380620025d8833981810160405281019062000037919062000679565b8181816003908051906020019062000051929190620003c7565b5080600490805190602001906200006a929190620003c7565b5050506200008d62000081620000f560201b60201c565b620000fd60201b60201c565b82600660006101000a81548173ffffffffffffffffffffffffffffffffffffffff021916908373ffffffffffffffffffffffffffffffffffffffff160217905550620000eb336a084595161401484a000000620001c360201b60201c565b50505050620008f0565b600033905090565b6000600560009054906101000a900473ffffffffffffffffffffffffffffffffffffffff16905081600560006101000a81548173ffffffffffffffffffffffffffffffffffffffff021916908373ffffffffffffffffffffffffffffffffffffffff1602179055508173ffffffffffffffffffffffffffffffffffffffff168173ffffffffffffffffffffffffffffffffffffffff167f8be0079c531659141344cd1fd0a4f28419497f9722a3daafe3b4186f6b6457e060405160405180910390a35050565b600080620001d6620000f560201b60201c565b9050620001eb818585620001f660201b60201c565b600191505092915050565b600073ffffffffffffffffffffffffffffffffffffffff168373ffffffffffffffffffffffffffffffffffffffff160362000268576040517f08c379a00000000000000000000000000000000000000000000000000000000081526004016200025f906200079a565b60405180910390fd5b600073ffffffffffffffffffffffffffffffffffffffff168273ffffffffffffffffffffffffffffffffffffffff1603620002da576040517f08c379a0000000000000000000000000000000000000000000000000000000008152600401620002d19062000832565b60405180910390fd5b80600160008573ffffffffffffffffffffffffffffffffffffffff1673ffffffffffffffffffffffffffffffffffffffff16815260200190815260200160002060008473ffffffffffffffffffffffffffffffffffffffff1673ffffffffffffffffffffffffffffffffffffffff168152602001908152602001600020819055508173ffffffffffffffffffffffffffffffffffffffff168373ffffffffffffffffffffffffffffffffffffffff167f8c5be1e5ebec7d5bd14f71427d1e84f3dd0314c0f7b2291e5b200ac8c7c3b92583604051620003ba91906200086f565b60405180910390a3505050565b828054620003d590620008bb565b90600052602060002090601f016020900481019282620003f9576000855562000445565b82601f106200041457805160ff191683800117855562000445565b8280016001018555821562000445579182015b828111156200044457825182559160200191906001019062000427565b5b50905062000454919062000458565b5090565b5b808211156200047357600081600090555060010162000459565b5090565b6000604051905090565b600080fd5b600080fd5b600073ffffffffffffffffffffffffffffffffffffffff82169050919050565b6000620004b8826200048b565b9050919050565b620004ca81620004ab565b8114620004d657600080fd5b50565b600081519050620004ea81620004bf565b92915050565b600080fd5b600080fd5b6000601f19601f8301169050919050565b7f4e487b7100000000000000000000000000000000000000000000000000000000600052604160045260246000fd5b6200054582620004fa565b810181811067ffffffffffffffff821117156200056757620005666200050b565b5b80604052505050565b60006200057c62000477565b90506200058a82826200053a565b919050565b600067ffffffffffffffff821115620005ad57620005ac6200050b565b5b620005b882620004fa565b9050602081019050919050565b60005b83811015620005e5578082015181840152602081019050620005c8565b83811115620005f5576000848401525b50505050565b6000620006126200060c846200058f565b62000570565b905082815260208101848484011115620006315762000630620004f5565b5b6200063e848285620005c5565b509392505050565b600082601f8301126200065e576200065d620004f0565b5b815162000670848260208601620005fb565b91505092915050565b60008060006060848603121562000695576200069462000481565b5b6000620006a586828701620004d9565b935050602084015167ffffffffffffffff811115620006c957620006c862000486565b5b620006d78682870162000646565b925050604084015167ffffffffffffffff811115620006fb57620006fa62000486565b5b620007098682870162000646565b9150509250925092565b600082825260208201905092915050565b7f45524332303a20617070726f76652066726f6d20746865207a65726f2061646460008201527f7265737300000000000000000000000000000000000000000000000000000000602082015250565b60006200078260248362000713565b91506200078f8262000724565b604082019050919050565b60006020820190508181036000830152620007b58162000773565b9050919050565b7f45524332303a20617070726f766520746f20746865207a65726f20616464726560008201527f7373000000000000000000000000000000000000000000000000000000000000602082015250565b60006200081a60228362000713565b91506200082782620007bc565b604082019050919050565b600060208201905081810360008301526200084d816200080b565b9050919050565b6000819050919050565b620008698162000854565b82525050565b60006020820190506200088660008301846200085e565b92915050565b7f4e487b7100000000000000000000000000000000000000000000000000000000600052602260045260246000fd5b60006002820490506001821680620008d457607f821691505b602082108103620008ea57620008e96200088c565b5b50919050565b611cd880620009006000396000f3fe608060405234801561001057600080fd5b506004361061010b5760003560e01c806370a08231116100a257806395d89b411161007157806395d89b41146102a6578063a457c2d7146102c4578063a9059cbb146102f4578063dd62ed3e14610324578063f2fde38b146103545761010b565b806370a0823114610232578063715018a61461026257806379cc67901461026c5780638da5cb5b146102885761010b565b8063313ce567116100de578063313ce567146101ac57806339509351146101ca57806340c10f19146101fa57806342966c68146102165761010b565b806306fdde0314610110578063095ea7b31461012e57806318160ddd1461015e57806323b872dd1461017c575b600080fd5b610118610370565b604051610125919061127a565b60405180910390f35b61014860048036038101906101439190611335565b610402565b6040516101559190611390565b60405180910390f35b610166610425565b60405161017391906113ba565b60405180910390f35b610196600480360381019061019191906113d5565b61042f565b6040516101a39190611390565b60405180910390f35b6101b461045e565b6040516101c19190611444565b60405180910390f35b6101e460048036038101906101df9190611335565b610467565b6040516101f19190611390565b60405180910390f35b610214600480360381019061020f9190611335565b61049e565b005b610230600480360381019061022b919061145f565b610528565b005b61024c6004803603810190610247919061148c565b61053c565b60405161025991906113ba565b60405180910390f35b61026a610584565b005b61028660048036038101906102819190611335565b61060c565b005b61029061062c565b60405161029d91906114c8565b60405180910390f35b6102ae610656565b6040516102bb919061127a565b60405180910390f35b6102de60048036038101906102d99190611335565b6106e8565b6040516102eb9190611390565b60405180910390f35b61030e60048036038101906103099190611335565b61075f565b60405161031b9190611390565b60405180910390f35b61033e600480360381019061033991906114e3565b610782565b60405161034b91906113ba565b60405180910390f35b61036e6004803603810190610369919061148c565b610809565b005b60606003805461037f90611552565b80601f01602080910402602001604051908101604052809291908181526020018280546103ab90611552565b80156103f85780601f106103cd576101008083540402835291602001916103f8565b820191906000526020600020905b8154815290600101906020018083116103db57829003601f168201915b5050505050905090565b60008061040d610900565b905061041a818585610908565b600191505092915050565b6000600254905090565b60008061043a610900565b9050610447858285610ad1565b610452858585610b5d565b60019150509392505050565b60006012905090565b600080610472610900565b90506104938185856104848589610782565b61048e91906115b2565b610908565b600191505092915050565b6104a6610900565b73ffffffffffffffffffffffffffffffffffffffff166104c461062c565b73ffffffffffffffffffffffffffffffffffffffff161461051a576040517f08c379a000000000000000000000000000000000000000000000000000000000815260040161051190611654565b60405180910390fd5b6105248282610ddc565b5050565b610539610533610900565b82610f3b565b50565b60008060008373ffffffffffffffffffffffffffffffffffffffff1673ffffffffffffffffffffffffffffffffffffffff168152602001908152602001600020549050919050565b61058c610900565b73ffffffffffffffffffffffffffffffffffffffff166105aa61062c565b73ffffffffffffffffffffffffffffffffffffffff1614610600576040517f08c379a00000000000000000000000000000000000000000000000000000000081526004016105f790611654565b60405180910390fd5b61060a6000611111565b565b61061e82610618610900565b83610ad1565b6106288282610f3b565b5050565b6000600560009054906101000a900473ffffffffffffffffffffffffffffffffffffffff16905090565b60606004805461066590611552565b80601f016020809104026020016040519081016040528092919081815260200182805461069190611552565b80156106de5780601f106106b3576101008083540402835291602001916106de565b820191906000526020600020905b8154815290600101906020018083116106c157829003601f168201915b5050505050905090565b6000806106f3610900565b905060006107018286610782565b905083811015610746576040517f08c379a000000000000000000000000000000000000000000000000000000000815260040161073d906116e6565b60405180910390fd5b6107538286868403610908565b60019250505092915050565b60008061076a610900565b9050610777818585610b5d565b600191505092915050565b6000600160008473ffffffffffffffffffffffffffffffffffffffff1673ffffffffffffffffffffffffffffffffffffffff16815260200190815260200160002060008373ffffffffffffffffffffffffffffffffffffffff1673ffffffffffffffffffffffffffffffffffffffff16815260200190815260200160002054905092915050565b610811610900565b73ffffffffffffffffffffffffffffffffffffffff1661082f61062c565b73ffffffffffffffffffffffffffffffffffffffff1614610885576040517f08c379a000000000000000000000000000000000000000000000000000000000815260040161087c90611654565b60405180910390fd5b600073ffffffffffffffffffffffffffffffffffffffff168173ffffffffffffffffffffffffffffffffffffffff16036108f4576040517f08c379a00000000000000000000000000000000000000000000000000000000081526004016108eb90611778565b60405180910390fd5b6108fd81611111565b50565b600033905090565b600073ffffffffffffffffffffffffffffffffffffffff168373ffffffffffffffffffffffffffffffffffffffff1603610977576040517f08c379a000000000000000000000000000000000000000000000000000000000815260040161096e9061180a565b60405180910390fd5b600073ffffffffffffffffffffffffffffffffffffffff168273ffffffffffffffffffffffffffffffffffffffff16036109e6576040517f08c379a00000000000000000000000000000000000000000000000000000000081526004016109dd9061189c565b60405180910390fd5b80600160008573ffffffffffffffffffffffffffffffffffffffff1673ffffffffffffffffffffffffffffffffffffffff16815260200190815260200160002060008473ffffffffffffffffffffffffffffffffffffffff1673ffffffffffffffffffffffffffffffffffffffff168152602001908152602001600020819055508173ffffffffffffffffffffffffffffffffffffffff168373ffffffffffffffffffffffffffffffffffffffff167f8c5be1e5ebec7d5bd14f71427d1e84f3dd0314c0f7b2291e5b200ac8c7c3b92583604051610ac491906113ba565b60405180910390a3505050565b6000610add8484610782565b90507fffffffffffffffffffffffffffffffffffffffffffffffffffffffffffffffff8114610b575781811015610b49576040517f08c379a0000000000000000000000000000000000000000000000000000000008152600401610b4090611908565b60405180910390fd5b610b568484848403610908565b5b50505050565b600073ffffffffffffffffffffffffffffffffffffffff168373ffffffffffffffffffffffffffffffffffffffff1603610bcc576040517f08c379a0000000000000000000000000000000000000000000000000000000008152600401610bc39061199a565b60405180910390fd5b600073ffffffffffffffffffffffffffffffffffffffff168273ffffffffffffffffffffffffffffffffffffffff1603610c3b576040517f08c379a0000000000000000000000000000000000000000000000000000000008152600401610c3290611a2c565b60405180910390fd5b610c468383836111d7565b60008060008573ffffffffffffffffffffffffffffffffffffffff1673ffffffffffffffffffffffffffffffffffffffff16815260200190815260200160002054905081811015610ccc576040517f08c379a0000000000000000000000000000000000000000000000000000000008152600401610cc390611abe565b60405180910390fd5b8181036000808673ffffffffffffffffffffffffffffffffffffffff1673ffffffffffffffffffffffffffffffffffffffff16815260200190815260200160002081905550816000808573ffffffffffffffffffffffffffffffffffffffff1673ffffffffffffffffffffffffffffffffffffffff1681526020019081526020016000206000828254610d5f91906115b2565b925050819055508273ffffffffffffffffffffffffffffffffffffffff168473ffffffffffffffffffffffffffffffffffffffff167fddf252ad1be2c89b69c2b068fc378daa952ba7f163c4a11628f55a4df523b3ef84604051610dc391906113ba565b60405180910390a3610dd68484846111dc565b50505050565b600073ffffffffffffffffffffffffffffffffffffffff168273ffffffffffffffffffffffffffffffffffffffff1603610e4b576040517f08c379a0000000000000000000000000000000000000000000000000000000008152600401610e4290611b2a565b60405180910390fd5b610e57600083836111d7565b8060026000828254610e6991906115b2565b92505081905550806000808473ffffffffffffffffffffffffffffffffffffffff1673ffffffffffffffffffffffffffffffffffffffff1681526020019081526020016000206000828254610ebe91906115b2565b925050819055508173ffffffffffffffffffffffffffffffffffffffff16600073ffffffffffffffffffffffffffffffffffffffff167fddf252ad1be2c89b69c2b068fc378daa952ba7f163c4a11628f55a4df523b3ef83604051610f2391906113ba565b60405180910390a3610f37600083836111dc565b5050565b600073ffffffffffffffffffffffffffffffffffffffff168273ffffffffffffffffffffffffffffffffffffffff1603610faa576040517f08c379a0000000000000000000000000000000000000000000000000000000008152600401610fa190611bbc565b60405180910390fd5b610fb6826000836111d7565b60008060008473ffffffffffffffffffffffffffffffffffffffff1673ffffffffffffffffffffffffffffffffffffffff1681526020019081526020016000205490508181101561103c576040517f08c379a000000000000000000000000000000000000000000000000000000000815260040161103390611c4e565b60405180910390fd5b8181036000808573ffffffffffffffffffffffffffffffffffffffff1673ffffffffffffffffffffffffffffffffffffffff1681526020019081526020016000208190555081600260008282546110939190611c6e565b92505081905550600073ffffffffffffffffffffffffffffffffffffffff168373ffffffffffffffffffffffffffffffffffffffff167fddf252ad1be2c89b69c2b068fc378daa952ba7f163c4a11628f55a4df523b3ef846040516110f891906113ba565b60405180910390a361110c836000846111dc565b505050565b6000600560009054906101000a900473ffffffffffffffffffffffffffffffffffffffff16905081600560006101000a81548173ffffffffffffffffffffffffffffffffffffffff021916908373ffffffffffffffffffffffffffffffffffffffff1602179055508173ffffffffffffffffffffffffffffffffffffffff168173ffffffffffffffffffffffffffffffffffffffff167f8be0079c531659141344cd1fd0a4f28419497f9722a3daafe3b4186f6b6457e060405160405180910390a35050565b505050565b505050565b600081519050919050565b600082825260208201905092915050565b60005b8381101561121b578082015181840152602081019050611200565b8381111561122a576000848401525b50505050565b6000601f19601f8301169050919050565b600061124c826111e1565b61125681856111ec565b93506112668185602086016111fd565b61126f81611230565b840191505092915050565b600060208201905081810360008301526112948184611241565b905092915050565b600080fd5b600073ffffffffffffffffffffffffffffffffffffffff82169050919050565b60006112cc826112a1565b9050919050565b6112dc816112c1565b81146112e757600080fd5b50565b6000813590506112f9816112d3565b92915050565b6000819050919050565b611312816112ff565b811461131d57600080fd5b50565b60008135905061132f81611309565b92915050565b6000806040838503121561134c5761134b61129c565b5b600061135a858286016112ea565b925050602061136b85828601611320565b9150509250929050565b60008115159050919050565b61138a81611375565b82525050565b60006020820190506113a56000830184611381565b92915050565b6113b4816112ff565b82525050565b60006020820190506113cf60008301846113ab565b92915050565b6000806000606084860312156113ee576113ed61129c565b5b60006113fc868287016112ea565b935050602061140d868287016112ea565b925050604061141e86828701611320565b9150509250925092565b600060ff82169050919050565b61143e81611428565b82525050565b60006020820190506114596000830184611435565b92915050565b6000602082840312156114755761147461129c565b5b600061148384828501611320565b91505092915050565b6000602082840312156114a2576114a161129c565b5b60006114b0848285016112ea565b91505092915050565b6114c2816112c1565b82525050565b60006020820190506114dd60008301846114b9565b92915050565b600080604083850312156114fa576114f961129c565b5b6000611508858286016112ea565b9250506020611519858286016112ea565b9150509250929050565b7f4e487b7100000000000000000000000000000000000000000000000000000000600052602260045260246000fd5b6000600282049050600182168061156a57607f821691505b60208210810361157d5761157c611523565b5b50919050565b7f4e487b7100000000000000000000000000000000000000000000000000000000600052601160045260246000fd5b60006115bd826112ff565b91506115c8836112ff565b9250827fffffffffffffffffffffffffffffffffffffffffffffffffffffffffffffffff038211156115fd576115fc611583565b5b828201905092915050565b7f4f776e61626c653a2063616c6c6572206973206e6f7420746865206f776e6572600082015250565b600061163e6020836111ec565b915061164982611608565b602082019050919050565b6000602082019050818103600083015261166d81611631565b9050919050565b7f45524332303a2064656372656173656420616c6c6f77616e63652062656c6f7760008201527f207a65726f000000000000000000000000000000000000000000000000000000602082015250565b60006116d06025836111ec565b91506116db82611674565b604082019050919050565b600060208201905081810360008301526116ff816116c3565b9050919050565b7f4f776e61626c653a206e6577206f776e657220697320746865207a65726f206160008201527f6464726573730000000000000000000000000000000000000000000000000000602082015250565b60006117626026836111ec565b915061176d82611706565b604082019050919050565b6000602082019050818103600083015261179181611755565b9050919050565b7f45524332303a20617070726f76652066726f6d20746865207a65726f2061646460008201527f7265737300000000000000000000000000000000000000000000000000000000602082015250565b60006117f46024836111ec565b91506117ff82611798565b604082019050919050565b60006020820190508181036000830152611823816117e7565b9050919050565b7f45524332303a20617070726f766520746f20746865207a65726f20616464726560008201527f7373000000000000000000000000000000000000000000000000000000000000602082015250565b60006118866022836111ec565b91506118918261182a565b604082019050919050565b600060208201905081810360008301526118b581611879565b9050919050565b7f45524332303a20696e73756666696369656e7420616c6c6f77616e6365000000600082015250565b60006118f2601d836111ec565b91506118fd826118bc565b602082019050919050565b60006020820190508181036000830152611921816118e5565b9050919050565b7f45524332303a207472616e736665722066726f6d20746865207a65726f20616460008201527f6472657373000000000000000000000000000000000000000000000000000000602082015250565b60006119846025836111ec565b915061198f82611928565b604082019050919050565b600060208201905081810360008301526119b381611977565b9050919050565b7f45524332303a207472616e7366657220746f20746865207a65726f206164647260008201527f6573730000000000000000000000000000000000000000000000000000000000602082015250565b6000611a166023836111ec565b9150611a21826119ba565b604082019050919050565b60006020820190508181036000830152611a4581611a09565b9050919050565b7f45524332303a207472616e7366657220616d6f756e742065786365656473206260008201527f616c616e63650000000000000000000000000000000000000000000000000000602082015250565b6000611aa86026836111ec565b9150611ab382611a4c565b604082019050919050565b60006020820190508181036000830152611ad781611a9b565b9050919050565b7f45524332303a206d696e7420746f20746865207a65726f206164647265737300600082015250565b6000611b14601f836111ec565b9150611b1f82611ade565b602082019050919050565b60006020820190508181036000830152611b4381611b07565b9050919050565b7f45524332303a206275726e2066726f6d20746865207a65726f2061646472657360008201527f7300000000000000000000000000000000000000000000000000000000000000602082015250565b6000611ba66021836111ec565b9150611bb182611b4a565b604082019050919050565b60006020820190508181036000830152611bd581611b99565b9050919050565b7f45524332303a206275726e20616d6f756e7420657863656564732062616c616e60008201527f6365000000000000000000000000000000000000000000000000000000000000602082015250565b6000611c386022836111ec565b9150611c4382611bdc565b604082019050919050565b60006020820190508181036000830152611c6781611c2b565b9050919050565b6000611c79826112ff565b9150611c84836112ff565b925082821015611c9757611c96611583565b5b82820390509291505056fea2646970667358221220770145a4ef79cc6671f13c97d2aabe0cdd64cd7e6c7da3c06d2561e3503ce13a64736f6c634300080d0033a2646970667358221220eef738435c3e231cdc516e44737c261712619fe14289ac0f86c85d4b5b8f668964736f6c634300080d0033",
  "immutableReferences": {},
  "source": "// SPDX-License-Identifier: GPL-3.0\npragma solidity >=0.8.13;\n\nimport {IndexContract} from \"./IndexContract.sol\";\nimport {StorageContract} from \"./StorageContract.sol\";\n\ncontract FactoryContract{\n\n    address private storageContract;\n    StorageContract storageContractInstance;\n    mapping(address => bool) public is_admin;\n    address private masterContract;\n\n    modifier onlyAdmins{\n        require(\n            is_admin[msg.sender],\n            \"Factory Contract - Only an Admin can interact with this function\"\n        );\n        _;\n    }    \n\n    constructor(){\n        is_admin[msg.sender] = true;\n    }\n\n    function addAdmin(address new_admin) external onlyAdmins{\n        require(new_admin != address(0x0),\"Address args cannot be null\");\n        is_admin[new_admin] = true;\n    }\n    function removeAdmin(address _admin) external onlyAdmins{\n        require(_admin != address(0x0),\"Address args cannot be null\");\n        is_admin[_admin] = false;\n    }\n\n    function setMasterContract() external onlyAdmins{\n        address _masterContract = storageContractInstance.masterContract();\n        is_admin[masterContract] = false;\n        is_admin[_masterContract] = true;\n        masterContract = _masterContract;\n    }\n    function setStorageContract(address _storageContract) external onlyAdmins {\n        storageContract = _storageContract;\n        storageContractInstance = StorageContract(storageContract);\n    }\n\n    function createIndex(string calldata name, string calldata symbol, address creator) external onlyAdmins returns(address index){\n        address vault = storageContractInstance.vaultContract();\n        IndexContract new_index = new IndexContract(vault, name, symbol);\n\n        new_index.mint(creator, 1*10**18);\n        new_index.transferOwnership(vault);\n\n        return address(new_index);\n    }\n}",
  "sourcePath": "/home/yildirim/TFM-DeFi/contracts/FactoryContract.sol",
  "compiler": {
    "name": "solc",
    "version": "0.8.13+commit.abaa5c0e.Emscripten.clang"
  },
  "schemaVersion": "3.4.7",
  "updatedAt": "2022-06-14T22:07:02.116Z",
  "networkType": "ethereum",
  "devdoc": {
    "kind": "dev",
    "methods": {},
    "version": 1
  },
  "userdoc": {
    "kind": "user",
    "methods": {},
    "version": 1
  }
}