{
  "contractName": "MasterContract",
  "abi": [
    {
      "inputs": [],
      "stateMutability": "nonpayable",
      "type": "constructor"
    },
    {
      "inputs": [],
      "name": "factoryContract",
      "outputs": [
        {
          "internalType": "address",
          "name": "",
          "type": "address"
        }
      ],
      "stateMutability": "view",
      "type": "function",
      "constant": true
    },
    {
      "inputs": [
        {
          "internalType": "address",
          "name": "",
          "type": "address"
        }
      ],
      "name": "isAdmin",
      "outputs": [
        {
          "internalType": "bool",
          "name": "",
          "type": "bool"
        }
      ],
      "stateMutability": "view",
      "type": "function",
      "constant": true
    },
    {
      "inputs": [],
      "name": "storageContract",
      "outputs": [
        {
          "internalType": "address",
          "name": "",
          "type": "address"
        }
      ],
      "stateMutability": "view",
      "type": "function",
      "constant": true
    },
    {
      "inputs": [],
      "name": "vaultContract",
      "outputs": [
        {
          "internalType": "address",
          "name": "",
          "type": "address"
        }
      ],
      "stateMutability": "view",
      "type": "function",
      "constant": true
    },
    {
      "inputs": [
        {
          "internalType": "address",
          "name": "_storageContract",
          "type": "address"
        }
      ],
      "name": "initMasterContract",
      "outputs": [],
      "stateMutability": "nonpayable",
      "type": "function"
    },
    {
      "inputs": [
        {
          "internalType": "address",
          "name": "_admin",
          "type": "address"
        }
      ],
      "name": "addAdmin",
      "outputs": [],
      "stateMutability": "nonpayable",
      "type": "function"
    },
    {
      "inputs": [
        {
          "internalType": "address",
          "name": "_admin",
          "type": "address"
        }
      ],
      "name": "removeAdmin",
      "outputs": [],
      "stateMutability": "nonpayable",
      "type": "function"
    },
    {
      "inputs": [
        {
          "internalType": "address",
          "name": "_storageContract",
          "type": "address"
        }
      ],
      "name": "updateStorageContract",
      "outputs": [],
      "stateMutability": "nonpayable",
      "type": "function"
    },
    {
      "inputs": [
        {
          "internalType": "address",
          "name": "_factoryContract",
          "type": "address"
        }
      ],
      "name": "updateFactoryContract",
      "outputs": [],
      "stateMutability": "nonpayable",
      "type": "function"
    },
    {
      "inputs": [
        {
          "internalType": "address",
          "name": "_vaultContract",
          "type": "address"
        }
      ],
      "name": "updateVaultContract",
      "outputs": [],
      "stateMutability": "nonpayable",
      "type": "function"
    },
    {
      "inputs": [
        {
          "internalType": "address",
          "name": "_masterContract",
          "type": "address"
        }
      ],
      "name": "setMasterContract",
      "outputs": [],
      "stateMutability": "nonpayable",
      "type": "function"
    },
    {
      "inputs": [
        {
          "internalType": "address",
          "name": "_index",
          "type": "address"
        },
        {
          "internalType": "address",
          "name": "receiver",
          "type": "address"
        },
        {
          "internalType": "uint256[]",
          "name": "_collateral",
          "type": "uint256[]"
        }
      ],
      "name": "mint_index",
      "outputs": [
        {
          "internalType": "bool",
          "name": "result",
          "type": "bool"
        }
      ],
      "stateMutability": "nonpayable",
      "type": "function"
    },
    {
      "inputs": [
        {
          "internalType": "address",
          "name": "_index",
          "type": "address"
        },
        {
          "internalType": "address",
          "name": "receiver",
          "type": "address"
        },
        {
          "internalType": "uint256",
          "name": "index_amount_to_redeem",
          "type": "uint256"
        }
      ],
      "name": "redeem_index",
      "outputs": [],
      "stateMutability": "nonpayable",
      "type": "function"
    },
    {
      "inputs": [
        {
          "internalType": "address",
          "name": "_index",
          "type": "address"
        }
      ],
      "name": "getIndexCreator",
      "outputs": [
        {
          "internalType": "address",
          "name": "creator",
          "type": "address"
        }
      ],
      "stateMutability": "view",
      "type": "function",
      "constant": true
    },
    {
      "inputs": [],
      "name": "getAllIndexCreators",
      "outputs": [
        {
          "internalType": "address[]",
          "name": "_array",
          "type": "address[]"
        }
      ],
      "stateMutability": "view",
      "type": "function",
      "constant": true
    },
    {
      "inputs": [
        {
          "internalType": "address",
          "name": "_creator",
          "type": "address"
        },
        {
          "internalType": "address[]",
          "name": "_collateral",
          "type": "address[]"
        },
        {
          "internalType": "uint256[]",
          "name": "_quantities",
          "type": "uint256[]"
        },
        {
          "internalType": "string",
          "name": "name",
          "type": "string"
        },
        {
          "internalType": "string",
          "name": "symbol",
          "type": "string"
        }
      ],
      "name": "create_index",
      "outputs": [
        {
          "internalType": "address",
          "name": "_index",
          "type": "address"
        }
      ],
      "stateMutability": "nonpayable",
      "type": "function"
    }
  ],
  "bytecode": "0x608060405234801561001057600080fd5b506001600660003373ffffffffffffffffffffffffffffffffffffffff1673ffffffffffffffffffffffffffffffffffffffff16815260200190815260200160002060006101000a81548160ff02191690831515021790555061280c806100786000396000f3fe608060405234801561001057600080fd5b50600436106101005760003560e01c806355d1ba331161009757806396d6aa301161006657806396d6aa30146102ab578063a00ea877146102c7578063c2fb538e146102e3578063de11c94a146102ff57610100565b806355d1ba331461021357806356666e241461024357806370480275146102735780638fb6d9971461028f57610100565b806324d7806c116100d357806324d7806c1461017b5780632a3a236f146101ab57806337848f00146101c757806347d666a3146101f757610100565b80630ca2d23f1461010557806311ce0267146101235780631785f53c146101415780632274346b1461015d575b600080fd5b61010d61031d565b60405161011a9190611d64565b60405180910390f35b61012b61054c565b6040516101389190611d95565b60405180910390f35b61015b60048036038101906101569190611de6565b610570565b005b6101656106c6565b6040516101729190611d95565b60405180910390f35b61019560048036038101906101909190611de6565b6106ec565b6040516101a29190611e2e565b60405180910390f35b6101c560048036038101906101c09190611de6565b61070c565b005b6101e160048036038101906101dc9190611f5a565b6109b1565b6040516101ee9190611d95565b60405180910390f35b610211600480360381019061020c9190611de6565b610bbf565b005b61022d60048036038101906102289190612056565b610d8b565b60405161023a9190611e2e565b60405180910390f35b61025d60048036038101906102589190611de6565b610f72565b60405161026a9190611d95565b60405180910390f35b61028d60048036038101906102889190611de6565b611112565b005b6102a960048036038101906102a49190611de6565b6112f5565b005b6102c560048036038101906102c09190612100565b611494565b005b6102e160048036038101906102dc9190611de6565b611616565b005b6102fd60048036038101906102f89190611de6565b61198e565b005b610307611b5a565b6040516103149190611d95565b60405180910390f35b6060600660003373ffffffffffffffffffffffffffffffffffffffff1673ffffffffffffffffffffffffffffffffffffffff16815260200190815260200160002060009054906101000a900460ff166103ab576040517f08c379a00000000000000000000000000000000000000000000000000000000081526004016103a2906121d6565b60405180910390fd5b6000600160009054906101000a900473ffffffffffffffffffffffffffffffffffffffff1673ffffffffffffffffffffffffffffffffffffffff1663c099ab936040518163ffffffff1660e01b8152600401602060405180830381865afa15801561041a573d6000803e3d6000fd5b505050506040513d601f19601f8201168201806040525081019061043e919061220b565b905060005b8181101561054757600160009054906101000a900473ffffffffffffffffffffffffffffffffffffffff1673ffffffffffffffffffffffffffffffffffffffff1663a1a953fd826040518263ffffffff1660e01b81526004016104a69190612247565b602060405180830381865afa1580156104c3573d6000803e3d6000fd5b505050506040513d601f19601f820116820180604052508101906104e79190612277565b8382815181106104fa576104f96122a4565b5b602002602001019073ffffffffffffffffffffffffffffffffffffffff16908173ffffffffffffffffffffffffffffffffffffffff1681525050808061053f90612302565b915050610443565b505090565b60008054906101000a900473ffffffffffffffffffffffffffffffffffffffff1681565b600660003373ffffffffffffffffffffffffffffffffffffffff1673ffffffffffffffffffffffffffffffffffffffff16815260200190815260200160002060009054906101000a900460ff166105fc576040517f08c379a00000000000000000000000000000000000000000000000000000000081526004016105f3906121d6565b60405180910390fd5b600073ffffffffffffffffffffffffffffffffffffffff168173ffffffffffffffffffffffffffffffffffffffff160361066b576040517f08c379a000000000000000000000000000000000000000000000000000000000815260040161066290612396565b60405180910390fd5b6000600660008373ffffffffffffffffffffffffffffffffffffffff1673ffffffffffffffffffffffffffffffffffffffff16815260200190815260200160002060006101000a81548160ff02191690831515021790555050565b600260009054906101000a900473ffffffffffffffffffffffffffffffffffffffff1681565b60066020528060005260406000206000915054906101000a900460ff1681565b600660003373ffffffffffffffffffffffffffffffffffffffff1673ffffffffffffffffffffffffffffffffffffffff16815260200190815260200160002060009054906101000a900460ff16610798576040517f08c379a000000000000000000000000000000000000000000000000000000000815260040161078f906121d6565b60405180910390fd5b600073ffffffffffffffffffffffffffffffffffffffff168173ffffffffffffffffffffffffffffffffffffffff1603610807576040517f08c379a00000000000000000000000000000000000000000000000000000000081526004016107fe90612396565b60405180910390fd5b600360009054906101000a900473ffffffffffffffffffffffffffffffffffffffff1673ffffffffffffffffffffffffffffffffffffffff16632a3a236f826040518263ffffffff1660e01b81526004016108629190611d95565b600060405180830381600087803b15801561087c57600080fd5b505af1158015610890573d6000803e3d6000fd5b50505050600160009054906101000a900473ffffffffffffffffffffffffffffffffffffffff1673ffffffffffffffffffffffffffffffffffffffff16632a3a236f826040518263ffffffff1660e01b81526004016108ef9190611d95565b600060405180830381600087803b15801561090957600080fd5b505af115801561091d573d6000803e3d6000fd5b50505050600560009054906101000a900473ffffffffffffffffffffffffffffffffffffffff1673ffffffffffffffffffffffffffffffffffffffff16632a3a236f826040518263ffffffff1660e01b815260040161097c9190611d95565b600060405180830381600087803b15801561099657600080fd5b505af11580156109aa573d6000803e3d6000fd5b5050505050565b60008073ffffffffffffffffffffffffffffffffffffffff168a73ffffffffffffffffffffffffffffffffffffffff1603610a21576040517f08c379a0000000000000000000000000000000000000000000000000000000008152600401610a1890612396565b60405180910390fd5b60008989905014158015610a39575060008787905014155b610a78576040517f08c379a0000000000000000000000000000000000000000000000000000000008152600401610a6f90612402565b60405180910390fd5b610a828989611b80565b610ac1576040517f08c379a0000000000000000000000000000000000000000000000000000000008152600401610ab890612494565b60405180910390fd5b610acb8787611c17565b610b0a576040517f08c379a0000000000000000000000000000000000000000000000000000000008152600401610b0190612526565b60405180910390fd5b600560009054906101000a900473ffffffffffffffffffffffffffffffffffffffff1673ffffffffffffffffffffffffffffffffffffffff1663a8a36d91868686868f6040518663ffffffff1660e01b8152600401610b6d959493929190612593565b6020604051808303816000875af1158015610b8c573d6000803e3d6000fd5b505050506040513d601f19601f82011682018060405250810190610bb09190612277565b90509998505050505050505050565b600660003373ffffffffffffffffffffffffffffffffffffffff1673ffffffffffffffffffffffffffffffffffffffff16815260200190815260200160002060009054906101000a900460ff16610c4b576040517f08c379a0000000000000000000000000000000000000000000000000000000008152600401610c42906121d6565b60405180910390fd5b600073ffffffffffffffffffffffffffffffffffffffff168173ffffffffffffffffffffffffffffffffffffffff1603610cba576040517f08c379a0000000000000000000000000000000000000000000000000000000008152600401610cb190612396565b60405180910390fd5b80600260006101000a81548173ffffffffffffffffffffffffffffffffffffffff021916908373ffffffffffffffffffffffffffffffffffffffff160217905550600160009054906101000a900473ffffffffffffffffffffffffffffffffffffffff1673ffffffffffffffffffffffffffffffffffffffff166396f4ada6826040518263ffffffff1660e01b8152600401610d569190611d95565b600060405180830381600087803b158015610d7057600080fd5b505af1158015610d84573d6000803e3d6000fd5b5050505050565b60008073ffffffffffffffffffffffffffffffffffffffff168573ffffffffffffffffffffffffffffffffffffffff1614158015610df65750600073ffffffffffffffffffffffffffffffffffffffff168473ffffffffffffffffffffffffffffffffffffffff1614155b610e35576040517f08c379a0000000000000000000000000000000000000000000000000000000008152600401610e2c90612396565b60405180910390fd5b60008383905003610e7b576040517f08c379a0000000000000000000000000000000000000000000000000000000008152600401610e7290612402565b60405180910390fd5b610e858383611c17565b610ec4576040517f08c379a0000000000000000000000000000000000000000000000000000000008152600401610ebb90612494565b60405180910390fd5b600360009054906101000a900473ffffffffffffffffffffffffffffffffffffffff1673ffffffffffffffffffffffffffffffffffffffff166355d1ba33868686866040518563ffffffff1660e01b8152600401610f25949392919061264e565b6020604051808303816000875af1158015610f44573d6000803e3d6000fd5b505050506040513d601f19601f82011682018060405250810190610f6891906126ba565b9050949350505050565b6000600660003373ffffffffffffffffffffffffffffffffffffffff1673ffffffffffffffffffffffffffffffffffffffff16815260200190815260200160002060009054906101000a900460ff16611000576040517f08c379a0000000000000000000000000000000000000000000000000000000008152600401610ff7906121d6565b60405180910390fd5b600073ffffffffffffffffffffffffffffffffffffffff168273ffffffffffffffffffffffffffffffffffffffff160361106f576040517f08c379a000000000000000000000000000000000000000000000000000000000815260040161106690612396565b60405180910390fd5b600160009054906101000a900473ffffffffffffffffffffffffffffffffffffffff1673ffffffffffffffffffffffffffffffffffffffff166356666e24836040518263ffffffff1660e01b81526004016110ca9190611d95565b602060405180830381865afa1580156110e7573d6000803e3d6000fd5b505050506040513d601f19601f8201168201806040525081019061110b9190612277565b9050919050565b600660003373ffffffffffffffffffffffffffffffffffffffff1673ffffffffffffffffffffffffffffffffffffffff16815260200190815260200160002060009054906101000a900460ff1661119e576040517f08c379a0000000000000000000000000000000000000000000000000000000008152600401611195906121d6565b60405180910390fd5b600073ffffffffffffffffffffffffffffffffffffffff168173ffffffffffffffffffffffffffffffffffffffff160361120d576040517f08c379a000000000000000000000000000000000000000000000000000000000815260040161120490612396565b60405180910390fd5b6001600660008373ffffffffffffffffffffffffffffffffffffffff1673ffffffffffffffffffffffffffffffffffffffff16815260200190815260200160002060006101000a81548160ff021916908315150217905550600160009054906101000a900473ffffffffffffffffffffffffffffffffffffffff1673ffffffffffffffffffffffffffffffffffffffff166370480275826040518263ffffffff1660e01b81526004016112c09190611d95565b600060405180830381600087803b1580156112da57600080fd5b505af11580156112ee573d6000803e3d6000fd5b5050505050565b600660003373ffffffffffffffffffffffffffffffffffffffff1673ffffffffffffffffffffffffffffffffffffffff16815260200190815260200160002060009054906101000a900460ff16611381576040517f08c379a0000000000000000000000000000000000000000000000000000000008152600401611378906121d6565b60405180910390fd5b600073ffffffffffffffffffffffffffffffffffffffff168173ffffffffffffffffffffffffffffffffffffffff16036113f0576040517f08c379a00000000000000000000000000000000000000000000000000000000081526004016113e790612396565b60405180910390fd5b806000806101000a81548173ffffffffffffffffffffffffffffffffffffffff021916908373ffffffffffffffffffffffffffffffffffffffff16021790555060008054906101000a900473ffffffffffffffffffffffffffffffffffffffff16600160006101000a81548173ffffffffffffffffffffffffffffffffffffffff021916908373ffffffffffffffffffffffffffffffffffffffff16021790555050565b600073ffffffffffffffffffffffffffffffffffffffff168373ffffffffffffffffffffffffffffffffffffffff16141580156114fe5750600073ffffffffffffffffffffffffffffffffffffffff168273ffffffffffffffffffffffffffffffffffffffff1614155b61153d576040517f08c379a000000000000000000000000000000000000000000000000000000000815260040161153490612396565b60405180910390fd5b60008103611580576040517f08c379a00000000000000000000000000000000000000000000000000000000081526004016115779061277f565b60405180910390fd5b600360009054906101000a900473ffffffffffffffffffffffffffffffffffffffff1673ffffffffffffffffffffffffffffffffffffffff166396d6aa308484846040518463ffffffff1660e01b81526004016115df9392919061279f565b600060405180830381600087803b1580156115f957600080fd5b505af115801561160d573d6000803e3d6000fd5b50505050505050565b600660003373ffffffffffffffffffffffffffffffffffffffff1673ffffffffffffffffffffffffffffffffffffffff16815260200190815260200160002060009054906101000a900460ff166116a2576040517f08c379a0000000000000000000000000000000000000000000000000000000008152600401611699906121d6565b60405180910390fd5b806000806101000a81548173ffffffffffffffffffffffffffffffffffffffff021916908373ffffffffffffffffffffffffffffffffffffffff16021790555080600160006101000a81548173ffffffffffffffffffffffffffffffffffffffff021916908373ffffffffffffffffffffffffffffffffffffffff160217905550600160009054906101000a900473ffffffffffffffffffffffffffffffffffffffff1673ffffffffffffffffffffffffffffffffffffffff16632274346b6040518163ffffffff1660e01b8152600401602060405180830381865afa158015611790573d6000803e3d6000fd5b505050506040513d601f19601f820116820180604052508101906117b49190612277565b600260006101000a81548173ffffffffffffffffffffffffffffffffffffffff021916908373ffffffffffffffffffffffffffffffffffffffff160217905550600260009054906101000a900473ffffffffffffffffffffffffffffffffffffffff16600360006101000a81548173ffffffffffffffffffffffffffffffffffffffff021916908373ffffffffffffffffffffffffffffffffffffffff160217905550600160009054906101000a900473ffffffffffffffffffffffffffffffffffffffff1673ffffffffffffffffffffffffffffffffffffffff1663de11c94a6040518163ffffffff1660e01b8152600401602060405180830381865afa1580156118c4573d6000803e3d6000fd5b505050506040513d601f19601f820116820180604052508101906118e89190612277565b600460006101000a81548173ffffffffffffffffffffffffffffffffffffffff021916908373ffffffffffffffffffffffffffffffffffffffff160217905550600460009054906101000a900473ffffffffffffffffffffffffffffffffffffffff16600560006101000a81548173ffffffffffffffffffffffffffffffffffffffff021916908373ffffffffffffffffffffffffffffffffffffffff16021790555050565b600660003373ffffffffffffffffffffffffffffffffffffffff1673ffffffffffffffffffffffffffffffffffffffff16815260200190815260200160002060009054906101000a900460ff16611a1a576040517f08c379a0000000000000000000000000000000000000000000000000000000008152600401611a11906121d6565b60405180910390fd5b600073ffffffffffffffffffffffffffffffffffffffff168173ffffffffffffffffffffffffffffffffffffffff1603611a89576040517f08c379a0000000000000000000000000000000000000000000000000000000008152600401611a8090612396565b60405180910390fd5b80600460006101000a81548173ffffffffffffffffffffffffffffffffffffffff021916908373ffffffffffffffffffffffffffffffffffffffff160217905550600160009054906101000a900473ffffffffffffffffffffffffffffffffffffffff1673ffffffffffffffffffffffffffffffffffffffff1663d4241341826040518263ffffffff1660e01b8152600401611b259190611d95565b600060405180830381600087803b158015611b3f57600080fd5b505af1158015611b53573d6000803e3d6000fd5b5050505050565b600460009054906101000a900473ffffffffffffffffffffffffffffffffffffffff1681565b600080600090505b83839050811015611c0b57600073ffffffffffffffffffffffffffffffffffffffff16848483818110611bbe57611bbd6122a4565b5b9050602002016020810190611bd39190611de6565b73ffffffffffffffffffffffffffffffffffffffff1603611bf8576000915050611c11565b8080611c0390612302565b915050611b88565b50600190505b92915050565b600080600090505b83839050811015611c68576000848483818110611c3f57611c3e6122a4565b5b9050602002013503611c55576000915050611c6e565b8080611c6090612302565b915050611c1f565b50600190505b92915050565b600081519050919050565b600082825260208201905092915050565b6000819050602082019050919050565b600073ffffffffffffffffffffffffffffffffffffffff82169050919050565b6000611ccb82611ca0565b9050919050565b611cdb81611cc0565b82525050565b6000611ced8383611cd2565b60208301905092915050565b6000602082019050919050565b6000611d1182611c74565b611d1b8185611c7f565b9350611d2683611c90565b8060005b83811015611d57578151611d3e8882611ce1565b9750611d4983611cf9565b925050600181019050611d2a565b5085935050505092915050565b60006020820190508181036000830152611d7e8184611d06565b905092915050565b611d8f81611cc0565b82525050565b6000602082019050611daa6000830184611d86565b92915050565b600080fd5b600080fd5b611dc381611cc0565b8114611dce57600080fd5b50565b600081359050611de081611dba565b92915050565b600060208284031215611dfc57611dfb611db0565b5b6000611e0a84828501611dd1565b91505092915050565b60008115159050919050565b611e2881611e13565b82525050565b6000602082019050611e436000830184611e1f565b92915050565b600080fd5b600080fd5b600080fd5b60008083601f840112611e6e57611e6d611e49565b5b8235905067ffffffffffffffff811115611e8b57611e8a611e4e565b5b602083019150836020820283011115611ea757611ea6611e53565b5b9250929050565b60008083601f840112611ec457611ec3611e49565b5b8235905067ffffffffffffffff811115611ee157611ee0611e4e565b5b602083019150836020820283011115611efd57611efc611e53565b5b9250929050565b60008083601f840112611f1a57611f19611e49565b5b8235905067ffffffffffffffff811115611f3757611f36611e4e565b5b602083019150836001820283011115611f5357611f52611e53565b5b9250929050565b600080600080600080600080600060a08a8c031215611f7c57611f7b611db0565b5b6000611f8a8c828d01611dd1565b99505060208a013567ffffffffffffffff811115611fab57611faa611db5565b5b611fb78c828d01611e58565b985098505060408a013567ffffffffffffffff811115611fda57611fd9611db5565b5b611fe68c828d01611eae565b965096505060608a013567ffffffffffffffff81111561200957612008611db5565b5b6120158c828d01611f04565b945094505060808a013567ffffffffffffffff81111561203857612037611db5565b5b6120448c828d01611f04565b92509250509295985092959850929598565b600080600080606085870312156120705761206f611db0565b5b600061207e87828801611dd1565b945050602061208f87828801611dd1565b935050604085013567ffffffffffffffff8111156120b0576120af611db5565b5b6120bc87828801611eae565b925092505092959194509250565b6000819050919050565b6120dd816120ca565b81146120e857600080fd5b50565b6000813590506120fa816120d4565b92915050565b60008060006060848603121561211957612118611db0565b5b600061212786828701611dd1565b935050602061213886828701611dd1565b9250506040612149868287016120eb565b9150509250925092565b600082825260208201905092915050565b7f4f6e6c792041646d696e732063616e206578656375746520746869732066756e60008201527f6374696f6e000000000000000000000000000000000000000000000000000000602082015250565b60006121c0602583612153565b91506121cb82612164565b604082019050919050565b600060208201905081810360008301526121ef816121b3565b9050919050565b600081519050612205816120d4565b92915050565b60006020828403121561222157612220611db0565b5b600061222f848285016121f6565b91505092915050565b612241816120ca565b82525050565b600060208201905061225c6000830184612238565b92915050565b60008151905061227181611dba565b92915050565b60006020828403121561228d5761228c611db0565b5b600061229b84828501612262565b91505092915050565b7f4e487b7100000000000000000000000000000000000000000000000000000000600052603260045260246000fd5b7f4e487b7100000000000000000000000000000000000000000000000000000000600052601160045260246000fd5b600061230d826120ca565b91507fffffffffffffffffffffffffffffffffffffffffffffffffffffffffffffffff820361233f5761233e6122d3565b5b600182019050919050565b7f4164647265737320617267732063616e6e6f74206265206e756c6c0000000000600082015250565b6000612380601b83612153565b915061238b8261234a565b602082019050919050565b600060208201905081810360008301526123af81612373565b9050919050565b7f417272617920617267732063616e6e6f74206265206e756c6c2f656d70747900600082015250565b60006123ec601f83612153565b91506123f7826123b6565b602082019050919050565b6000602082019050818103600083015261241b816123df565b9050919050565b7f436f6c6c61746572616c2061727261792063616e6e6f74206861766520616e2060008201527f656d70747920746f6b656e000000000000000000000000000000000000000000602082015250565b600061247e602b83612153565b915061248982612422565b604082019050919050565b600060208201905081810360008301526124ad81612471565b9050919050565b7f5175616e7469746965732061727261792063616e6e6f74206861766520616e2060008201527f656d70747920746f6b656e000000000000000000000000000000000000000000602082015250565b6000612510602b83612153565b915061251b826124b4565b604082019050919050565b6000602082019050818103600083015261253f81612503565b9050919050565b82818337600083830152505050565b6000601f19601f8301169050919050565b60006125728385612153565b935061257f838584612546565b61258883612555565b840190509392505050565b600060608201905081810360008301526125ae818789612566565b905081810360208301526125c3818587612566565b90506125d26040830184611d86565b9695505050505050565b600082825260208201905092915050565b600080fd5b60006125fe83856125dc565b93507f07ffffffffffffffffffffffffffffffffffffffffffffffffffffffffffffff831115612631576126306125ed565b5b602083029250612642838584612546565b82840190509392505050565b60006060820190506126636000830187611d86565b6126706020830186611d86565b81810360408301526126838184866125f2565b905095945050505050565b61269781611e13565b81146126a257600080fd5b50565b6000815190506126b48161268e565b92915050565b6000602082840312156126d0576126cf611db0565b5b60006126de848285016126a5565b91505092915050565b7f43616e6e6f742072656465656d206e6f6e6520696e6465782e204d617962652060008201527f796f752073656e7420646563696d616c7320776974686f7574207472616e736660208201527f6f726d696e673f00000000000000000000000000000000000000000000000000604082015250565b6000612769604783612153565b9150612774826126e7565b606082019050919050565b600060208201905081810360008301526127988161275c565b9050919050565b60006060820190506127b46000830186611d86565b6127c16020830185611d86565b6127ce6040830184612238565b94935050505056fea264697066735822122034e0050f0b4878c994e991c68967dd65e48a9ac56499357c9fd4c7d241182e1464736f6c634300080d0033",
  "immutableReferences": {},
  "source": "// SPDX-License-Identifier: GPL-3.0\npragma solidity >=0.8.13;\n\ncontract MasterTools{\n    function checkEmptyInAddressArray(address[] calldata addressArray) internal pure returns(bool empty){\n        for(uint i=0; i<addressArray.length;i++){\n            if(addressArray[i]==address(0x0)){\n                return false;\n            }\n        }\n        return true;\n    }\n    function checkEmptyInUintArray(uint[] calldata addressArray) internal pure returns(bool empty){\n    for(uint i=0; i<addressArray.length;i++){\n        if(addressArray[i]== 0){\n            return false;\n        }\n    }\n    return true;\n    }\n}\n\nabstract contract  VaultContract {\n\n    struct Index{\n        address[] collateral; // Which tokens the index references to\n        uint256[] quantities; // How many of each token the index references to\n    }\n\n    function get_index(address _index) virtual external view returns(Index memory __index);\n    function redeem_index(address _index, address receiver, uint index_amount_to_redeem) virtual external;\n    function register_index(address _index, address[] calldata _collateral, uint256[] calldata _quantities ) virtual external;\n    function mint_index(address _index, address receiver, uint256[] calldata _collateral) virtual external returns(bool result);\n    function setMasterContract(address _masterContract) virtual external;\n\n}\n\nabstract contract StorageContract {\n    address public masterContract;\n    address public vaultContract;\n    address public factoryContract;\n    address[] public indices;\n\n    function setMasterContract(address _masterContract) virtual external;\n    function setVaultContract(address _vaultContract) virtual external;\n    function setFactoryContract(address _factoryContract) virtual external;\n    function addNewIndex(address _index, address creator) virtual external;\n    function getIndexCreator(address _index) virtual external view returns(address creator);\n    function addAdmin(address new_admin) virtual external;\n    function getIndicesLength() virtual external view returns(uint length);\n\n}\n\nabstract contract FactoryContract {\n    function createIndex(string calldata name, string calldata symbol, address creator) virtual external returns(address index);\n    function setStorageContract(address _storageContract) virtual external;\n    function setMasterContract(address _masterContract) virtual external;\n}\n\ncontract MasterContract is MasterTools{\n\n    address public storageContract;\n    StorageContract storageContractInstance;\n    address public vaultContract;\n    VaultContract vaultContractInstance;\n    address public factoryContract;\n    FactoryContract factoryContractInstance;\n    \n    mapping (address=>bool) public isAdmin;\n\n    constructor(){\n        isAdmin[address(msg.sender)] = true;\n    }\n\n    modifier onlyAdmins(){\n        require(isAdmin[msg.sender],\"Only Admins can execute this function\");\n        _;\n    }\n\n    function initMasterContract(address _storageContract) external onlyAdmins{\n        // We load the addresses of the rest of the contracts\n        storageContract = _storageContract;\n        storageContractInstance = StorageContract(_storageContract);\n\n        vaultContract = storageContractInstance.vaultContract();\n        vaultContractInstance = VaultContract(vaultContract);\n\n        factoryContract = storageContractInstance.factoryContract();\n        factoryContractInstance = FactoryContract(factoryContract);\n    }\n\n    function addAdmin(address _admin) external onlyAdmins{\n        require(_admin != address(0x0),\"Address args cannot be null\");\n        isAdmin[_admin] = true;\n\n        storageContractInstance.addAdmin(_admin);\n\n    }\n\n    function removeAdmin(address _admin) external onlyAdmins{\n        require(_admin != address(0x0),\"Address args cannot be null\");\n        isAdmin[_admin] = false;\n    }\n\n    // Updaters\n\n    function updateStorageContract (address _storageContract) external onlyAdmins{\n        require(_storageContract != address(0x0),\"Address args cannot be null\");\n        storageContract = _storageContract;\n        storageContractInstance = StorageContract(storageContract);\n    }\n\n    function updateFactoryContract (address _factoryContract) external onlyAdmins{\n        require(_factoryContract != address(0x0),\"Address args cannot be null\");\n        factoryContract = _factoryContract;\n        \n        storageContractInstance.setFactoryContract(_factoryContract);\n    }    \n    \n    function updateVaultContract (address _vaultContract) external onlyAdmins{\n        require(_vaultContract != address(0x0),\"Address args cannot be null\");\n        vaultContract = _vaultContract;\n\n        storageContractInstance.setVaultContract(_vaultContract);\n    }\n\n    function setMasterContract(address _masterContract) external onlyAdmins{\n        require(_masterContract != address(0x0),\"Address args cannot be null\");\n\n        vaultContractInstance.setMasterContract(_masterContract);\n        storageContractInstance.setMasterContract(_masterContract);\n        factoryContractInstance.setMasterContract(_masterContract);\n    }\n\n    // Interacting specifically with the Vault\n\n    function mint_index(address _index, address receiver, uint256[] calldata _collateral) external  returns(bool result){\n        require((_index != address(0x0))&&(receiver != address(0x0)),\"Address args cannot be null\");\n        require(_collateral.length!=0,\"Array args cannot be null/empty\");\n        require(checkEmptyInUintArray(_collateral),\"Collateral array cannot have an empty token\");\n\n        result =  vaultContractInstance.mint_index(_index, receiver, _collateral);       \n    }\n\n    function redeem_index(address _index, address receiver, uint index_amount_to_redeem) external{\n        require((_index != address(0x0))&&(receiver != address(0x0)),\"Address args cannot be null\");\n        require(index_amount_to_redeem != 0 , \"Cannot redeem none index. Maybe you sent decimals without transforming?\");\n\n        vaultContractInstance.redeem_index(_index, receiver, index_amount_to_redeem); \n    }\n\n    // Interacting specifically with the Storage\n\n    function getIndexCreator(address _index) public view onlyAdmins returns(address creator) {\n        require(_index != address(0x0),\"Address args cannot be null\");\n        return storageContractInstance.getIndexCreator(_index);\n    }\n\n    function getAllIndexCreators() external view onlyAdmins returns(address[] memory _array){\n        uint length = storageContractInstance.getIndicesLength();\n        for (uint index = 0; index < length; index++) {\n            _array[index] = storageContractInstance.indices(index);\n        }\n        return _array;\n    }\n\n    // Bulk interactions\n\n    function create_index(address _creator, address[] calldata _collateral, uint256[] calldata _quantities, string calldata name, string calldata symbol) external returns(address _index){\n        require(_creator != address(0x0),\"Address args cannot be null\");\n        \n        require((_collateral.length!=0)&&(_quantities.length!=0),\"Array args cannot be null/empty\");\n        require(checkEmptyInAddressArray(_collateral),\"Collateral array cannot have an empty token\");\n        require(checkEmptyInUintArray(_quantities),\"Quantities array cannot have an empty token\");\n\n        return factoryContractInstance.createIndex(name, symbol, _creator);\n    }\n}",
  "sourcePath": "/home/yildirim/TFM-DeFi/contracts/MasterContract.sol",
  "compiler": {
    "name": "solc",
    "version": "0.8.13+commit.abaa5c0e.Emscripten.clang"
  },
  "schemaVersion": "3.4.7",
  "updatedAt": "2022-05-14T20:33:45.361Z",
  "networkType": "ethereum",
  "devdoc": {
    "kind": "dev",
    "methods": {},
    "version": 1
  },
  "userdoc": {
    "kind": "user",
    "methods": {},
    "version": 1
  }
}