{
  "contractName": "MasterContract",
  "abi": [
    {
      "inputs": [],
      "stateMutability": "nonpayable",
      "type": "constructor"
    },
    {
      "inputs": [
        {
          "internalType": "address",
          "name": "",
          "type": "address"
        }
      ],
      "name": "isAdmin",
      "outputs": [
        {
          "internalType": "bool",
          "name": "",
          "type": "bool"
        }
      ],
      "stateMutability": "view",
      "type": "function",
      "constant": true
    },
    {
      "stateMutability": "payable",
      "type": "receive",
      "payable": true
    },
    {
      "inputs": [
        {
          "internalType": "address",
          "name": "_storageContract",
          "type": "address"
        }
      ],
      "name": "initMasterContract",
      "outputs": [],
      "stateMutability": "nonpayable",
      "type": "function"
    },
    {
      "inputs": [
        {
          "internalType": "address",
          "name": "_admin",
          "type": "address"
        }
      ],
      "name": "addAdmin",
      "outputs": [],
      "stateMutability": "nonpayable",
      "type": "function"
    },
    {
      "inputs": [
        {
          "internalType": "address",
          "name": "_admin",
          "type": "address"
        }
      ],
      "name": "removeAdmin",
      "outputs": [],
      "stateMutability": "nonpayable",
      "type": "function"
    },
    {
      "inputs": [
        {
          "internalType": "address",
          "name": "_storageContract",
          "type": "address"
        }
      ],
      "name": "updateStorageContract",
      "outputs": [],
      "stateMutability": "nonpayable",
      "type": "function"
    },
    {
      "inputs": [
        {
          "internalType": "address",
          "name": "_factoryContract",
          "type": "address"
        }
      ],
      "name": "updateFactoryContract",
      "outputs": [],
      "stateMutability": "nonpayable",
      "type": "function"
    },
    {
      "inputs": [
        {
          "internalType": "address payable",
          "name": "_vaultContract",
          "type": "address"
        }
      ],
      "name": "updateVaultContract",
      "outputs": [],
      "stateMutability": "nonpayable",
      "type": "function"
    },
    {
      "inputs": [
        {
          "internalType": "address",
          "name": "_masterContract",
          "type": "address"
        }
      ],
      "name": "setMasterContract",
      "outputs": [],
      "stateMutability": "nonpayable",
      "type": "function"
    },
    {
      "inputs": [
        {
          "internalType": "address",
          "name": "_index",
          "type": "address"
        },
        {
          "internalType": "address",
          "name": "receiver",
          "type": "address"
        },
        {
          "internalType": "uint256[]",
          "name": "_collateral",
          "type": "uint256[]"
        }
      ],
      "name": "mint_index",
      "outputs": [
        {
          "internalType": "bool",
          "name": "result",
          "type": "bool"
        }
      ],
      "stateMutability": "nonpayable",
      "type": "function"
    },
    {
      "inputs": [
        {
          "internalType": "address",
          "name": "_index",
          "type": "address"
        },
        {
          "internalType": "address",
          "name": "receiver",
          "type": "address"
        },
        {
          "internalType": "uint256",
          "name": "index_amount_to_redeem",
          "type": "uint256"
        }
      ],
      "name": "redeem_index",
      "outputs": [],
      "stateMutability": "nonpayable",
      "type": "function"
    },
    {
      "inputs": [
        {
          "internalType": "address",
          "name": "_index",
          "type": "address"
        }
      ],
      "name": "getIndexCreator",
      "outputs": [
        {
          "internalType": "address",
          "name": "creator",
          "type": "address"
        }
      ],
      "stateMutability": "view",
      "type": "function",
      "constant": true
    },
    {
      "inputs": [],
      "name": "getAllIndexCreators",
      "outputs": [
        {
          "internalType": "address[]",
          "name": "_array",
          "type": "address[]"
        }
      ],
      "stateMutability": "view",
      "type": "function",
      "constant": true
    },
    {
      "inputs": [
        {
          "internalType": "address",
          "name": "_creator",
          "type": "address"
        },
        {
          "internalType": "address[]",
          "name": "_collateral",
          "type": "address[]"
        },
        {
          "internalType": "uint256[]",
          "name": "_quantities",
          "type": "uint256[]"
        },
        {
          "internalType": "string",
          "name": "name",
          "type": "string"
        },
        {
          "internalType": "string",
          "name": "symbol",
          "type": "string"
        }
      ],
      "name": "create_index",
      "outputs": [
        {
          "internalType": "address",
          "name": "new_index",
          "type": "address"
        }
      ],
      "stateMutability": "nonpayable",
      "type": "function"
    }
  ],
  "bytecode": "0x608060405234801561001057600080fd5b506001600660003373ffffffffffffffffffffffffffffffffffffffff1673ffffffffffffffffffffffffffffffffffffffff16815260200190815260200160002060006101000a81548160ff021916908315150217905550612c05806100786000396000f3fe6080604052600436106100c65760003560e01c806355d1ba331161007f5780638fb6d997116100595780638fb6d9971461029557806396d6aa30146102be578063a00ea877146102e7578063c2fb538e14610310576100cd565b806355d1ba33146101f257806356666e241461022f578063704802751461026c576100cd565b80630ca2d23f146100d25780631785f53c146100fd57806324d7806c146101265780632a3a236f1461016357806337848f001461018c57806347d666a3146101c9576100cd565b366100cd57005b600080fd5b3480156100de57600080fd5b506100e7610339565b6040516100f49190611f40565b60405180910390f35b34801561010957600080fd5b50610124600480360381019061011f9190611f98565b610568565b005b34801561013257600080fd5b5061014d60048036038101906101489190611f98565b6106be565b60405161015a9190611fe0565b60405180910390f35b34801561016f57600080fd5b5061018a60048036038101906101859190611f98565b6106de565b005b34801561019857600080fd5b506101b360048036038101906101ae919061210c565b61096d565b6040516101c09190612217565b60405180910390f35b3480156101d557600080fd5b506101f060048036038101906101eb9190612270565b610d34565b005b3480156101fe57600080fd5b506102196004803603810190610214919061229d565b610f00565b6040516102269190611fe0565b60405180910390f35b34801561023b57600080fd5b5061025660048036038101906102519190611f98565b6110e7565b6040516102639190612217565b60405180910390f35b34801561027857600080fd5b50610293600480360381019061028e9190611f98565b611287565b005b3480156102a157600080fd5b506102bc60048036038101906102b79190611f98565b61146a565b005b3480156102ca57600080fd5b506102e560048036038101906102e09190612347565b611696565b005b3480156102f357600080fd5b5061030e60048036038101906103099190611f98565b611818565b005b34801561031c57600080fd5b5061033760048036038101906103329190611f98565b611b90565b005b6060600660003373ffffffffffffffffffffffffffffffffffffffff1673ffffffffffffffffffffffffffffffffffffffff16815260200190815260200160002060009054906101000a900460ff166103c7576040517f08c379a00000000000000000000000000000000000000000000000000000000081526004016103be9061241d565b60405180910390fd5b6000600160009054906101000a900473ffffffffffffffffffffffffffffffffffffffff1673ffffffffffffffffffffffffffffffffffffffff1663c099ab936040518163ffffffff1660e01b8152600401602060405180830381865afa158015610436573d6000803e3d6000fd5b505050506040513d601f19601f8201168201806040525081019061045a9190612452565b905060005b8181101561056357600160009054906101000a900473ffffffffffffffffffffffffffffffffffffffff1673ffffffffffffffffffffffffffffffffffffffff1663a1a953fd826040518263ffffffff1660e01b81526004016104c2919061248e565b602060405180830381865afa1580156104df573d6000803e3d6000fd5b505050506040513d601f19601f8201168201806040525081019061050391906124be565b838281518110610516576105156124eb565b5b602002602001019073ffffffffffffffffffffffffffffffffffffffff16908173ffffffffffffffffffffffffffffffffffffffff1681525050808061055b90612549565b91505061045f565b505090565b600660003373ffffffffffffffffffffffffffffffffffffffff1673ffffffffffffffffffffffffffffffffffffffff16815260200190815260200160002060009054906101000a900460ff166105f4576040517f08c379a00000000000000000000000000000000000000000000000000000000081526004016105eb9061241d565b60405180910390fd5b600073ffffffffffffffffffffffffffffffffffffffff168173ffffffffffffffffffffffffffffffffffffffff1603610663576040517f08c379a000000000000000000000000000000000000000000000000000000000815260040161065a906125dd565b60405180910390fd5b6000600660008373ffffffffffffffffffffffffffffffffffffffff1673ffffffffffffffffffffffffffffffffffffffff16815260200190815260200160002060006101000a81548160ff02191690831515021790555050565b60066020528060005260406000206000915054906101000a900460ff1681565b600660003373ffffffffffffffffffffffffffffffffffffffff1673ffffffffffffffffffffffffffffffffffffffff16815260200190815260200160002060009054906101000a900460ff1661076a576040517f08c379a00000000000000000000000000000000000000000000000000000000081526004016107619061241d565b60405180910390fd5b600073ffffffffffffffffffffffffffffffffffffffff168173ffffffffffffffffffffffffffffffffffffffff16036107d9576040517f08c379a00000000000000000000000000000000000000000000000000000000081526004016107d0906125dd565b60405180910390fd5b600160009054906101000a900473ffffffffffffffffffffffffffffffffffffffff1673ffffffffffffffffffffffffffffffffffffffff16632a3a236f826040518263ffffffff1660e01b81526004016108349190612217565b600060405180830381600087803b15801561084e57600080fd5b505af1158015610862573d6000803e3d6000fd5b50505050600360009054906101000a900473ffffffffffffffffffffffffffffffffffffffff1673ffffffffffffffffffffffffffffffffffffffff16639bdf06a36040518163ffffffff1660e01b8152600401600060405180830381600087803b1580156108d057600080fd5b505af11580156108e4573d6000803e3d6000fd5b50505050600560009054906101000a900473ffffffffffffffffffffffffffffffffffffffff1673ffffffffffffffffffffffffffffffffffffffff16639bdf06a36040518163ffffffff1660e01b8152600401600060405180830381600087803b15801561095257600080fd5b505af1158015610966573d6000803e3d6000fd5b5050505050565b60008073ffffffffffffffffffffffffffffffffffffffff168a73ffffffffffffffffffffffffffffffffffffffff16036109dd576040517f08c379a00000000000000000000000000000000000000000000000000000000081526004016109d4906125dd565b60405180910390fd5b600089899050141580156109f5575060008787905014155b610a34576040517f08c379a0000000000000000000000000000000000000000000000000000000008152600401610a2b90612649565b60405180910390fd5b610a3e8989611d5c565b610a7d576040517f08c379a0000000000000000000000000000000000000000000000000000000008152600401610a74906126db565b60405180910390fd5b610a878787611df3565b610ac6576040517f08c379a0000000000000000000000000000000000000000000000000000000008152600401610abd9061276d565b60405180910390fd5b600560009054906101000a900473ffffffffffffffffffffffffffffffffffffffff1673ffffffffffffffffffffffffffffffffffffffff1663a8a36d91868686868f6040518663ffffffff1660e01b8152600401610b299594939291906127da565b6020604051808303816000875af1158015610b48573d6000803e3d6000fd5b505050506040513d601f19601f82011682018060405250810190610b6c91906124be565b9050600160009054906101000a900473ffffffffffffffffffffffffffffffffffffffff1673ffffffffffffffffffffffffffffffffffffffff1663e8969c73828c6040518363ffffffff1660e01b8152600401610bcb929190612823565b600060405180830381600087803b158015610be557600080fd5b505af1158015610bf9573d6000803e3d6000fd5b50505050600360009054906101000a900473ffffffffffffffffffffffffffffffffffffffff1673ffffffffffffffffffffffffffffffffffffffff16631f925c85828b8b8b8b6040518663ffffffff1660e01b8152600401610c60959493929190612949565b600060405180830381600087803b158015610c7a57600080fd5b505af1158015610c8e573d6000803e3d6000fd5b50505050600360009054906101000a900473ffffffffffffffffffffffffffffffffffffffff1673ffffffffffffffffffffffffffffffffffffffff1663a8673dc68a8a8a8a8f6040518663ffffffff1660e01b8152600401610cf5959493929190612992565b600060405180830381600087803b158015610d0f57600080fd5b505af1158015610d23573d6000803e3d6000fd5b505050509998505050505050505050565b600660003373ffffffffffffffffffffffffffffffffffffffff1673ffffffffffffffffffffffffffffffffffffffff16815260200190815260200160002060009054906101000a900460ff16610dc0576040517f08c379a0000000000000000000000000000000000000000000000000000000008152600401610db79061241d565b60405180910390fd5b600073ffffffffffffffffffffffffffffffffffffffff168173ffffffffffffffffffffffffffffffffffffffff1603610e2f576040517f08c379a0000000000000000000000000000000000000000000000000000000008152600401610e26906125dd565b60405180910390fd5b80600260006101000a81548173ffffffffffffffffffffffffffffffffffffffff021916908373ffffffffffffffffffffffffffffffffffffffff160217905550600160009054906101000a900473ffffffffffffffffffffffffffffffffffffffff1673ffffffffffffffffffffffffffffffffffffffff166396f4ada6826040518263ffffffff1660e01b8152600401610ecb91906129ea565b600060405180830381600087803b158015610ee557600080fd5b505af1158015610ef9573d6000803e3d6000fd5b5050505050565b60008073ffffffffffffffffffffffffffffffffffffffff168573ffffffffffffffffffffffffffffffffffffffff1614158015610f6b5750600073ffffffffffffffffffffffffffffffffffffffff168473ffffffffffffffffffffffffffffffffffffffff1614155b610faa576040517f08c379a0000000000000000000000000000000000000000000000000000000008152600401610fa1906125dd565b60405180910390fd5b60008383905003610ff0576040517f08c379a0000000000000000000000000000000000000000000000000000000008152600401610fe790612649565b60405180910390fd5b610ffa8383611df3565b611039576040517f08c379a0000000000000000000000000000000000000000000000000000000008152600401611030906126db565b60405180910390fd5b600360009054906101000a900473ffffffffffffffffffffffffffffffffffffffff1673ffffffffffffffffffffffffffffffffffffffff166355d1ba33868686866040518563ffffffff1660e01b815260040161109a9493929190612a05565b6020604051808303816000875af11580156110b9573d6000803e3d6000fd5b505050506040513d601f19601f820116820180604052508101906110dd9190612a71565b9050949350505050565b6000600660003373ffffffffffffffffffffffffffffffffffffffff1673ffffffffffffffffffffffffffffffffffffffff16815260200190815260200160002060009054906101000a900460ff16611175576040517f08c379a000000000000000000000000000000000000000000000000000000000815260040161116c9061241d565b60405180910390fd5b600073ffffffffffffffffffffffffffffffffffffffff168273ffffffffffffffffffffffffffffffffffffffff16036111e4576040517f08c379a00000000000000000000000000000000000000000000000000000000081526004016111db906125dd565b60405180910390fd5b600160009054906101000a900473ffffffffffffffffffffffffffffffffffffffff1673ffffffffffffffffffffffffffffffffffffffff166356666e24836040518263ffffffff1660e01b815260040161123f9190612217565b602060405180830381865afa15801561125c573d6000803e3d6000fd5b505050506040513d601f19601f8201168201806040525081019061128091906124be565b9050919050565b600660003373ffffffffffffffffffffffffffffffffffffffff1673ffffffffffffffffffffffffffffffffffffffff16815260200190815260200160002060009054906101000a900460ff16611313576040517f08c379a000000000000000000000000000000000000000000000000000000000815260040161130a9061241d565b60405180910390fd5b600073ffffffffffffffffffffffffffffffffffffffff168173ffffffffffffffffffffffffffffffffffffffff1603611382576040517f08c379a0000000000000000000000000000000000000000000000000000000008152600401611379906125dd565b60405180910390fd5b6001600660008373ffffffffffffffffffffffffffffffffffffffff1673ffffffffffffffffffffffffffffffffffffffff16815260200190815260200160002060006101000a81548160ff021916908315150217905550600160009054906101000a900473ffffffffffffffffffffffffffffffffffffffff1673ffffffffffffffffffffffffffffffffffffffff166370480275826040518263ffffffff1660e01b81526004016114359190612217565b600060405180830381600087803b15801561144f57600080fd5b505af1158015611463573d6000803e3d6000fd5b5050505050565b600660003373ffffffffffffffffffffffffffffffffffffffff1673ffffffffffffffffffffffffffffffffffffffff16815260200190815260200160002060009054906101000a900460ff166114f6576040517f08c379a00000000000000000000000000000000000000000000000000000000081526004016114ed9061241d565b60405180910390fd5b600073ffffffffffffffffffffffffffffffffffffffff168173ffffffffffffffffffffffffffffffffffffffff1603611565576040517f08c379a000000000000000000000000000000000000000000000000000000000815260040161155c906125dd565b60405180910390fd5b806000806101000a81548173ffffffffffffffffffffffffffffffffffffffff021916908373ffffffffffffffffffffffffffffffffffffffff16021790555060008054906101000a900473ffffffffffffffffffffffffffffffffffffffff16600160006101000a81548173ffffffffffffffffffffffffffffffffffffffff021916908373ffffffffffffffffffffffffffffffffffffffff160217905550600560009054906101000a900473ffffffffffffffffffffffffffffffffffffffff1673ffffffffffffffffffffffffffffffffffffffff1663dc38b0a2826040518263ffffffff1660e01b81526004016116619190612217565b600060405180830381600087803b15801561167b57600080fd5b505af115801561168f573d6000803e3d6000fd5b5050505050565b600073ffffffffffffffffffffffffffffffffffffffff168373ffffffffffffffffffffffffffffffffffffffff16141580156117005750600073ffffffffffffffffffffffffffffffffffffffff168273ffffffffffffffffffffffffffffffffffffffff1614155b61173f576040517f08c379a0000000000000000000000000000000000000000000000000000000008152600401611736906125dd565b60405180910390fd5b60008103611782576040517f08c379a000000000000000000000000000000000000000000000000000000000815260040161177990612b36565b60405180910390fd5b600360009054906101000a900473ffffffffffffffffffffffffffffffffffffffff1673ffffffffffffffffffffffffffffffffffffffff166396d6aa308484846040518463ffffffff1660e01b81526004016117e193929190612b56565b600060405180830381600087803b1580156117fb57600080fd5b505af115801561180f573d6000803e3d6000fd5b50505050505050565b600660003373ffffffffffffffffffffffffffffffffffffffff1673ffffffffffffffffffffffffffffffffffffffff16815260200190815260200160002060009054906101000a900460ff166118a4576040517f08c379a000000000000000000000000000000000000000000000000000000000815260040161189b9061241d565b60405180910390fd5b806000806101000a81548173ffffffffffffffffffffffffffffffffffffffff021916908373ffffffffffffffffffffffffffffffffffffffff16021790555080600160006101000a81548173ffffffffffffffffffffffffffffffffffffffff021916908373ffffffffffffffffffffffffffffffffffffffff160217905550600160009054906101000a900473ffffffffffffffffffffffffffffffffffffffff1673ffffffffffffffffffffffffffffffffffffffff16632274346b6040518163ffffffff1660e01b8152600401602060405180830381865afa158015611992573d6000803e3d6000fd5b505050506040513d601f19601f820116820180604052508101906119b69190612ba2565b600260006101000a81548173ffffffffffffffffffffffffffffffffffffffff021916908373ffffffffffffffffffffffffffffffffffffffff160217905550600260009054906101000a900473ffffffffffffffffffffffffffffffffffffffff16600360006101000a81548173ffffffffffffffffffffffffffffffffffffffff021916908373ffffffffffffffffffffffffffffffffffffffff160217905550600160009054906101000a900473ffffffffffffffffffffffffffffffffffffffff1673ffffffffffffffffffffffffffffffffffffffff1663de11c94a6040518163ffffffff1660e01b8152600401602060405180830381865afa158015611ac6573d6000803e3d6000fd5b505050506040513d601f19601f82011682018060405250810190611aea91906124be565b600460006101000a81548173ffffffffffffffffffffffffffffffffffffffff021916908373ffffffffffffffffffffffffffffffffffffffff160217905550600460009054906101000a900473ffffffffffffffffffffffffffffffffffffffff16600560006101000a81548173ffffffffffffffffffffffffffffffffffffffff021916908373ffffffffffffffffffffffffffffffffffffffff16021790555050565b600660003373ffffffffffffffffffffffffffffffffffffffff1673ffffffffffffffffffffffffffffffffffffffff16815260200190815260200160002060009054906101000a900460ff16611c1c576040517f08c379a0000000000000000000000000000000000000000000000000000000008152600401611c139061241d565b60405180910390fd5b600073ffffffffffffffffffffffffffffffffffffffff168173ffffffffffffffffffffffffffffffffffffffff1603611c8b576040517f08c379a0000000000000000000000000000000000000000000000000000000008152600401611c82906125dd565b60405180910390fd5b80600460006101000a81548173ffffffffffffffffffffffffffffffffffffffff021916908373ffffffffffffffffffffffffffffffffffffffff160217905550600160009054906101000a900473ffffffffffffffffffffffffffffffffffffffff1673ffffffffffffffffffffffffffffffffffffffff1663d4241341826040518263ffffffff1660e01b8152600401611d279190612217565b600060405180830381600087803b158015611d4157600080fd5b505af1158015611d55573d6000803e3d6000fd5b5050505050565b600080600090505b83839050811015611de757600073ffffffffffffffffffffffffffffffffffffffff16848483818110611d9a57611d996124eb565b5b9050602002016020810190611daf9190611f98565b73ffffffffffffffffffffffffffffffffffffffff1603611dd4576000915050611ded565b8080611ddf90612549565b915050611d64565b50600190505b92915050565b600080600090505b83839050811015611e44576000848483818110611e1b57611e1a6124eb565b5b9050602002013503611e31576000915050611e4a565b8080611e3c90612549565b915050611dfb565b50600190505b92915050565b600081519050919050565b600082825260208201905092915050565b6000819050602082019050919050565b600073ffffffffffffffffffffffffffffffffffffffff82169050919050565b6000611ea782611e7c565b9050919050565b611eb781611e9c565b82525050565b6000611ec98383611eae565b60208301905092915050565b6000602082019050919050565b6000611eed82611e50565b611ef78185611e5b565b9350611f0283611e6c565b8060005b83811015611f33578151611f1a8882611ebd565b9750611f2583611ed5565b925050600181019050611f06565b5085935050505092915050565b60006020820190508181036000830152611f5a8184611ee2565b905092915050565b600080fd5b600080fd5b611f7581611e9c565b8114611f8057600080fd5b50565b600081359050611f9281611f6c565b92915050565b600060208284031215611fae57611fad611f62565b5b6000611fbc84828501611f83565b91505092915050565b60008115159050919050565b611fda81611fc5565b82525050565b6000602082019050611ff56000830184611fd1565b92915050565b600080fd5b600080fd5b600080fd5b60008083601f8401126120205761201f611ffb565b5b8235905067ffffffffffffffff81111561203d5761203c612000565b5b60208301915083602082028301111561205957612058612005565b5b9250929050565b60008083601f84011261207657612075611ffb565b5b8235905067ffffffffffffffff81111561209357612092612000565b5b6020830191508360208202830111156120af576120ae612005565b5b9250929050565b60008083601f8401126120cc576120cb611ffb565b5b8235905067ffffffffffffffff8111156120e9576120e8612000565b5b60208301915083600182028301111561210557612104612005565b5b9250929050565b600080600080600080600080600060a08a8c03121561212e5761212d611f62565b5b600061213c8c828d01611f83565b99505060208a013567ffffffffffffffff81111561215d5761215c611f67565b5b6121698c828d0161200a565b985098505060408a013567ffffffffffffffff81111561218c5761218b611f67565b5b6121988c828d01612060565b965096505060608a013567ffffffffffffffff8111156121bb576121ba611f67565b5b6121c78c828d016120b6565b945094505060808a013567ffffffffffffffff8111156121ea576121e9611f67565b5b6121f68c828d016120b6565b92509250509295985092959850929598565b61221181611e9c565b82525050565b600060208201905061222c6000830184612208565b92915050565b600061223d82611e7c565b9050919050565b61224d81612232565b811461225857600080fd5b50565b60008135905061226a81612244565b92915050565b60006020828403121561228657612285611f62565b5b60006122948482850161225b565b91505092915050565b600080600080606085870312156122b7576122b6611f62565b5b60006122c587828801611f83565b94505060206122d687828801611f83565b935050604085013567ffffffffffffffff8111156122f7576122f6611f67565b5b61230387828801612060565b925092505092959194509250565b6000819050919050565b61232481612311565b811461232f57600080fd5b50565b6000813590506123418161231b565b92915050565b6000806000606084860312156123605761235f611f62565b5b600061236e86828701611f83565b935050602061237f86828701611f83565b925050604061239086828701612332565b9150509250925092565b600082825260208201905092915050565b7f4d617374657220436f6e7472616374202d204f6e6c792041646d696e7320636160008201527f6e206578656375746520746869732066756e6374696f6e000000000000000000602082015250565b600061240760378361239a565b9150612412826123ab565b604082019050919050565b60006020820190508181036000830152612436816123fa565b9050919050565b60008151905061244c8161231b565b92915050565b60006020828403121561246857612467611f62565b5b60006124768482850161243d565b91505092915050565b61248881612311565b82525050565b60006020820190506124a3600083018461247f565b92915050565b6000815190506124b881611f6c565b92915050565b6000602082840312156124d4576124d3611f62565b5b60006124e2848285016124a9565b91505092915050565b7f4e487b7100000000000000000000000000000000000000000000000000000000600052603260045260246000fd5b7f4e487b7100000000000000000000000000000000000000000000000000000000600052601160045260246000fd5b600061255482612311565b91507fffffffffffffffffffffffffffffffffffffffffffffffffffffffffffffffff82036125865761258561251a565b5b600182019050919050565b7f4164647265737320617267732063616e6e6f74206265206e756c6c0000000000600082015250565b60006125c7601b8361239a565b91506125d282612591565b602082019050919050565b600060208201905081810360008301526125f6816125ba565b9050919050565b7f417272617920617267732063616e6e6f74206265206e756c6c2f656d70747900600082015250565b6000612633601f8361239a565b915061263e826125fd565b602082019050919050565b6000602082019050818103600083015261266281612626565b9050919050565b7f436f6c6c61746572616c2061727261792063616e6e6f74206861766520616e2060008201527f656d70747920746f6b656e000000000000000000000000000000000000000000602082015250565b60006126c5602b8361239a565b91506126d082612669565b604082019050919050565b600060208201905081810360008301526126f4816126b8565b9050919050565b7f5175616e7469746965732061727261792063616e6e6f74206861766520616e2060008201527f656d70747920746f6b656e000000000000000000000000000000000000000000602082015250565b6000612757602b8361239a565b9150612762826126fb565b604082019050919050565b600060208201905081810360008301526127868161274a565b9050919050565b82818337600083830152505050565b6000601f19601f8301169050919050565b60006127b9838561239a565b93506127c683858461278d565b6127cf8361279c565b840190509392505050565b600060608201905081810360008301526127f58187896127ad565b9050818103602083015261280a8185876127ad565b90506128196040830184612208565b9695505050505050565b60006040820190506128386000830185612208565b6128456020830184612208565b9392505050565b6000819050919050565b60006128656020840184611f83565b905092915050565b6000602082019050919050565b60006128868385611e5b565b93506128918261284c565b8060005b858110156128ca576128a78284612856565b6128b18882611ebd565b97506128bc8361286d565b925050600181019050612895565b5085925050509392505050565b600082825260208201905092915050565b600080fd5b60006128f983856128d7565b93507f07ffffffffffffffffffffffffffffffffffffffffffffffffffffffffffffff83111561292c5761292b6128e8565b5b60208302925061293d83858461278d565b82840190509392505050565b600060608201905061295e6000830188612208565b818103602083015261297181868861287a565b905081810360408301526129868184866128ed565b90509695505050505050565b600060608201905081810360008301526129ad81878961287a565b905081810360208301526129c28185876128ed565b90506129d16040830184612208565b9695505050505050565b6129e481612232565b82525050565b60006020820190506129ff60008301846129db565b92915050565b6000606082019050612a1a6000830187612208565b612a276020830186612208565b8181036040830152612a3a8184866128ed565b905095945050505050565b612a4e81611fc5565b8114612a5957600080fd5b50565b600081519050612a6b81612a45565b92915050565b600060208284031215612a8757612a86611f62565b5b6000612a9584828501612a5c565b91505092915050565b7f43616e6e6f742072656465656d206e6f6e6520696e6465782e204d617962652060008201527f796f752073656e7420646563696d616c7320776974686f7574207472616e736660208201527f6f726d696e673f00000000000000000000000000000000000000000000000000604082015250565b6000612b2060478361239a565b9150612b2b82612a9e565b606082019050919050565b60006020820190508181036000830152612b4f81612b13565b9050919050565b6000606082019050612b6b6000830186612208565b612b786020830185612208565b612b85604083018461247f565b949350505050565b600081519050612b9c81612244565b92915050565b600060208284031215612bb857612bb7611f62565b5b6000612bc684828501612b8d565b9150509291505056fea264697066735822122041c332107bc8fa35cdf9db643186fc854a4ac1df9940e9ed4d995f650981220e64736f6c634300080d0033",
  "immutableReferences": {},
  "source": "// SPDX-License-Identifier: GPL-3.0\npragma solidity >=0.8.13;\n\nimport {FactoryContract} from \"./FactoryContract.sol\";\nimport {VaultContract} from \"./VaultContract.sol\";\nimport {StorageContract} from \"./StorageContract.sol\";\n\ncontract MasterTools{\n    function checkEmptyInAddressArray(address[] calldata addressArray) internal pure returns(bool empty){\n        for(uint i=0; i<addressArray.length;i++){\n            if(addressArray[i]==address(0x0)){\n                return false;\n            }\n        }\n        return true;\n    }\n    function checkEmptyInUintArray(uint[] calldata addressArray) internal pure returns(bool empty){\n    for(uint i=0; i<addressArray.length;i++){\n        if(addressArray[i]== 0){\n            return false;\n        }\n    }\n    return true;\n    }\n}\n\ncontract MasterContract is MasterTools{\n\n    address storageContract;\n    StorageContract storageContractInstance;\n    address payable vaultContract;\n    VaultContract vaultContractInstance;\n    address factoryContract;\n    FactoryContract factoryContractInstance;\n    \n    mapping (address=>bool) public isAdmin;\n\n    constructor(){\n        isAdmin[msg.sender] = true;\n    }\n\n    modifier onlyAdmins(){\n        require(isAdmin[msg.sender],\"Master Contract - Only Admins can execute this function\");\n        _;\n    }\n\n    function initMasterContract(address _storageContract) external onlyAdmins{\n        // We load the addresses of the rest of the contracts\n        storageContract = _storageContract;\n        storageContractInstance = StorageContract(_storageContract);\n\n        vaultContract = storageContractInstance.vaultContract();\n        vaultContractInstance = VaultContract(vaultContract);\n\n        factoryContract = storageContractInstance.factoryContract();\n        factoryContractInstance = FactoryContract(factoryContract);\n    }\n\n    function addAdmin(address _admin) external onlyAdmins{\n        require(_admin != address(0x0),\"Address args cannot be null\");\n        isAdmin[_admin] = true;\n\n        storageContractInstance.addAdmin(_admin);\n    }\n\n    function removeAdmin(address _admin) external onlyAdmins{\n        require(_admin != address(0x0),\"Address args cannot be null\");\n        isAdmin[_admin] = false;\n    }\n\n    // Updaters\n\n    function updateStorageContract (address _storageContract) external onlyAdmins{\n        require(_storageContract != address(0x0),\"Address args cannot be null\");\n        storageContract = _storageContract;\n        storageContractInstance = StorageContract(storageContract);\n        factoryContractInstance.setStorageContract(_storageContract);\n    }\n\n    function updateFactoryContract (address _factoryContract) external onlyAdmins{\n        require(_factoryContract != address(0x0),\"Address args cannot be null\");\n        factoryContract = _factoryContract;\n        \n        storageContractInstance.setFactoryContract(_factoryContract);\n    }    \n    \n    function updateVaultContract (address payable _vaultContract) external onlyAdmins{\n        require(_vaultContract != address(0x0),\"Address args cannot be null\");\n        vaultContract = _vaultContract;\n\n        storageContractInstance.setVaultContract(_vaultContract);\n    }\n\n    function setMasterContract(address _masterContract) external onlyAdmins{\n        require(_masterContract != address(0x0),\"Address args cannot be null\");\n\n        storageContractInstance.setMasterContract(_masterContract);\n\n        vaultContractInstance.setMasterContract();\n        factoryContractInstance.setMasterContract();\n    }\n\n    // Interacting specifically with the Vault\n\n    function mint_index(address _index, address receiver, uint256[] calldata _collateral) external  returns(bool result){\n        require((_index != address(0x0))&&(receiver != address(0x0)),\"Address args cannot be null\");\n        require(_collateral.length!=0,\"Array args cannot be null/empty\");\n        require(checkEmptyInUintArray(_collateral),\"Collateral array cannot have an empty token\");\n\n        result =  vaultContractInstance.mint_index(_index, receiver, _collateral);       \n    }\n\n    function redeem_index(address _index, address receiver, uint index_amount_to_redeem) external{\n        require((_index != address(0x0))&&(receiver != address(0x0)),\"Address args cannot be null\");\n        require(index_amount_to_redeem != 0 , \"Cannot redeem none index. Maybe you sent decimals without transforming?\");\n\n        vaultContractInstance.redeem_index(_index, receiver, index_amount_to_redeem); \n    }\n\n    // Interacting specifically with the Storage\n\n    function getIndexCreator(address _index) public view onlyAdmins returns(address creator) {\n        require(_index != address(0x0),\"Address args cannot be null\");\n        return storageContractInstance.getIndexCreator(_index);\n    }\n\n    function getAllIndexCreators() external view onlyAdmins returns(address[] memory _array){\n        uint length = storageContractInstance.getIndicesLength();\n        for (uint index = 0; index < length; index++) {\n            _array[index] = storageContractInstance.indices(index);\n        }\n        return _array;\n    }\n\n    // Bulk interactions\n\n    function create_index(address _creator, address[] calldata _collateral, uint256[] calldata _quantities, string calldata name, string calldata symbol) external returns(address new_index){\n        require(_creator != address(0x0),\"Address args cannot be null\");\n        \n        require((_collateral.length!=0)&&(_quantities.length!=0),\"Array args cannot be null/empty\");\n        require(checkEmptyInAddressArray(_collateral),\"Collateral array cannot have an empty token\");\n        require(checkEmptyInUintArray(_quantities),\"Quantities array cannot have an empty token\");\n\n        new_index = factoryContractInstance.createIndex(name, symbol, _creator);\n        \n        storageContractInstance.addNewIndex(new_index, _creator);\n        vaultContractInstance.register_index(new_index,  _collateral, _quantities);\n        vaultContractInstance.receive_collateral(_collateral, _quantities,_creator);\n    }\n\n    receive() external payable{\n\n    }\n}",
  "sourcePath": "/home/yildirim/TFM-DeFi/contracts/MasterContract.sol",
  "compiler": {
    "name": "solc",
    "version": "0.8.13+commit.abaa5c0e.Emscripten.clang"
  },
  "schemaVersion": "3.4.7",
  "updatedAt": "2022-06-09T19:54:44.183Z",
  "networkType": "ethereum",
  "devdoc": {
    "kind": "dev",
    "methods": {},
    "version": 1
  },
  "userdoc": {
    "kind": "user",
    "methods": {},
    "version": 1
  }
}