{
  "contractName": "MasterContract",
  "abi": [
    {
      "inputs": [],
      "stateMutability": "nonpayable",
      "type": "constructor"
    },
    {
      "anonymous": false,
      "inputs": [
        {
          "indexed": true,
          "internalType": "address",
          "name": "index_address",
          "type": "address"
        }
      ],
      "name": "IndexCreated",
      "type": "event"
    },
    {
      "inputs": [
        {
          "internalType": "address",
          "name": "",
          "type": "address"
        }
      ],
      "name": "isAdmin",
      "outputs": [
        {
          "internalType": "bool",
          "name": "",
          "type": "bool"
        }
      ],
      "stateMutability": "view",
      "type": "function",
      "constant": true
    },
    {
      "stateMutability": "payable",
      "type": "receive",
      "payable": true
    },
    {
      "inputs": [
        {
          "internalType": "address",
          "name": "_storageContract",
          "type": "address"
        }
      ],
      "name": "initMasterContract",
      "outputs": [],
      "stateMutability": "nonpayable",
      "type": "function"
    },
    {
      "inputs": [
        {
          "internalType": "address",
          "name": "_admin",
          "type": "address"
        }
      ],
      "name": "addAdmin",
      "outputs": [],
      "stateMutability": "nonpayable",
      "type": "function"
    },
    {
      "inputs": [
        {
          "internalType": "address",
          "name": "_admin",
          "type": "address"
        }
      ],
      "name": "removeAdmin",
      "outputs": [],
      "stateMutability": "nonpayable",
      "type": "function"
    },
    {
      "inputs": [
        {
          "internalType": "address",
          "name": "_storageContract",
          "type": "address"
        }
      ],
      "name": "updateStorageContract",
      "outputs": [],
      "stateMutability": "nonpayable",
      "type": "function"
    },
    {
      "inputs": [
        {
          "internalType": "address",
          "name": "_factoryContract",
          "type": "address"
        }
      ],
      "name": "updateFactoryContract",
      "outputs": [],
      "stateMutability": "nonpayable",
      "type": "function"
    },
    {
      "inputs": [
        {
          "internalType": "address payable",
          "name": "_vaultContract",
          "type": "address"
        }
      ],
      "name": "updateVaultContract",
      "outputs": [],
      "stateMutability": "nonpayable",
      "type": "function"
    },
    {
      "inputs": [
        {
          "internalType": "address",
          "name": "_masterContract",
          "type": "address"
        }
      ],
      "name": "setMasterContract",
      "outputs": [],
      "stateMutability": "nonpayable",
      "type": "function"
    },
    {
      "inputs": [
        {
          "internalType": "address",
          "name": "_index",
          "type": "address"
        },
        {
          "internalType": "address",
          "name": "receiver",
          "type": "address"
        },
        {
          "internalType": "uint256[]",
          "name": "_collateral",
          "type": "uint256[]"
        }
      ],
      "name": "mint_index",
      "outputs": [],
      "stateMutability": "nonpayable",
      "type": "function"
    },
    {
      "inputs": [
        {
          "internalType": "address",
          "name": "_index",
          "type": "address"
        },
        {
          "internalType": "address",
          "name": "receiver",
          "type": "address"
        },
        {
          "internalType": "uint256",
          "name": "index_amount_to_redeem",
          "type": "uint256"
        }
      ],
      "name": "redeem_index",
      "outputs": [],
      "stateMutability": "nonpayable",
      "type": "function"
    },
    {
      "inputs": [
        {
          "internalType": "address",
          "name": "_index",
          "type": "address"
        }
      ],
      "name": "getIndexCreator",
      "outputs": [
        {
          "internalType": "address",
          "name": "creator",
          "type": "address"
        }
      ],
      "stateMutability": "view",
      "type": "function",
      "constant": true
    },
    {
      "inputs": [],
      "name": "getAllIndexCreators",
      "outputs": [
        {
          "internalType": "address[]",
          "name": "",
          "type": "address[]"
        }
      ],
      "stateMutability": "view",
      "type": "function",
      "constant": true
    },
    {
      "inputs": [
        {
          "internalType": "address",
          "name": "_creator",
          "type": "address"
        },
        {
          "internalType": "address[]",
          "name": "_collateral",
          "type": "address[]"
        },
        {
          "internalType": "uint256[]",
          "name": "_quantities",
          "type": "uint256[]"
        },
        {
          "internalType": "string",
          "name": "name",
          "type": "string"
        },
        {
          "internalType": "string",
          "name": "symbol",
          "type": "string"
        }
      ],
      "name": "create_index",
      "outputs": [
        {
          "internalType": "address",
          "name": "new_index",
          "type": "address"
        }
      ],
      "stateMutability": "nonpayable",
      "type": "function"
    },
    {
      "inputs": [
        {
          "internalType": "address",
          "name": "_token",
          "type": "address"
        }
      ],
      "name": "approve",
      "outputs": [],
      "stateMutability": "nonpayable",
      "type": "function"
    }
  ],
  "bytecode": "0x608060405234801561001057600080fd5b506001600660003373ffffffffffffffffffffffffffffffffffffffff1673ffffffffffffffffffffffffffffffffffffffff16815260200190815260200160002060006101000a81548160ff0219169083151502179055506130bb806100786000396000f3fe6080604052600436106100e15760003560e01c806356666e241161007f57806396d6aa301161005957806396d6aa30146102c5578063a00ea877146102ee578063c2fb538e14610317578063daea85c514610340576100e8565b806356666e241461023657806370480275146102735780638fb6d9971461029c576100e8565b80632a3a236f116100bb5780632a3a236f1461017e57806337848f00146101a757806347d666a3146101e457806355d1ba331461020d576100e8565b80630ca2d23f146100ed5780631785f53c1461011857806324d7806c14610141576100e8565b366100e857005b600080fd5b3480156100f957600080fd5b50610102610369565b60405161010f9190612284565b60405180910390f35b34801561012457600080fd5b5061013f600480360381019061013a91906122dc565b6105e9565b005b34801561014d57600080fd5b50610168600480360381019061016391906122dc565b61073f565b6040516101759190612324565b60405180910390f35b34801561018a57600080fd5b506101a560048036038101906101a091906122dc565b61075f565b005b3480156101b357600080fd5b506101ce60048036038101906101c99190612450565b6109ee565b6040516101db919061255b565b60405180910390f35b3480156101f057600080fd5b5061020b600480360381019061020691906125b4565b610e8f565b005b34801561021957600080fd5b50610234600480360381019061022f91906125e1565b6110be565b005b34801561024257600080fd5b5061025d600480360381019061025891906122dc565b61128f565b60405161026a919061255b565b60405180910390f35b34801561027f57600080fd5b5061029a600480360381019061029591906122dc565b61142f565b005b3480156102a857600080fd5b506102c360048036038101906102be91906122dc565b611612565b005b3480156102d157600080fd5b506102ec60048036038101906102e7919061268b565b61183e565b005b3480156102fa57600080fd5b50610315600480360381019061031091906122dc565b6119c0565b005b34801561032357600080fd5b5061033e600480360381019061033991906122dc565b611d38565b005b34801561034c57600080fd5b50610367600480360381019061036291906122dc565b611f67565b005b6060600660003373ffffffffffffffffffffffffffffffffffffffff1673ffffffffffffffffffffffffffffffffffffffff16815260200190815260200160002060009054906101000a900460ff166103f7576040517f08c379a00000000000000000000000000000000000000000000000000000000081526004016103ee90612761565b60405180910390fd5b6000600160009054906101000a900473ffffffffffffffffffffffffffffffffffffffff1673ffffffffffffffffffffffffffffffffffffffff1663c099ab936040518163ffffffff1660e01b8152600401602060405180830381865afa158015610466573d6000803e3d6000fd5b505050506040513d601f19601f8201168201806040525081019061048a9190612796565b905060008167ffffffffffffffff8111156104a8576104a76127c3565b5b6040519080825280602002602001820160405280156104d65781602001602082028036833780820191505090505b50905060005b828110156105e057600160009054906101000a900473ffffffffffffffffffffffffffffffffffffffff1673ffffffffffffffffffffffffffffffffffffffff1663a1a953fd826040518263ffffffff1660e01b815260040161053f9190612801565b602060405180830381865afa15801561055c573d6000803e3d6000fd5b505050506040513d601f19601f820116820180604052508101906105809190612831565b8282815181106105935761059261285e565b5b602002602001019073ffffffffffffffffffffffffffffffffffffffff16908173ffffffffffffffffffffffffffffffffffffffff168152505080806105d8906128bc565b9150506104dc565b50809250505090565b600660003373ffffffffffffffffffffffffffffffffffffffff1673ffffffffffffffffffffffffffffffffffffffff16815260200190815260200160002060009054906101000a900460ff16610675576040517f08c379a000000000000000000000000000000000000000000000000000000000815260040161066c90612761565b60405180910390fd5b600073ffffffffffffffffffffffffffffffffffffffff168173ffffffffffffffffffffffffffffffffffffffff16036106e4576040517f08c379a00000000000000000000000000000000000000000000000000000000081526004016106db90612950565b60405180910390fd5b6000600660008373ffffffffffffffffffffffffffffffffffffffff1673ffffffffffffffffffffffffffffffffffffffff16815260200190815260200160002060006101000a81548160ff02191690831515021790555050565b60066020528060005260406000206000915054906101000a900460ff1681565b600660003373ffffffffffffffffffffffffffffffffffffffff1673ffffffffffffffffffffffffffffffffffffffff16815260200190815260200160002060009054906101000a900460ff166107eb576040517f08c379a00000000000000000000000000000000000000000000000000000000081526004016107e290612761565b60405180910390fd5b600073ffffffffffffffffffffffffffffffffffffffff168173ffffffffffffffffffffffffffffffffffffffff160361085a576040517f08c379a000000000000000000000000000000000000000000000000000000000815260040161085190612950565b60405180910390fd5b600160009054906101000a900473ffffffffffffffffffffffffffffffffffffffff1673ffffffffffffffffffffffffffffffffffffffff16632a3a236f826040518263ffffffff1660e01b81526004016108b5919061255b565b600060405180830381600087803b1580156108cf57600080fd5b505af11580156108e3573d6000803e3d6000fd5b50505050600360009054906101000a900473ffffffffffffffffffffffffffffffffffffffff1673ffffffffffffffffffffffffffffffffffffffff16639bdf06a36040518163ffffffff1660e01b8152600401600060405180830381600087803b15801561095157600080fd5b505af1158015610965573d6000803e3d6000fd5b50505050600560009054906101000a900473ffffffffffffffffffffffffffffffffffffffff1673ffffffffffffffffffffffffffffffffffffffff16639bdf06a36040518163ffffffff1660e01b8152600401600060405180830381600087803b1580156109d357600080fd5b505af11580156109e7573d6000803e3d6000fd5b5050505050565b60008073ffffffffffffffffffffffffffffffffffffffff168a73ffffffffffffffffffffffffffffffffffffffff1603610a5e576040517f08c379a0000000000000000000000000000000000000000000000000000000008152600401610a5590612950565b60405180910390fd5b60008989905014158015610a76575060008787905014155b610ab5576040517f08c379a0000000000000000000000000000000000000000000000000000000008152600401610aac906129bc565b60405180910390fd5b610abf89896120a0565b610afe576040517f08c379a0000000000000000000000000000000000000000000000000000000008152600401610af590612a4e565b60405180910390fd5b610b088787612137565b610b47576040517f08c379a0000000000000000000000000000000000000000000000000000000008152600401610b3e90612ae0565b60405180910390fd5b600560009054906101000a900473ffffffffffffffffffffffffffffffffffffffff1673ffffffffffffffffffffffffffffffffffffffff1663a8a36d91868686868f6040518663ffffffff1660e01b8152600401610baa959493929190612b4d565b6020604051808303816000875af1158015610bc9573d6000803e3d6000fd5b505050506040513d601f19601f82011682018060405250810190610bed9190612831565b9050600160009054906101000a900473ffffffffffffffffffffffffffffffffffffffff1673ffffffffffffffffffffffffffffffffffffffff16639b36d47b828c8c8c8c8c6040518763ffffffff1660e01b8152600401610c5496959493929190612c93565b600060405180830381600087803b158015610c6e57600080fd5b505af1158015610c82573d6000803e3d6000fd5b50505050600360009054906101000a900473ffffffffffffffffffffffffffffffffffffffff1673ffffffffffffffffffffffffffffffffffffffff16631f925c85828b8b8b8b6040518663ffffffff1660e01b8152600401610ce9959493929190612cea565b600060405180830381600087803b158015610d0357600080fd5b505af1158015610d17573d6000803e3d6000fd5b50505050600360009054906101000a900473ffffffffffffffffffffffffffffffffffffffff1673ffffffffffffffffffffffffffffffffffffffff1663a8673dc68a8a8a8a8f6040518663ffffffff1660e01b8152600401610d7e959493929190612d33565b600060405180830381600087803b158015610d9857600080fd5b505af1158015610dac573d6000803e3d6000fd5b50505050600360009054906101000a900473ffffffffffffffffffffffffffffffffffffffff1673ffffffffffffffffffffffffffffffffffffffff16637e5465ba828c6040518363ffffffff1660e01b8152600401610e0d929190612d7c565b600060405180830381600087803b158015610e2757600080fd5b505af1158015610e3b573d6000803e3d6000fd5b505050508073ffffffffffffffffffffffffffffffffffffffff167f55aca3d5e8fb9f865553e8daded233b5d3a97a8ac5bae7d88218a2263506f76260405160405180910390a29998505050505050505050565b600660003373ffffffffffffffffffffffffffffffffffffffff1673ffffffffffffffffffffffffffffffffffffffff16815260200190815260200160002060009054906101000a900460ff16610f1b576040517f08c379a0000000000000000000000000000000000000000000000000000000008152600401610f1290612761565b60405180910390fd5b600073ffffffffffffffffffffffffffffffffffffffff168173ffffffffffffffffffffffffffffffffffffffff1603610f8a576040517f08c379a0000000000000000000000000000000000000000000000000000000008152600401610f8190612950565b60405180910390fd5b80600260006101000a81548173ffffffffffffffffffffffffffffffffffffffff021916908373ffffffffffffffffffffffffffffffffffffffff160217905550600260009054906101000a900473ffffffffffffffffffffffffffffffffffffffff16600360006101000a81548173ffffffffffffffffffffffffffffffffffffffff021916908373ffffffffffffffffffffffffffffffffffffffff160217905550600160009054906101000a900473ffffffffffffffffffffffffffffffffffffffff1673ffffffffffffffffffffffffffffffffffffffff166396f4ada6826040518263ffffffff1660e01b81526004016110899190612db4565b600060405180830381600087803b1580156110a357600080fd5b505af11580156110b7573d6000803e3d6000fd5b5050505050565b600073ffffffffffffffffffffffffffffffffffffffff168473ffffffffffffffffffffffffffffffffffffffff16141580156111285750600073ffffffffffffffffffffffffffffffffffffffff168373ffffffffffffffffffffffffffffffffffffffff1614155b611167576040517f08c379a000000000000000000000000000000000000000000000000000000000815260040161115e90612950565b60405180910390fd5b600082829050036111ad576040517f08c379a00000000000000000000000000000000000000000000000000000000081526004016111a4906129bc565b60405180910390fd5b6111b78282612137565b6111f6576040517f08c379a00000000000000000000000000000000000000000000000000000000081526004016111ed90612a4e565b60405180910390fd5b600360009054906101000a900473ffffffffffffffffffffffffffffffffffffffff1673ffffffffffffffffffffffffffffffffffffffff166355d1ba33858585856040518563ffffffff1660e01b81526004016112579493929190612dcf565b600060405180830381600087803b15801561127157600080fd5b505af1158015611285573d6000803e3d6000fd5b5050505050505050565b6000600660003373ffffffffffffffffffffffffffffffffffffffff1673ffffffffffffffffffffffffffffffffffffffff16815260200190815260200160002060009054906101000a900460ff1661131d576040517f08c379a000000000000000000000000000000000000000000000000000000000815260040161131490612761565b60405180910390fd5b600073ffffffffffffffffffffffffffffffffffffffff168273ffffffffffffffffffffffffffffffffffffffff160361138c576040517f08c379a000000000000000000000000000000000000000000000000000000000815260040161138390612950565b60405180910390fd5b600160009054906101000a900473ffffffffffffffffffffffffffffffffffffffff1673ffffffffffffffffffffffffffffffffffffffff166356666e24836040518263ffffffff1660e01b81526004016113e7919061255b565b602060405180830381865afa158015611404573d6000803e3d6000fd5b505050506040513d601f19601f820116820180604052508101906114289190612831565b9050919050565b600660003373ffffffffffffffffffffffffffffffffffffffff1673ffffffffffffffffffffffffffffffffffffffff16815260200190815260200160002060009054906101000a900460ff166114bb576040517f08c379a00000000000000000000000000000000000000000000000000000000081526004016114b290612761565b60405180910390fd5b600073ffffffffffffffffffffffffffffffffffffffff168173ffffffffffffffffffffffffffffffffffffffff160361152a576040517f08c379a000000000000000000000000000000000000000000000000000000000815260040161152190612950565b60405180910390fd5b6001600660008373ffffffffffffffffffffffffffffffffffffffff1673ffffffffffffffffffffffffffffffffffffffff16815260200190815260200160002060006101000a81548160ff021916908315150217905550600160009054906101000a900473ffffffffffffffffffffffffffffffffffffffff1673ffffffffffffffffffffffffffffffffffffffff166370480275826040518263ffffffff1660e01b81526004016115dd919061255b565b600060405180830381600087803b1580156115f757600080fd5b505af115801561160b573d6000803e3d6000fd5b5050505050565b600660003373ffffffffffffffffffffffffffffffffffffffff1673ffffffffffffffffffffffffffffffffffffffff16815260200190815260200160002060009054906101000a900460ff1661169e576040517f08c379a000000000000000000000000000000000000000000000000000000000815260040161169590612761565b60405180910390fd5b600073ffffffffffffffffffffffffffffffffffffffff168173ffffffffffffffffffffffffffffffffffffffff160361170d576040517f08c379a000000000000000000000000000000000000000000000000000000000815260040161170490612950565b60405180910390fd5b806000806101000a81548173ffffffffffffffffffffffffffffffffffffffff021916908373ffffffffffffffffffffffffffffffffffffffff16021790555060008054906101000a900473ffffffffffffffffffffffffffffffffffffffff16600160006101000a81548173ffffffffffffffffffffffffffffffffffffffff021916908373ffffffffffffffffffffffffffffffffffffffff160217905550600560009054906101000a900473ffffffffffffffffffffffffffffffffffffffff1673ffffffffffffffffffffffffffffffffffffffff1663dc38b0a2826040518263ffffffff1660e01b8152600401611809919061255b565b600060405180830381600087803b15801561182357600080fd5b505af1158015611837573d6000803e3d6000fd5b5050505050565b600073ffffffffffffffffffffffffffffffffffffffff168373ffffffffffffffffffffffffffffffffffffffff16141580156118a85750600073ffffffffffffffffffffffffffffffffffffffff168273ffffffffffffffffffffffffffffffffffffffff1614155b6118e7576040517f08c379a00000000000000000000000000000000000000000000000000000000081526004016118de90612950565b60405180910390fd5b6000810361192a576040517f08c379a000000000000000000000000000000000000000000000000000000000815260040161192190612ea7565b60405180910390fd5b600360009054906101000a900473ffffffffffffffffffffffffffffffffffffffff1673ffffffffffffffffffffffffffffffffffffffff166396d6aa308484846040518463ffffffff1660e01b815260040161198993929190612ec7565b600060405180830381600087803b1580156119a357600080fd5b505af11580156119b7573d6000803e3d6000fd5b50505050505050565b600660003373ffffffffffffffffffffffffffffffffffffffff1673ffffffffffffffffffffffffffffffffffffffff16815260200190815260200160002060009054906101000a900460ff16611a4c576040517f08c379a0000000000000000000000000000000000000000000000000000000008152600401611a4390612761565b60405180910390fd5b806000806101000a81548173ffffffffffffffffffffffffffffffffffffffff021916908373ffffffffffffffffffffffffffffffffffffffff16021790555080600160006101000a81548173ffffffffffffffffffffffffffffffffffffffff021916908373ffffffffffffffffffffffffffffffffffffffff160217905550600160009054906101000a900473ffffffffffffffffffffffffffffffffffffffff1673ffffffffffffffffffffffffffffffffffffffff16632274346b6040518163ffffffff1660e01b8152600401602060405180830381865afa158015611b3a573d6000803e3d6000fd5b505050506040513d601f19601f82011682018060405250810190611b5e9190612f13565b600260006101000a81548173ffffffffffffffffffffffffffffffffffffffff021916908373ffffffffffffffffffffffffffffffffffffffff160217905550600260009054906101000a900473ffffffffffffffffffffffffffffffffffffffff16600360006101000a81548173ffffffffffffffffffffffffffffffffffffffff021916908373ffffffffffffffffffffffffffffffffffffffff160217905550600160009054906101000a900473ffffffffffffffffffffffffffffffffffffffff1673ffffffffffffffffffffffffffffffffffffffff1663de11c94a6040518163ffffffff1660e01b8152600401602060405180830381865afa158015611c6e573d6000803e3d6000fd5b505050506040513d601f19601f82011682018060405250810190611c929190612831565b600460006101000a81548173ffffffffffffffffffffffffffffffffffffffff021916908373ffffffffffffffffffffffffffffffffffffffff160217905550600460009054906101000a900473ffffffffffffffffffffffffffffffffffffffff16600560006101000a81548173ffffffffffffffffffffffffffffffffffffffff021916908373ffffffffffffffffffffffffffffffffffffffff16021790555050565b600660003373ffffffffffffffffffffffffffffffffffffffff1673ffffffffffffffffffffffffffffffffffffffff16815260200190815260200160002060009054906101000a900460ff16611dc4576040517f08c379a0000000000000000000000000000000000000000000000000000000008152600401611dbb90612761565b60405180910390fd5b600073ffffffffffffffffffffffffffffffffffffffff168173ffffffffffffffffffffffffffffffffffffffff1603611e33576040517f08c379a0000000000000000000000000000000000000000000000000000000008152600401611e2a90612950565b60405180910390fd5b80600460006101000a81548173ffffffffffffffffffffffffffffffffffffffff021916908373ffffffffffffffffffffffffffffffffffffffff160217905550600460009054906101000a900473ffffffffffffffffffffffffffffffffffffffff16600560006101000a81548173ffffffffffffffffffffffffffffffffffffffff021916908373ffffffffffffffffffffffffffffffffffffffff160217905550600160009054906101000a900473ffffffffffffffffffffffffffffffffffffffff1673ffffffffffffffffffffffffffffffffffffffff1663d4241341826040518263ffffffff1660e01b8152600401611f32919061255b565b600060405180830381600087803b158015611f4c57600080fd5b505af1158015611f60573d6000803e3d6000fd5b5050505050565b8073ffffffffffffffffffffffffffffffffffffffff1663095ea7b3306a084595161401484a0000006040518363ffffffff1660e01b8152600401611fad929190612f85565b6020604051808303816000875af1158015611fcc573d6000803e3d6000fd5b505050506040513d601f19601f82011682018060405250810190611ff09190612fda565b508073ffffffffffffffffffffffffffffffffffffffff1663095ea7b3600260009054906101000a900473ffffffffffffffffffffffffffffffffffffffff166a084595161401484a0000006040518363ffffffff1660e01b815260040161205992919061305c565b6020604051808303816000875af1158015612078573d6000803e3d6000fd5b505050506040513d601f19601f8201168201806040525081019061209c9190612fda565b5050565b600080600090505b8383905081101561212b57600073ffffffffffffffffffffffffffffffffffffffff168484838181106120de576120dd61285e565b5b90506020020160208101906120f391906122dc565b73ffffffffffffffffffffffffffffffffffffffff1603612118576000915050612131565b8080612123906128bc565b9150506120a8565b50600190505b92915050565b600080600090505b8383905081101561218857600084848381811061215f5761215e61285e565b5b905060200201350361217557600091505061218e565b8080612180906128bc565b91505061213f565b50600190505b92915050565b600081519050919050565b600082825260208201905092915050565b6000819050602082019050919050565b600073ffffffffffffffffffffffffffffffffffffffff82169050919050565b60006121eb826121c0565b9050919050565b6121fb816121e0565b82525050565b600061220d83836121f2565b60208301905092915050565b6000602082019050919050565b600061223182612194565b61223b818561219f565b9350612246836121b0565b8060005b8381101561227757815161225e8882612201565b975061226983612219565b92505060018101905061224a565b5085935050505092915050565b6000602082019050818103600083015261229e8184612226565b905092915050565b600080fd5b600080fd5b6122b9816121e0565b81146122c457600080fd5b50565b6000813590506122d6816122b0565b92915050565b6000602082840312156122f2576122f16122a6565b5b6000612300848285016122c7565b91505092915050565b60008115159050919050565b61231e81612309565b82525050565b60006020820190506123396000830184612315565b92915050565b600080fd5b600080fd5b600080fd5b60008083601f8401126123645761236361233f565b5b8235905067ffffffffffffffff81111561238157612380612344565b5b60208301915083602082028301111561239d5761239c612349565b5b9250929050565b60008083601f8401126123ba576123b961233f565b5b8235905067ffffffffffffffff8111156123d7576123d6612344565b5b6020830191508360208202830111156123f3576123f2612349565b5b9250929050565b60008083601f8401126124105761240f61233f565b5b8235905067ffffffffffffffff81111561242d5761242c612344565b5b60208301915083600182028301111561244957612448612349565b5b9250929050565b600080600080600080600080600060a08a8c031215612472576124716122a6565b5b60006124808c828d016122c7565b99505060208a013567ffffffffffffffff8111156124a1576124a06122ab565b5b6124ad8c828d0161234e565b985098505060408a013567ffffffffffffffff8111156124d0576124cf6122ab565b5b6124dc8c828d016123a4565b965096505060608a013567ffffffffffffffff8111156124ff576124fe6122ab565b5b61250b8c828d016123fa565b945094505060808a013567ffffffffffffffff81111561252e5761252d6122ab565b5b61253a8c828d016123fa565b92509250509295985092959850929598565b612555816121e0565b82525050565b6000602082019050612570600083018461254c565b92915050565b6000612581826121c0565b9050919050565b61259181612576565b811461259c57600080fd5b50565b6000813590506125ae81612588565b92915050565b6000602082840312156125ca576125c96122a6565b5b60006125d88482850161259f565b91505092915050565b600080600080606085870312156125fb576125fa6122a6565b5b6000612609878288016122c7565b945050602061261a878288016122c7565b935050604085013567ffffffffffffffff81111561263b5761263a6122ab565b5b612647878288016123a4565b925092505092959194509250565b6000819050919050565b61266881612655565b811461267357600080fd5b50565b6000813590506126858161265f565b92915050565b6000806000606084860312156126a4576126a36122a6565b5b60006126b2868287016122c7565b93505060206126c3868287016122c7565b92505060406126d486828701612676565b9150509250925092565b600082825260208201905092915050565b7f4d617374657220436f6e7472616374202d204f6e6c792041646d696e7320636160008201527f6e206578656375746520746869732066756e6374696f6e000000000000000000602082015250565b600061274b6037836126de565b9150612756826126ef565b604082019050919050565b6000602082019050818103600083015261277a8161273e565b9050919050565b6000815190506127908161265f565b92915050565b6000602082840312156127ac576127ab6122a6565b5b60006127ba84828501612781565b91505092915050565b7f4e487b7100000000000000000000000000000000000000000000000000000000600052604160045260246000fd5b6127fb81612655565b82525050565b600060208201905061281660008301846127f2565b92915050565b60008151905061282b816122b0565b92915050565b600060208284031215612847576128466122a6565b5b60006128558482850161281c565b91505092915050565b7f4e487b7100000000000000000000000000000000000000000000000000000000600052603260045260246000fd5b7f4e487b7100000000000000000000000000000000000000000000000000000000600052601160045260246000fd5b60006128c782612655565b91507fffffffffffffffffffffffffffffffffffffffffffffffffffffffffffffffff82036128f9576128f861288d565b5b600182019050919050565b7f4164647265737320617267732063616e6e6f74206265206e756c6c0000000000600082015250565b600061293a601b836126de565b915061294582612904565b602082019050919050565b600060208201905081810360008301526129698161292d565b9050919050565b7f417272617920617267732063616e6e6f74206265206e756c6c2f656d70747900600082015250565b60006129a6601f836126de565b91506129b182612970565b602082019050919050565b600060208201905081810360008301526129d581612999565b9050919050565b7f436f6c6c61746572616c2061727261792063616e6e6f74206861766520616e2060008201527f656d70747920746f6b656e000000000000000000000000000000000000000000602082015250565b6000612a38602b836126de565b9150612a43826129dc565b604082019050919050565b60006020820190508181036000830152612a6781612a2b565b9050919050565b7f5175616e7469746965732061727261792063616e6e6f74206861766520616e2060008201527f656d70747920746f6b656e000000000000000000000000000000000000000000602082015250565b6000612aca602b836126de565b9150612ad582612a6e565b604082019050919050565b60006020820190508181036000830152612af981612abd565b9050919050565b82818337600083830152505050565b6000601f19601f8301169050919050565b6000612b2c83856126de565b9350612b39838584612b00565b612b4283612b0f565b840190509392505050565b60006060820190508181036000830152612b68818789612b20565b90508181036020830152612b7d818587612b20565b9050612b8c604083018461254c565b9695505050505050565b6000819050919050565b6000612baf60208401846122c7565b905092915050565b6000602082019050919050565b6000612bd0838561219f565b9350612bdb82612b96565b8060005b85811015612c1457612bf18284612ba0565b612bfb8882612201565b9750612c0683612bb7565b925050600181019050612bdf565b5085925050509392505050565b600082825260208201905092915050565b600080fd5b6000612c438385612c21565b93507f07ffffffffffffffffffffffffffffffffffffffffffffffffffffffffffffff831115612c7657612c75612c32565b5b602083029250612c87838584612b00565b82840190509392505050565b6000608082019050612ca8600083018961254c565b612cb5602083018861254c565b8181036040830152612cc8818688612bc4565b90508181036060830152612cdd818486612c37565b9050979650505050505050565b6000606082019050612cff600083018861254c565b8181036020830152612d12818688612bc4565b90508181036040830152612d27818486612c37565b90509695505050505050565b60006060820190508181036000830152612d4e818789612bc4565b90508181036020830152612d63818587612c37565b9050612d72604083018461254c565b9695505050505050565b6000604082019050612d91600083018561254c565b612d9e602083018461254c565b9392505050565b612dae81612576565b82525050565b6000602082019050612dc96000830184612da5565b92915050565b6000606082019050612de4600083018761254c565b612df1602083018661254c565b8181036040830152612e04818486612c37565b905095945050505050565b7f43616e6e6f742072656465656d206e6f6e6520696e6465782e204d617962652060008201527f796f752073656e7420646563696d616c7320776974686f7574207472616e736660208201527f6f726d696e673f00000000000000000000000000000000000000000000000000604082015250565b6000612e916047836126de565b9150612e9c82612e0f565b606082019050919050565b60006020820190508181036000830152612ec081612e84565b9050919050565b6000606082019050612edc600083018661254c565b612ee9602083018561254c565b612ef660408301846127f2565b949350505050565b600081519050612f0d81612588565b92915050565b600060208284031215612f2957612f286122a6565b5b6000612f3784828501612efe565b91505092915050565b6000819050919050565b6000819050919050565b6000612f6f612f6a612f6584612f40565b612f4a565b612655565b9050919050565b612f7f81612f54565b82525050565b6000604082019050612f9a600083018561254c565b612fa76020830184612f76565b9392505050565b612fb781612309565b8114612fc257600080fd5b50565b600081519050612fd481612fae565b92915050565b600060208284031215612ff057612fef6122a6565b5b6000612ffe84828501612fc5565b91505092915050565b600061302261301d613018846121c0565b612f4a565b6121c0565b9050919050565b600061303482613007565b9050919050565b600061304682613029565b9050919050565b6130568161303b565b82525050565b6000604082019050613071600083018561304d565b61307e6020830184612f76565b939250505056fea26469706673582212205ab02ef434dc954ddad326ba2e3594c3c618deb46c473d6ff2703362801e9b2664736f6c634300080d0033",
  "immutableReferences": {},
  "source": "// SPDX-License-Identifier: GPL-3.0\npragma solidity >=0.8.13;\n\nimport {FactoryContract} from \"./FactoryContract.sol\";\nimport {VaultContract} from \"./VaultContract.sol\";\nimport {StorageContract} from \"./StorageContract.sol\";\nimport \"@openzeppelin/contracts/token/ERC20/ERC20.sol\";\n\n\ncontract MasterTools{\n    function checkEmptyInAddressArray(address[] calldata addressArray) internal pure returns(bool empty){\n        for(uint i=0; i<addressArray.length;i++){\n            if(addressArray[i]==address(0x0)){\n                return false;\n            }\n        }\n        return true;\n    }\n    function checkEmptyInUintArray(uint[] calldata addressArray) internal pure returns(bool empty){\n    for(uint i=0; i<addressArray.length;i++){\n        if(addressArray[i]== 0){\n            return false;\n        }\n    }\n    return true;\n    }\n}\n\ncontract MasterContract is MasterTools{\n\n    address storageContract;\n    StorageContract storageContractInstance;\n    address payable vaultContract;\n    VaultContract vaultContractInstance;\n    address factoryContract;\n    FactoryContract factoryContractInstance;\n\n    event IndexCreated(\n        address indexed index_address\n    );\n    \n    mapping (address=>bool) public isAdmin;\n\n    constructor(){\n        isAdmin[msg.sender] = true;\n    }\n\n    modifier onlyAdmins(){\n        require(isAdmin[msg.sender],\"Master Contract - Only Admins can execute this function\");\n        _;\n    }\n\n    function initMasterContract(address _storageContract) external onlyAdmins{\n        // We load the addresses of the rest of the contracts\n        storageContract = _storageContract;\n        storageContractInstance = StorageContract(_storageContract);\n\n        vaultContract = storageContractInstance.vaultContract();\n        vaultContractInstance = VaultContract(vaultContract);\n\n        factoryContract = storageContractInstance.factoryContract();\n        factoryContractInstance = FactoryContract(factoryContract);\n    }\n\n    function addAdmin(address _admin) external onlyAdmins{\n        require(_admin != address(0x0),\"Address args cannot be null\");\n        isAdmin[_admin] = true;\n\n        storageContractInstance.addAdmin(_admin);\n    }\n\n    function removeAdmin(address _admin) external onlyAdmins{\n        require(_admin != address(0x0),\"Address args cannot be null\");\n        isAdmin[_admin] = false;\n    }\n\n    // Updaters\n\n    function updateStorageContract (address _storageContract) external onlyAdmins{\n        require(_storageContract != address(0x0),\"Address args cannot be null\");\n        storageContract = _storageContract;\n        storageContractInstance = StorageContract(storageContract);\n        factoryContractInstance.setStorageContract(_storageContract);\n    }\n\n    function updateFactoryContract (address _factoryContract) external onlyAdmins{\n        require(_factoryContract != address(0x0),\"Address args cannot be null\");\n        factoryContract = _factoryContract;\n        factoryContractInstance = FactoryContract(factoryContract);\n        storageContractInstance.setFactoryContract(_factoryContract);\n    }    \n    \n    function updateVaultContract (address payable _vaultContract) external onlyAdmins{\n        require(_vaultContract != address(0x0),\"Address args cannot be null\");\n        vaultContract = _vaultContract;\n        vaultContractInstance = VaultContract(vaultContract);\n        storageContractInstance.setVaultContract(_vaultContract);\n    }\n\n    function setMasterContract(address _masterContract) external onlyAdmins{\n        require(_masterContract != address(0x0),\"Address args cannot be null\");\n\n        storageContractInstance.setMasterContract(_masterContract);\n\n        vaultContractInstance.setMasterContract();\n        factoryContractInstance.setMasterContract();\n    }\n\n    // Interacting specifically with the Vault\n\n    function mint_index(address _index, address receiver, uint256[] calldata _collateral) external{\n        require((_index != address(0x0))&&(receiver != address(0x0)),\"Address args cannot be null\");\n        require(_collateral.length!=0,\"Array args cannot be null/empty\");\n        require(checkEmptyInUintArray(_collateral),\"Collateral array cannot have an empty token\");\n\n        vaultContractInstance.mint_index(_index, receiver, _collateral);       \n    }\n\n    function redeem_index(address _index, address receiver, uint index_amount_to_redeem) external{\n        require((_index != address(0x0))&&(receiver != address(0x0)),\"Address args cannot be null\");\n        require(index_amount_to_redeem != 0 , \"Cannot redeem none index. Maybe you sent decimals without transforming?\");\n\n        vaultContractInstance.redeem_index(_index, receiver, index_amount_to_redeem); \n    }\n\n    // Interacting specifically with the Storage\n\n    function getIndexCreator(address _index) public view onlyAdmins returns(address creator) {\n        require(_index != address(0x0),\"Address args cannot be null\");\n        return storageContractInstance.getIndexCreator(_index);\n    }\n\n    function getAllIndexCreators() external view onlyAdmins returns(address[] memory){\n        uint length = storageContractInstance.getIndicesLength();\n        address[] memory _array = new address[](length);\n        for (uint index = 0; index < length; index++) {\n            _array[index] = storageContractInstance.indices(index);\n        }\n        return _array;\n    }\n\n    // Bulk interactions\n\n    function create_index(address _creator, address[] calldata _collateral, uint256[] calldata _quantities, string calldata name, string calldata symbol) external returns (address new_index){\n        require(_creator != address(0x0),\"Address args cannot be null\");\n        \n        require((_collateral.length!=0)&&(_quantities.length!=0),\"Array args cannot be null/empty\");\n        require(checkEmptyInAddressArray(_collateral),\"Collateral array cannot have an empty token\");\n        require(checkEmptyInUintArray(_quantities),\"Quantities array cannot have an empty token\");\n\n        new_index = factoryContractInstance.createIndex(name, symbol, _creator);\n        \n        storageContractInstance.addNewIndex(new_index, _creator, _collateral, _quantities);\n        vaultContractInstance.register_index(new_index,  _collateral, _quantities);\n        vaultContractInstance.receive_collateral(_collateral, _quantities,_creator);\n        vaultContractInstance.approve(new_index, _creator);\n\n        emit IndexCreated(new_index);\n    }\n\n    function approve(address _token) external{\n        ERC20(_token).approve(address(this), 10000000*10**18);\n        ERC20(_token).approve(vaultContract, 10000000*10**18);\n    }\n\n    receive() external payable{\n\n    }\n}",
  "sourcePath": "/home/yildirim/TFM-DeFi/contracts/MasterContract.sol",
  "compiler": {
    "name": "solc",
    "version": "0.8.13+commit.abaa5c0e.Emscripten.clang"
  },
  "schemaVersion": "3.4.7",
  "updatedAt": "2022-07-06T20:52:35.922Z",
  "networkType": "ethereum",
  "devdoc": {
    "kind": "dev",
    "methods": {},
    "version": 1
  },
  "userdoc": {
    "kind": "user",
    "methods": {},
    "version": 1
  }
}