{
  "contractName": "MasterContract",
  "abi": [
    {
      "inputs": [],
      "stateMutability": "nonpayable",
      "type": "constructor"
    },
    {
      "anonymous": false,
      "inputs": [
        {
          "indexed": true,
          "internalType": "address",
          "name": "index_address",
          "type": "address"
        }
      ],
      "name": "IndexCreated",
      "type": "event"
    },
    {
      "inputs": [
        {
          "internalType": "address",
          "name": "",
          "type": "address"
        }
      ],
      "name": "isAdmin",
      "outputs": [
        {
          "internalType": "bool",
          "name": "",
          "type": "bool"
        }
      ],
      "stateMutability": "view",
      "type": "function"
    },
    {
      "stateMutability": "payable",
      "type": "receive"
    },
    {
      "inputs": [
        {
          "internalType": "address",
          "name": "_storageContract",
          "type": "address"
        }
      ],
      "name": "initMasterContract",
      "outputs": [],
      "stateMutability": "nonpayable",
      "type": "function"
    },
    {
      "inputs": [
        {
          "internalType": "address",
          "name": "_admin",
          "type": "address"
        }
      ],
      "name": "addAdmin",
      "outputs": [],
      "stateMutability": "nonpayable",
      "type": "function"
    },
    {
      "inputs": [
        {
          "internalType": "address",
          "name": "_admin",
          "type": "address"
        }
      ],
      "name": "removeAdmin",
      "outputs": [],
      "stateMutability": "nonpayable",
      "type": "function"
    },
    {
      "inputs": [
        {
          "internalType": "address",
          "name": "_storageContract",
          "type": "address"
        }
      ],
      "name": "updateStorageContract",
      "outputs": [],
      "stateMutability": "nonpayable",
      "type": "function"
    },
    {
      "inputs": [
        {
          "internalType": "address",
          "name": "_factoryContract",
          "type": "address"
        }
      ],
      "name": "updateFactoryContract",
      "outputs": [],
      "stateMutability": "nonpayable",
      "type": "function"
    },
    {
      "inputs": [
        {
          "internalType": "address payable",
          "name": "_vaultContract",
          "type": "address"
        }
      ],
      "name": "updateVaultContract",
      "outputs": [],
      "stateMutability": "nonpayable",
      "type": "function"
    },
    {
      "inputs": [
        {
          "internalType": "address",
          "name": "_masterContract",
          "type": "address"
        }
      ],
      "name": "setMasterContract",
      "outputs": [],
      "stateMutability": "nonpayable",
      "type": "function"
    },
    {
      "inputs": [
        {
          "internalType": "address",
          "name": "_index",
          "type": "address"
        },
        {
          "internalType": "address",
          "name": "receiver",
          "type": "address"
        },
        {
          "internalType": "uint256[]",
          "name": "_collateral",
          "type": "uint256[]"
        }
      ],
      "name": "mint_index",
      "outputs": [],
      "stateMutability": "nonpayable",
      "type": "function"
    },
    {
      "inputs": [
        {
          "internalType": "address",
          "name": "_index",
          "type": "address"
        },
        {
          "internalType": "address",
          "name": "receiver",
          "type": "address"
        },
        {
          "internalType": "uint256",
          "name": "index_amount_to_redeem",
          "type": "uint256"
        }
      ],
      "name": "redeem_index",
      "outputs": [],
      "stateMutability": "nonpayable",
      "type": "function"
    },
    {
      "inputs": [
        {
          "internalType": "address",
          "name": "_index",
          "type": "address"
        }
      ],
      "name": "getIndexCreator",
      "outputs": [
        {
          "internalType": "address",
          "name": "creator",
          "type": "address"
        }
      ],
      "stateMutability": "view",
      "type": "function"
    },
    {
      "inputs": [],
      "name": "getAllIndexCreators",
      "outputs": [
        {
          "internalType": "address[]",
          "name": "_array",
          "type": "address[]"
        }
      ],
      "stateMutability": "view",
      "type": "function"
    },
    {
      "inputs": [
        {
          "internalType": "address",
          "name": "_creator",
          "type": "address"
        },
        {
          "internalType": "address[]",
          "name": "_collateral",
          "type": "address[]"
        },
        {
          "internalType": "uint256[]",
          "name": "_quantities",
          "type": "uint256[]"
        },
        {
          "internalType": "string",
          "name": "name",
          "type": "string"
        },
        {
          "internalType": "string",
          "name": "symbol",
          "type": "string"
        }
      ],
      "name": "create_index",
      "outputs": [
        {
          "internalType": "address",
          "name": "new_index",
          "type": "address"
        }
      ],
      "stateMutability": "nonpayable",
      "type": "function"
    },
    {
      "inputs": [
        {
          "internalType": "address",
          "name": "_token",
          "type": "address"
        }
      ],
      "name": "approve",
      "outputs": [],
      "stateMutability": "nonpayable",
      "type": "function"
    }
  ],
  "bytecode": "0x608060405234801561001057600080fd5b506001600660003373ffffffffffffffffffffffffffffffffffffffff1673ffffffffffffffffffffffffffffffffffffffff16815260200190815260200160002060006101000a81548160ff021916908315150217905550612e87806100786000396000f3fe6080604052600436106100e15760003560e01c806356666e241161007f57806396d6aa301161005957806396d6aa30146102c5578063a00ea877146102ee578063c2fb538e14610317578063daea85c514610340576100e8565b806356666e241461023657806370480275146102735780638fb6d9971461029c576100e8565b80632a3a236f116100bb5780632a3a236f1461017e57806337848f00146101a757806347d666a3146101e457806355d1ba331461020d576100e8565b80630ca2d23f146100ed5780631785f53c1461011857806324d7806c14610141576100e8565b366100e857005b600080fd5b3480156100f957600080fd5b50610102610369565b60405161010f91906120d6565b60405180910390f35b34801561012457600080fd5b5061013f600480360381019061013a919061212e565b610598565b005b34801561014d57600080fd5b506101686004803603810190610163919061212e565b6106ee565b6040516101759190612176565b60405180910390f35b34801561018a57600080fd5b506101a560048036038101906101a0919061212e565b61070e565b005b3480156101b357600080fd5b506101ce60048036038101906101c991906122a2565b61099d565b6040516101db91906123ad565b60405180910390f35b3480156101f057600080fd5b5061020b60048036038101906102069190612406565b610da7565b005b34801561021957600080fd5b50610234600480360381019061022f9190612433565b610f73565b005b34801561024257600080fd5b5061025d6004803603810190610258919061212e565b611144565b60405161026a91906123ad565b60405180910390f35b34801561027f57600080fd5b5061029a6004803603810190610295919061212e565b6112e4565b005b3480156102a857600080fd5b506102c360048036038101906102be919061212e565b6114c7565b005b3480156102d157600080fd5b506102ec60048036038101906102e791906124dd565b6116f3565b005b3480156102fa57600080fd5b506103156004803603810190610310919061212e565b611875565b005b34801561032357600080fd5b5061033e6004803603810190610339919061212e565b611bed565b005b34801561034c57600080fd5b506103676004803603810190610362919061212e565b611db9565b005b6060600660003373ffffffffffffffffffffffffffffffffffffffff1673ffffffffffffffffffffffffffffffffffffffff16815260200190815260200160002060009054906101000a900460ff166103f7576040517f08c379a00000000000000000000000000000000000000000000000000000000081526004016103ee906125b3565b60405180910390fd5b6000600160009054906101000a900473ffffffffffffffffffffffffffffffffffffffff1673ffffffffffffffffffffffffffffffffffffffff1663c099ab936040518163ffffffff1660e01b8152600401602060405180830381865afa158015610466573d6000803e3d6000fd5b505050506040513d601f19601f8201168201806040525081019061048a91906125e8565b905060005b8181101561059357600160009054906101000a900473ffffffffffffffffffffffffffffffffffffffff1673ffffffffffffffffffffffffffffffffffffffff1663a1a953fd826040518263ffffffff1660e01b81526004016104f29190612624565b602060405180830381865afa15801561050f573d6000803e3d6000fd5b505050506040513d601f19601f820116820180604052508101906105339190612654565b83828151811061054657610545612681565b5b602002602001019073ffffffffffffffffffffffffffffffffffffffff16908173ffffffffffffffffffffffffffffffffffffffff1681525050808061058b906126df565b91505061048f565b505090565b600660003373ffffffffffffffffffffffffffffffffffffffff1673ffffffffffffffffffffffffffffffffffffffff16815260200190815260200160002060009054906101000a900460ff16610624576040517f08c379a000000000000000000000000000000000000000000000000000000000815260040161061b906125b3565b60405180910390fd5b600073ffffffffffffffffffffffffffffffffffffffff168173ffffffffffffffffffffffffffffffffffffffff1603610693576040517f08c379a000000000000000000000000000000000000000000000000000000000815260040161068a90612773565b60405180910390fd5b6000600660008373ffffffffffffffffffffffffffffffffffffffff1673ffffffffffffffffffffffffffffffffffffffff16815260200190815260200160002060006101000a81548160ff02191690831515021790555050565b60066020528060005260406000206000915054906101000a900460ff1681565b600660003373ffffffffffffffffffffffffffffffffffffffff1673ffffffffffffffffffffffffffffffffffffffff16815260200190815260200160002060009054906101000a900460ff1661079a576040517f08c379a0000000000000000000000000000000000000000000000000000000008152600401610791906125b3565b60405180910390fd5b600073ffffffffffffffffffffffffffffffffffffffff168173ffffffffffffffffffffffffffffffffffffffff1603610809576040517f08c379a000000000000000000000000000000000000000000000000000000000815260040161080090612773565b60405180910390fd5b600160009054906101000a900473ffffffffffffffffffffffffffffffffffffffff1673ffffffffffffffffffffffffffffffffffffffff16632a3a236f826040518263ffffffff1660e01b815260040161086491906123ad565b600060405180830381600087803b15801561087e57600080fd5b505af1158015610892573d6000803e3d6000fd5b50505050600360009054906101000a900473ffffffffffffffffffffffffffffffffffffffff1673ffffffffffffffffffffffffffffffffffffffff16639bdf06a36040518163ffffffff1660e01b8152600401600060405180830381600087803b15801561090057600080fd5b505af1158015610914573d6000803e3d6000fd5b50505050600560009054906101000a900473ffffffffffffffffffffffffffffffffffffffff1673ffffffffffffffffffffffffffffffffffffffff16639bdf06a36040518163ffffffff1660e01b8152600401600060405180830381600087803b15801561098257600080fd5b505af1158015610996573d6000803e3d6000fd5b5050505050565b60008073ffffffffffffffffffffffffffffffffffffffff168a73ffffffffffffffffffffffffffffffffffffffff1603610a0d576040517f08c379a0000000000000000000000000000000000000000000000000000000008152600401610a0490612773565b60405180910390fd5b60008989905014158015610a25575060008787905014155b610a64576040517f08c379a0000000000000000000000000000000000000000000000000000000008152600401610a5b906127df565b60405180910390fd5b610a6e8989611ef2565b610aad576040517f08c379a0000000000000000000000000000000000000000000000000000000008152600401610aa490612871565b60405180910390fd5b610ab78787611f89565b610af6576040517f08c379a0000000000000000000000000000000000000000000000000000000008152600401610aed90612903565b60405180910390fd5b600560009054906101000a900473ffffffffffffffffffffffffffffffffffffffff1673ffffffffffffffffffffffffffffffffffffffff1663a8a36d91868686868f6040518663ffffffff1660e01b8152600401610b59959493929190612970565b6020604051808303816000875af1158015610b78573d6000803e3d6000fd5b505050506040513d601f19601f82011682018060405250810190610b9c9190612654565b9050600160009054906101000a900473ffffffffffffffffffffffffffffffffffffffff1673ffffffffffffffffffffffffffffffffffffffff1663e8969c73828c6040518363ffffffff1660e01b8152600401610bfb9291906129b9565b600060405180830381600087803b158015610c1557600080fd5b505af1158015610c29573d6000803e3d6000fd5b50505050600360009054906101000a900473ffffffffffffffffffffffffffffffffffffffff1673ffffffffffffffffffffffffffffffffffffffff16631f925c85828b8b8b8b6040518663ffffffff1660e01b8152600401610c90959493929190612adf565b600060405180830381600087803b158015610caa57600080fd5b505af1158015610cbe573d6000803e3d6000fd5b50505050600360009054906101000a900473ffffffffffffffffffffffffffffffffffffffff1673ffffffffffffffffffffffffffffffffffffffff1663a8673dc68a8a8a8a8f6040518663ffffffff1660e01b8152600401610d25959493929190612b28565b600060405180830381600087803b158015610d3f57600080fd5b505af1158015610d53573d6000803e3d6000fd5b505050508073ffffffffffffffffffffffffffffffffffffffff167f55aca3d5e8fb9f865553e8daded233b5d3a97a8ac5bae7d88218a2263506f76260405160405180910390a29998505050505050505050565b600660003373ffffffffffffffffffffffffffffffffffffffff1673ffffffffffffffffffffffffffffffffffffffff16815260200190815260200160002060009054906101000a900460ff16610e33576040517f08c379a0000000000000000000000000000000000000000000000000000000008152600401610e2a906125b3565b60405180910390fd5b600073ffffffffffffffffffffffffffffffffffffffff168173ffffffffffffffffffffffffffffffffffffffff1603610ea2576040517f08c379a0000000000000000000000000000000000000000000000000000000008152600401610e9990612773565b60405180910390fd5b80600260006101000a81548173ffffffffffffffffffffffffffffffffffffffff021916908373ffffffffffffffffffffffffffffffffffffffff160217905550600160009054906101000a900473ffffffffffffffffffffffffffffffffffffffff1673ffffffffffffffffffffffffffffffffffffffff166396f4ada6826040518263ffffffff1660e01b8152600401610f3e9190612b80565b600060405180830381600087803b158015610f5857600080fd5b505af1158015610f6c573d6000803e3d6000fd5b5050505050565b600073ffffffffffffffffffffffffffffffffffffffff168473ffffffffffffffffffffffffffffffffffffffff1614158015610fdd5750600073ffffffffffffffffffffffffffffffffffffffff168373ffffffffffffffffffffffffffffffffffffffff1614155b61101c576040517f08c379a000000000000000000000000000000000000000000000000000000000815260040161101390612773565b60405180910390fd5b60008282905003611062576040517f08c379a0000000000000000000000000000000000000000000000000000000008152600401611059906127df565b60405180910390fd5b61106c8282611f89565b6110ab576040517f08c379a00000000000000000000000000000000000000000000000000000000081526004016110a290612871565b60405180910390fd5b600360009054906101000a900473ffffffffffffffffffffffffffffffffffffffff1673ffffffffffffffffffffffffffffffffffffffff166355d1ba33858585856040518563ffffffff1660e01b815260040161110c9493929190612b9b565b600060405180830381600087803b15801561112657600080fd5b505af115801561113a573d6000803e3d6000fd5b5050505050505050565b6000600660003373ffffffffffffffffffffffffffffffffffffffff1673ffffffffffffffffffffffffffffffffffffffff16815260200190815260200160002060009054906101000a900460ff166111d2576040517f08c379a00000000000000000000000000000000000000000000000000000000081526004016111c9906125b3565b60405180910390fd5b600073ffffffffffffffffffffffffffffffffffffffff168273ffffffffffffffffffffffffffffffffffffffff1603611241576040517f08c379a000000000000000000000000000000000000000000000000000000000815260040161123890612773565b60405180910390fd5b600160009054906101000a900473ffffffffffffffffffffffffffffffffffffffff1673ffffffffffffffffffffffffffffffffffffffff166356666e24836040518263ffffffff1660e01b815260040161129c91906123ad565b602060405180830381865afa1580156112b9573d6000803e3d6000fd5b505050506040513d601f19601f820116820180604052508101906112dd9190612654565b9050919050565b600660003373ffffffffffffffffffffffffffffffffffffffff1673ffffffffffffffffffffffffffffffffffffffff16815260200190815260200160002060009054906101000a900460ff16611370576040517f08c379a0000000000000000000000000000000000000000000000000000000008152600401611367906125b3565b60405180910390fd5b600073ffffffffffffffffffffffffffffffffffffffff168173ffffffffffffffffffffffffffffffffffffffff16036113df576040517f08c379a00000000000000000000000000000000000000000000000000000000081526004016113d690612773565b60405180910390fd5b6001600660008373ffffffffffffffffffffffffffffffffffffffff1673ffffffffffffffffffffffffffffffffffffffff16815260200190815260200160002060006101000a81548160ff021916908315150217905550600160009054906101000a900473ffffffffffffffffffffffffffffffffffffffff1673ffffffffffffffffffffffffffffffffffffffff166370480275826040518263ffffffff1660e01b815260040161149291906123ad565b600060405180830381600087803b1580156114ac57600080fd5b505af11580156114c0573d6000803e3d6000fd5b5050505050565b600660003373ffffffffffffffffffffffffffffffffffffffff1673ffffffffffffffffffffffffffffffffffffffff16815260200190815260200160002060009054906101000a900460ff16611553576040517f08c379a000000000000000000000000000000000000000000000000000000000815260040161154a906125b3565b60405180910390fd5b600073ffffffffffffffffffffffffffffffffffffffff168173ffffffffffffffffffffffffffffffffffffffff16036115c2576040517f08c379a00000000000000000000000000000000000000000000000000000000081526004016115b990612773565b60405180910390fd5b806000806101000a81548173ffffffffffffffffffffffffffffffffffffffff021916908373ffffffffffffffffffffffffffffffffffffffff16021790555060008054906101000a900473ffffffffffffffffffffffffffffffffffffffff16600160006101000a81548173ffffffffffffffffffffffffffffffffffffffff021916908373ffffffffffffffffffffffffffffffffffffffff160217905550600560009054906101000a900473ffffffffffffffffffffffffffffffffffffffff1673ffffffffffffffffffffffffffffffffffffffff1663dc38b0a2826040518263ffffffff1660e01b81526004016116be91906123ad565b600060405180830381600087803b1580156116d857600080fd5b505af11580156116ec573d6000803e3d6000fd5b5050505050565b600073ffffffffffffffffffffffffffffffffffffffff168373ffffffffffffffffffffffffffffffffffffffff161415801561175d5750600073ffffffffffffffffffffffffffffffffffffffff168273ffffffffffffffffffffffffffffffffffffffff1614155b61179c576040517f08c379a000000000000000000000000000000000000000000000000000000000815260040161179390612773565b60405180910390fd5b600081036117df576040517f08c379a00000000000000000000000000000000000000000000000000000000081526004016117d690612c73565b60405180910390fd5b600360009054906101000a900473ffffffffffffffffffffffffffffffffffffffff1673ffffffffffffffffffffffffffffffffffffffff166396d6aa308484846040518463ffffffff1660e01b815260040161183e93929190612c93565b600060405180830381600087803b15801561185857600080fd5b505af115801561186c573d6000803e3d6000fd5b50505050505050565b600660003373ffffffffffffffffffffffffffffffffffffffff1673ffffffffffffffffffffffffffffffffffffffff16815260200190815260200160002060009054906101000a900460ff16611901576040517f08c379a00000000000000000000000000000000000000000000000000000000081526004016118f8906125b3565b60405180910390fd5b806000806101000a81548173ffffffffffffffffffffffffffffffffffffffff021916908373ffffffffffffffffffffffffffffffffffffffff16021790555080600160006101000a81548173ffffffffffffffffffffffffffffffffffffffff021916908373ffffffffffffffffffffffffffffffffffffffff160217905550600160009054906101000a900473ffffffffffffffffffffffffffffffffffffffff1673ffffffffffffffffffffffffffffffffffffffff16632274346b6040518163ffffffff1660e01b8152600401602060405180830381865afa1580156119ef573d6000803e3d6000fd5b505050506040513d601f19601f82011682018060405250810190611a139190612cdf565b600260006101000a81548173ffffffffffffffffffffffffffffffffffffffff021916908373ffffffffffffffffffffffffffffffffffffffff160217905550600260009054906101000a900473ffffffffffffffffffffffffffffffffffffffff16600360006101000a81548173ffffffffffffffffffffffffffffffffffffffff021916908373ffffffffffffffffffffffffffffffffffffffff160217905550600160009054906101000a900473ffffffffffffffffffffffffffffffffffffffff1673ffffffffffffffffffffffffffffffffffffffff1663de11c94a6040518163ffffffff1660e01b8152600401602060405180830381865afa158015611b23573d6000803e3d6000fd5b505050506040513d601f19601f82011682018060405250810190611b479190612654565b600460006101000a81548173ffffffffffffffffffffffffffffffffffffffff021916908373ffffffffffffffffffffffffffffffffffffffff160217905550600460009054906101000a900473ffffffffffffffffffffffffffffffffffffffff16600560006101000a81548173ffffffffffffffffffffffffffffffffffffffff021916908373ffffffffffffffffffffffffffffffffffffffff16021790555050565b600660003373ffffffffffffffffffffffffffffffffffffffff1673ffffffffffffffffffffffffffffffffffffffff16815260200190815260200160002060009054906101000a900460ff16611c79576040517f08c379a0000000000000000000000000000000000000000000000000000000008152600401611c70906125b3565b60405180910390fd5b600073ffffffffffffffffffffffffffffffffffffffff168173ffffffffffffffffffffffffffffffffffffffff1603611ce8576040517f08c379a0000000000000000000000000000000000000000000000000000000008152600401611cdf90612773565b60405180910390fd5b80600460006101000a81548173ffffffffffffffffffffffffffffffffffffffff021916908373ffffffffffffffffffffffffffffffffffffffff160217905550600160009054906101000a900473ffffffffffffffffffffffffffffffffffffffff1673ffffffffffffffffffffffffffffffffffffffff1663d4241341826040518263ffffffff1660e01b8152600401611d8491906123ad565b600060405180830381600087803b158015611d9e57600080fd5b505af1158015611db2573d6000803e3d6000fd5b5050505050565b8073ffffffffffffffffffffffffffffffffffffffff1663095ea7b3306a084595161401484a0000006040518363ffffffff1660e01b8152600401611dff929190612d51565b6020604051808303816000875af1158015611e1e573d6000803e3d6000fd5b505050506040513d601f19601f82011682018060405250810190611e429190612da6565b508073ffffffffffffffffffffffffffffffffffffffff1663095ea7b3600260009054906101000a900473ffffffffffffffffffffffffffffffffffffffff166a084595161401484a0000006040518363ffffffff1660e01b8152600401611eab929190612e28565b6020604051808303816000875af1158015611eca573d6000803e3d6000fd5b505050506040513d601f19601f82011682018060405250810190611eee9190612da6565b5050565b600080600090505b83839050811015611f7d57600073ffffffffffffffffffffffffffffffffffffffff16848483818110611f3057611f2f612681565b5b9050602002016020810190611f45919061212e565b73ffffffffffffffffffffffffffffffffffffffff1603611f6a576000915050611f83565b8080611f75906126df565b915050611efa565b50600190505b92915050565b600080600090505b83839050811015611fda576000848483818110611fb157611fb0612681565b5b9050602002013503611fc7576000915050611fe0565b8080611fd2906126df565b915050611f91565b50600190505b92915050565b600081519050919050565b600082825260208201905092915050565b6000819050602082019050919050565b600073ffffffffffffffffffffffffffffffffffffffff82169050919050565b600061203d82612012565b9050919050565b61204d81612032565b82525050565b600061205f8383612044565b60208301905092915050565b6000602082019050919050565b600061208382611fe6565b61208d8185611ff1565b935061209883612002565b8060005b838110156120c95781516120b08882612053565b97506120bb8361206b565b92505060018101905061209c565b5085935050505092915050565b600060208201905081810360008301526120f08184612078565b905092915050565b600080fd5b600080fd5b61210b81612032565b811461211657600080fd5b50565b60008135905061212881612102565b92915050565b600060208284031215612144576121436120f8565b5b600061215284828501612119565b91505092915050565b60008115159050919050565b6121708161215b565b82525050565b600060208201905061218b6000830184612167565b92915050565b600080fd5b600080fd5b600080fd5b60008083601f8401126121b6576121b5612191565b5b8235905067ffffffffffffffff8111156121d3576121d2612196565b5b6020830191508360208202830111156121ef576121ee61219b565b5b9250929050565b60008083601f84011261220c5761220b612191565b5b8235905067ffffffffffffffff81111561222957612228612196565b5b6020830191508360208202830111156122455761224461219b565b5b9250929050565b60008083601f84011261226257612261612191565b5b8235905067ffffffffffffffff81111561227f5761227e612196565b5b60208301915083600182028301111561229b5761229a61219b565b5b9250929050565b600080600080600080600080600060a08a8c0312156122c4576122c36120f8565b5b60006122d28c828d01612119565b99505060208a013567ffffffffffffffff8111156122f3576122f26120fd565b5b6122ff8c828d016121a0565b985098505060408a013567ffffffffffffffff811115612322576123216120fd565b5b61232e8c828d016121f6565b965096505060608a013567ffffffffffffffff811115612351576123506120fd565b5b61235d8c828d0161224c565b945094505060808a013567ffffffffffffffff8111156123805761237f6120fd565b5b61238c8c828d0161224c565b92509250509295985092959850929598565b6123a781612032565b82525050565b60006020820190506123c2600083018461239e565b92915050565b60006123d382612012565b9050919050565b6123e3816123c8565b81146123ee57600080fd5b50565b600081359050612400816123da565b92915050565b60006020828403121561241c5761241b6120f8565b5b600061242a848285016123f1565b91505092915050565b6000806000806060858703121561244d5761244c6120f8565b5b600061245b87828801612119565b945050602061246c87828801612119565b935050604085013567ffffffffffffffff81111561248d5761248c6120fd565b5b612499878288016121f6565b925092505092959194509250565b6000819050919050565b6124ba816124a7565b81146124c557600080fd5b50565b6000813590506124d7816124b1565b92915050565b6000806000606084860312156124f6576124f56120f8565b5b600061250486828701612119565b935050602061251586828701612119565b9250506040612526868287016124c8565b9150509250925092565b600082825260208201905092915050565b7f4d617374657220436f6e7472616374202d204f6e6c792041646d696e7320636160008201527f6e206578656375746520746869732066756e6374696f6e000000000000000000602082015250565b600061259d603783612530565b91506125a882612541565b604082019050919050565b600060208201905081810360008301526125cc81612590565b9050919050565b6000815190506125e2816124b1565b92915050565b6000602082840312156125fe576125fd6120f8565b5b600061260c848285016125d3565b91505092915050565b61261e816124a7565b82525050565b60006020820190506126396000830184612615565b92915050565b60008151905061264e81612102565b92915050565b60006020828403121561266a576126696120f8565b5b60006126788482850161263f565b91505092915050565b7f4e487b7100000000000000000000000000000000000000000000000000000000600052603260045260246000fd5b7f4e487b7100000000000000000000000000000000000000000000000000000000600052601160045260246000fd5b60006126ea826124a7565b91507fffffffffffffffffffffffffffffffffffffffffffffffffffffffffffffffff820361271c5761271b6126b0565b5b600182019050919050565b7f4164647265737320617267732063616e6e6f74206265206e756c6c0000000000600082015250565b600061275d601b83612530565b915061276882612727565b602082019050919050565b6000602082019050818103600083015261278c81612750565b9050919050565b7f417272617920617267732063616e6e6f74206265206e756c6c2f656d70747900600082015250565b60006127c9601f83612530565b91506127d482612793565b602082019050919050565b600060208201905081810360008301526127f8816127bc565b9050919050565b7f436f6c6c61746572616c2061727261792063616e6e6f74206861766520616e2060008201527f656d70747920746f6b656e000000000000000000000000000000000000000000602082015250565b600061285b602b83612530565b9150612866826127ff565b604082019050919050565b6000602082019050818103600083015261288a8161284e565b9050919050565b7f5175616e7469746965732061727261792063616e6e6f74206861766520616e2060008201527f656d70747920746f6b656e000000000000000000000000000000000000000000602082015250565b60006128ed602b83612530565b91506128f882612891565b604082019050919050565b6000602082019050818103600083015261291c816128e0565b9050919050565b82818337600083830152505050565b6000601f19601f8301169050919050565b600061294f8385612530565b935061295c838584612923565b61296583612932565b840190509392505050565b6000606082019050818103600083015261298b818789612943565b905081810360208301526129a0818587612943565b90506129af604083018461239e565b9695505050505050565b60006040820190506129ce600083018561239e565b6129db602083018461239e565b9392505050565b6000819050919050565b60006129fb6020840184612119565b905092915050565b6000602082019050919050565b6000612a1c8385611ff1565b9350612a27826129e2565b8060005b85811015612a6057612a3d82846129ec565b612a478882612053565b9750612a5283612a03565b925050600181019050612a2b565b5085925050509392505050565b600082825260208201905092915050565b600080fd5b6000612a8f8385612a6d565b93507f07ffffffffffffffffffffffffffffffffffffffffffffffffffffffffffffff831115612ac257612ac1612a7e565b5b602083029250612ad3838584612923565b82840190509392505050565b6000606082019050612af4600083018861239e565b8181036020830152612b07818688612a10565b90508181036040830152612b1c818486612a83565b90509695505050505050565b60006060820190508181036000830152612b43818789612a10565b90508181036020830152612b58818587612a83565b9050612b67604083018461239e565b9695505050505050565b612b7a816123c8565b82525050565b6000602082019050612b956000830184612b71565b92915050565b6000606082019050612bb0600083018761239e565b612bbd602083018661239e565b8181036040830152612bd0818486612a83565b905095945050505050565b7f43616e6e6f742072656465656d206e6f6e6520696e6465782e204d617962652060008201527f796f752073656e7420646563696d616c7320776974686f7574207472616e736660208201527f6f726d696e673f00000000000000000000000000000000000000000000000000604082015250565b6000612c5d604783612530565b9150612c6882612bdb565b606082019050919050565b60006020820190508181036000830152612c8c81612c50565b9050919050565b6000606082019050612ca8600083018661239e565b612cb5602083018561239e565b612cc26040830184612615565b949350505050565b600081519050612cd9816123da565b92915050565b600060208284031215612cf557612cf46120f8565b5b6000612d0384828501612cca565b91505092915050565b6000819050919050565b6000819050919050565b6000612d3b612d36612d3184612d0c565b612d16565b6124a7565b9050919050565b612d4b81612d20565b82525050565b6000604082019050612d66600083018561239e565b612d736020830184612d42565b9392505050565b612d838161215b565b8114612d8e57600080fd5b50565b600081519050612da081612d7a565b92915050565b600060208284031215612dbc57612dbb6120f8565b5b6000612dca84828501612d91565b91505092915050565b6000612dee612de9612de484612012565b612d16565b612012565b9050919050565b6000612e0082612dd3565b9050919050565b6000612e1282612df5565b9050919050565b612e2281612e07565b82525050565b6000604082019050612e3d6000830185612e19565b612e4a6020830184612d42565b939250505056fea26469706673582212200487c6ff5f31073c8004c8a80bf2ba13e0fdddd9fd0938bbd10e57fe9c706d3464736f6c634300080d0033",
  "immutableReferences": {},
  "source": "// SPDX-License-Identifier: GPL-3.0\npragma solidity >=0.8.13;\n\nimport {FactoryContract} from \"./FactoryContract.sol\";\nimport {VaultContract} from \"./VaultContract.sol\";\nimport {StorageContract} from \"./StorageContract.sol\";\nimport \"@openzeppelin/contracts/token/ERC20/ERC20.sol\";\n\n\ncontract MasterTools{\n    function checkEmptyInAddressArray(address[] calldata addressArray) internal pure returns(bool empty){\n        for(uint i=0; i<addressArray.length;i++){\n            if(addressArray[i]==address(0x0)){\n                return false;\n            }\n        }\n        return true;\n    }\n    function checkEmptyInUintArray(uint[] calldata addressArray) internal pure returns(bool empty){\n    for(uint i=0; i<addressArray.length;i++){\n        if(addressArray[i]== 0){\n            return false;\n        }\n    }\n    return true;\n    }\n}\n\ncontract MasterContract is MasterTools{\n\n    address storageContract;\n    StorageContract storageContractInstance;\n    address payable vaultContract;\n    VaultContract vaultContractInstance;\n    address factoryContract;\n    FactoryContract factoryContractInstance;\n\n    event IndexCreated(\n        address indexed index_address\n    );\n    \n    mapping (address=>bool) public isAdmin;\n\n    constructor(){\n        isAdmin[msg.sender] = true;\n    }\n\n    modifier onlyAdmins(){\n        require(isAdmin[msg.sender],\"Master Contract - Only Admins can execute this function\");\n        _;\n    }\n\n    function initMasterContract(address _storageContract) external onlyAdmins{\n        // We load the addresses of the rest of the contracts\n        storageContract = _storageContract;\n        storageContractInstance = StorageContract(_storageContract);\n\n        vaultContract = storageContractInstance.vaultContract();\n        vaultContractInstance = VaultContract(vaultContract);\n\n        factoryContract = storageContractInstance.factoryContract();\n        factoryContractInstance = FactoryContract(factoryContract);\n    }\n\n    function addAdmin(address _admin) external onlyAdmins{\n        require(_admin != address(0x0),\"Address args cannot be null\");\n        isAdmin[_admin] = true;\n\n        storageContractInstance.addAdmin(_admin);\n    }\n\n    function removeAdmin(address _admin) external onlyAdmins{\n        require(_admin != address(0x0),\"Address args cannot be null\");\n        isAdmin[_admin] = false;\n    }\n\n    // Updaters\n\n    function updateStorageContract (address _storageContract) external onlyAdmins{\n        require(_storageContract != address(0x0),\"Address args cannot be null\");\n        storageContract = _storageContract;\n        storageContractInstance = StorageContract(storageContract);\n        factoryContractInstance.setStorageContract(_storageContract);\n    }\n\n    function updateFactoryContract (address _factoryContract) external onlyAdmins{\n        require(_factoryContract != address(0x0),\"Address args cannot be null\");\n        factoryContract = _factoryContract;\n        \n        storageContractInstance.setFactoryContract(_factoryContract);\n    }    \n    \n    function updateVaultContract (address payable _vaultContract) external onlyAdmins{\n        require(_vaultContract != address(0x0),\"Address args cannot be null\");\n        vaultContract = _vaultContract;\n\n        storageContractInstance.setVaultContract(_vaultContract);\n    }\n\n    function setMasterContract(address _masterContract) external onlyAdmins{\n        require(_masterContract != address(0x0),\"Address args cannot be null\");\n\n        storageContractInstance.setMasterContract(_masterContract);\n\n        vaultContractInstance.setMasterContract();\n        factoryContractInstance.setMasterContract();\n    }\n\n    // Interacting specifically with the Vault\n\n    function mint_index(address _index, address receiver, uint256[] calldata _collateral) external{\n        require((_index != address(0x0))&&(receiver != address(0x0)),\"Address args cannot be null\");\n        require(_collateral.length!=0,\"Array args cannot be null/empty\");\n        require(checkEmptyInUintArray(_collateral),\"Collateral array cannot have an empty token\");\n\n        vaultContractInstance.mint_index(_index, receiver, _collateral);       \n    }\n\n    function redeem_index(address _index, address receiver, uint index_amount_to_redeem) external{\n        require((_index != address(0x0))&&(receiver != address(0x0)),\"Address args cannot be null\");\n        require(index_amount_to_redeem != 0 , \"Cannot redeem none index. Maybe you sent decimals without transforming?\");\n\n        vaultContractInstance.redeem_index(_index, receiver, index_amount_to_redeem); \n    }\n\n    // Interacting specifically with the Storage\n\n    function getIndexCreator(address _index) public view onlyAdmins returns(address creator) {\n        require(_index != address(0x0),\"Address args cannot be null\");\n        return storageContractInstance.getIndexCreator(_index);\n    }\n\n    function getAllIndexCreators() external view onlyAdmins returns(address[] memory _array){\n        uint length = storageContractInstance.getIndicesLength();\n        for (uint index = 0; index < length; index++) {\n            _array[index] = storageContractInstance.indices(index);\n        }\n        return _array;\n    }\n\n    // Bulk interactions\n\n    function create_index(address _creator, address[] calldata _collateral, uint256[] calldata _quantities, string calldata name, string calldata symbol) external returns (address new_index){\n        require(_creator != address(0x0),\"Address args cannot be null\");\n        \n        require((_collateral.length!=0)&&(_quantities.length!=0),\"Array args cannot be null/empty\");\n        require(checkEmptyInAddressArray(_collateral),\"Collateral array cannot have an empty token\");\n        require(checkEmptyInUintArray(_quantities),\"Quantities array cannot have an empty token\");\n\n        new_index = factoryContractInstance.createIndex(name, symbol, _creator);\n        \n        storageContractInstance.addNewIndex(new_index, _creator);\n        vaultContractInstance.register_index(new_index,  _collateral, _quantities);\n        vaultContractInstance.receive_collateral(_collateral, _quantities,_creator);\n\n        emit IndexCreated(new_index);\n    }\n\n    function approve(address _token) external{\n        ERC20(_token).approve(address(this), 10000000*10**18);\n        ERC20(_token).approve(vaultContract, 10000000*10**18);\n    }\n\n    receive() external payable{\n\n    }\n}",
  "sourcePath": "/home/yildirim/TFM-DeFi/contracts/MasterContract.sol",
  "compiler": {
    "name": "solc",
    "version": "0.8.13+commit.abaa5c0e.Emscripten.clang"
  },
  "schemaVersion": "3.4.7",
  "updatedAt": "2022-06-12T11:24:51.995Z",
  "devdoc": {
    "kind": "dev",
    "methods": {},
    "version": 1
  },
  "userdoc": {
    "kind": "user",
    "methods": {},
    "version": 1
  }
}