{
  "contractName": "MasterContract",
  "abi": [
    {
      "inputs": [],
      "stateMutability": "nonpayable",
      "type": "constructor"
    },
    {
      "anonymous": false,
      "inputs": [
        {
          "indexed": true,
          "internalType": "address",
          "name": "index_address",
          "type": "address"
        }
      ],
      "name": "IndexCreated",
      "type": "event"
    },
    {
      "inputs": [
        {
          "internalType": "address",
          "name": "",
          "type": "address"
        }
      ],
      "name": "isAdmin",
      "outputs": [
        {
          "internalType": "bool",
          "name": "",
          "type": "bool"
        }
      ],
      "stateMutability": "view",
      "type": "function",
      "constant": true
    },
    {
      "stateMutability": "payable",
      "type": "receive",
      "payable": true
    },
    {
      "inputs": [
        {
          "internalType": "address",
          "name": "_storageContract",
          "type": "address"
        }
      ],
      "name": "initMasterContract",
      "outputs": [],
      "stateMutability": "nonpayable",
      "type": "function"
    },
    {
      "inputs": [
        {
          "internalType": "address",
          "name": "_admin",
          "type": "address"
        }
      ],
      "name": "addAdmin",
      "outputs": [],
      "stateMutability": "nonpayable",
      "type": "function"
    },
    {
      "inputs": [
        {
          "internalType": "address",
          "name": "_admin",
          "type": "address"
        }
      ],
      "name": "removeAdmin",
      "outputs": [],
      "stateMutability": "nonpayable",
      "type": "function"
    },
    {
      "inputs": [
        {
          "internalType": "address",
          "name": "_storageContract",
          "type": "address"
        }
      ],
      "name": "updateStorageContract",
      "outputs": [],
      "stateMutability": "nonpayable",
      "type": "function"
    },
    {
      "inputs": [
        {
          "internalType": "address",
          "name": "_factoryContract",
          "type": "address"
        }
      ],
      "name": "updateFactoryContract",
      "outputs": [],
      "stateMutability": "nonpayable",
      "type": "function"
    },
    {
      "inputs": [
        {
          "internalType": "address payable",
          "name": "_vaultContract",
          "type": "address"
        }
      ],
      "name": "updateVaultContract",
      "outputs": [],
      "stateMutability": "nonpayable",
      "type": "function"
    },
    {
      "inputs": [
        {
          "internalType": "address",
          "name": "_masterContract",
          "type": "address"
        }
      ],
      "name": "setMasterContract",
      "outputs": [],
      "stateMutability": "nonpayable",
      "type": "function"
    },
    {
      "inputs": [
        {
          "internalType": "address",
          "name": "_index",
          "type": "address"
        },
        {
          "internalType": "address",
          "name": "receiver",
          "type": "address"
        },
        {
          "internalType": "address[]",
          "name": "_collateral",
          "type": "address[]"
        },
        {
          "internalType": "uint256[]",
          "name": "_quantities",
          "type": "uint256[]"
        }
      ],
      "name": "mint_index",
      "outputs": [],
      "stateMutability": "nonpayable",
      "type": "function"
    },
    {
      "inputs": [
        {
          "internalType": "address",
          "name": "_index",
          "type": "address"
        },
        {
          "internalType": "address",
          "name": "receiver",
          "type": "address"
        },
        {
          "internalType": "uint256",
          "name": "index_amount_to_redeem",
          "type": "uint256"
        }
      ],
      "name": "redeem_index",
      "outputs": [],
      "stateMutability": "nonpayable",
      "type": "function"
    },
    {
      "inputs": [
        {
          "internalType": "address",
          "name": "_index",
          "type": "address"
        }
      ],
      "name": "getIndexCreator",
      "outputs": [
        {
          "internalType": "address",
          "name": "creator",
          "type": "address"
        }
      ],
      "stateMutability": "view",
      "type": "function",
      "constant": true
    },
    {
      "inputs": [],
      "name": "getAllIndexCreators",
      "outputs": [
        {
          "internalType": "address[]",
          "name": "",
          "type": "address[]"
        }
      ],
      "stateMutability": "view",
      "type": "function",
      "constant": true
    },
    {
      "inputs": [
        {
          "internalType": "address",
          "name": "_creator",
          "type": "address"
        },
        {
          "internalType": "address[]",
          "name": "_collateral",
          "type": "address[]"
        },
        {
          "internalType": "uint256[]",
          "name": "_quantities",
          "type": "uint256[]"
        },
        {
          "internalType": "string",
          "name": "name",
          "type": "string"
        },
        {
          "internalType": "string",
          "name": "symbol",
          "type": "string"
        }
      ],
      "name": "create_index",
      "outputs": [
        {
          "internalType": "address",
          "name": "new_index",
          "type": "address"
        }
      ],
      "stateMutability": "nonpayable",
      "type": "function"
    },
    {
      "inputs": [
        {
          "internalType": "address",
          "name": "_token",
          "type": "address"
        }
      ],
      "name": "approve",
      "outputs": [],
      "stateMutability": "nonpayable",
      "type": "function"
    }
  ],
  "bytecode": "0x608060405234801561001057600080fd5b506001600660003373ffffffffffffffffffffffffffffffffffffffff1673ffffffffffffffffffffffffffffffffffffffff16815260200190815260200160002060006101000a81548160ff021916908315150217905550613185806100786000396000f3fe6080604052600436106100e15760003560e01c8063704802751161007f578063a00ea87711610059578063a00ea877146102c5578063aa4fc546146102ee578063c2fb538e14610317578063daea85c514610340576100e8565b8063704802751461024a5780638fb6d9971461027357806396d6aa301461029c576100e8565b80632a3a236f116100bb5780632a3a236f1461017e57806337848f00146101a757806347d666a3146101e457806356666e241461020d576100e8565b80630ca2d23f146100ed5780631785f53c1461011857806324d7806c14610141576100e8565b366100e857005b600080fd5b3480156100f957600080fd5b50610102610369565b60405161010f919061231b565b60405180910390f35b34801561012457600080fd5b5061013f600480360381019061013a9190612373565b6105e9565b005b34801561014d57600080fd5b5061016860048036038101906101639190612373565b61073f565b60405161017591906123bb565b60405180910390f35b34801561018a57600080fd5b506101a560048036038101906101a09190612373565b61075f565b005b3480156101b357600080fd5b506101ce60048036038101906101c991906124e7565b6109ee565b6040516101db91906125f2565b60405180910390f35b3480156101f057600080fd5b5061020b6004803603810190610206919061264b565b610e8f565b005b34801561021957600080fd5b50610234600480360381019061022f9190612373565b6110be565b60405161024191906125f2565b60405180910390f35b34801561025657600080fd5b50610271600480360381019061026c9190612373565b61125e565b005b34801561027f57600080fd5b5061029a60048036038101906102959190612373565b611441565b005b3480156102a857600080fd5b506102c360048036038101906102be91906126ae565b61166d565b005b3480156102d157600080fd5b506102ec60048036038101906102e79190612373565b6117ef565b005b3480156102fa57600080fd5b5061031560048036038101906103109190612701565b611b67565b005b34801561032357600080fd5b5061033e60048036038101906103399190612373565b611dcf565b005b34801561034c57600080fd5b5061036760048036038101906103629190612373565b611ffe565b005b6060600660003373ffffffffffffffffffffffffffffffffffffffff1673ffffffffffffffffffffffffffffffffffffffff16815260200190815260200160002060009054906101000a900460ff166103f7576040517f08c379a00000000000000000000000000000000000000000000000000000000081526004016103ee9061282b565b60405180910390fd5b6000600160009054906101000a900473ffffffffffffffffffffffffffffffffffffffff1673ffffffffffffffffffffffffffffffffffffffff1663c099ab936040518163ffffffff1660e01b8152600401602060405180830381865afa158015610466573d6000803e3d6000fd5b505050506040513d601f19601f8201168201806040525081019061048a9190612860565b905060008167ffffffffffffffff8111156104a8576104a761288d565b5b6040519080825280602002602001820160405280156104d65781602001602082028036833780820191505090505b50905060005b828110156105e057600160009054906101000a900473ffffffffffffffffffffffffffffffffffffffff1673ffffffffffffffffffffffffffffffffffffffff1663a1a953fd826040518263ffffffff1660e01b815260040161053f91906128cb565b602060405180830381865afa15801561055c573d6000803e3d6000fd5b505050506040513d601f19601f8201168201806040525081019061058091906128fb565b82828151811061059357610592612928565b5b602002602001019073ffffffffffffffffffffffffffffffffffffffff16908173ffffffffffffffffffffffffffffffffffffffff168152505080806105d890612986565b9150506104dc565b50809250505090565b600660003373ffffffffffffffffffffffffffffffffffffffff1673ffffffffffffffffffffffffffffffffffffffff16815260200190815260200160002060009054906101000a900460ff16610675576040517f08c379a000000000000000000000000000000000000000000000000000000000815260040161066c9061282b565b60405180910390fd5b600073ffffffffffffffffffffffffffffffffffffffff168173ffffffffffffffffffffffffffffffffffffffff16036106e4576040517f08c379a00000000000000000000000000000000000000000000000000000000081526004016106db90612a1a565b60405180910390fd5b6000600660008373ffffffffffffffffffffffffffffffffffffffff1673ffffffffffffffffffffffffffffffffffffffff16815260200190815260200160002060006101000a81548160ff02191690831515021790555050565b60066020528060005260406000206000915054906101000a900460ff1681565b600660003373ffffffffffffffffffffffffffffffffffffffff1673ffffffffffffffffffffffffffffffffffffffff16815260200190815260200160002060009054906101000a900460ff166107eb576040517f08c379a00000000000000000000000000000000000000000000000000000000081526004016107e29061282b565b60405180910390fd5b600073ffffffffffffffffffffffffffffffffffffffff168173ffffffffffffffffffffffffffffffffffffffff160361085a576040517f08c379a000000000000000000000000000000000000000000000000000000000815260040161085190612a1a565b60405180910390fd5b600160009054906101000a900473ffffffffffffffffffffffffffffffffffffffff1673ffffffffffffffffffffffffffffffffffffffff16632a3a236f826040518263ffffffff1660e01b81526004016108b591906125f2565b600060405180830381600087803b1580156108cf57600080fd5b505af11580156108e3573d6000803e3d6000fd5b50505050600360009054906101000a900473ffffffffffffffffffffffffffffffffffffffff1673ffffffffffffffffffffffffffffffffffffffff16639bdf06a36040518163ffffffff1660e01b8152600401600060405180830381600087803b15801561095157600080fd5b505af1158015610965573d6000803e3d6000fd5b50505050600560009054906101000a900473ffffffffffffffffffffffffffffffffffffffff1673ffffffffffffffffffffffffffffffffffffffff16639bdf06a36040518163ffffffff1660e01b8152600401600060405180830381600087803b1580156109d357600080fd5b505af11580156109e7573d6000803e3d6000fd5b5050505050565b60008073ffffffffffffffffffffffffffffffffffffffff168a73ffffffffffffffffffffffffffffffffffffffff1603610a5e576040517f08c379a0000000000000000000000000000000000000000000000000000000008152600401610a5590612a1a565b60405180910390fd5b60008989905014158015610a76575060008787905014155b610ab5576040517f08c379a0000000000000000000000000000000000000000000000000000000008152600401610aac90612a86565b60405180910390fd5b610abf8989612137565b610afe576040517f08c379a0000000000000000000000000000000000000000000000000000000008152600401610af590612b18565b60405180910390fd5b610b0887876121ce565b610b47576040517f08c379a0000000000000000000000000000000000000000000000000000000008152600401610b3e90612baa565b60405180910390fd5b600560009054906101000a900473ffffffffffffffffffffffffffffffffffffffff1673ffffffffffffffffffffffffffffffffffffffff1663a8a36d91868686868f6040518663ffffffff1660e01b8152600401610baa959493929190612c17565b6020604051808303816000875af1158015610bc9573d6000803e3d6000fd5b505050506040513d601f19601f82011682018060405250810190610bed91906128fb565b9050600160009054906101000a900473ffffffffffffffffffffffffffffffffffffffff1673ffffffffffffffffffffffffffffffffffffffff16639b36d47b828c8c8c8c8c6040518763ffffffff1660e01b8152600401610c5496959493929190612d5d565b600060405180830381600087803b158015610c6e57600080fd5b505af1158015610c82573d6000803e3d6000fd5b50505050600360009054906101000a900473ffffffffffffffffffffffffffffffffffffffff1673ffffffffffffffffffffffffffffffffffffffff16631f925c85828b8b8b8b6040518663ffffffff1660e01b8152600401610ce9959493929190612db4565b600060405180830381600087803b158015610d0357600080fd5b505af1158015610d17573d6000803e3d6000fd5b50505050600360009054906101000a900473ffffffffffffffffffffffffffffffffffffffff1673ffffffffffffffffffffffffffffffffffffffff1663a8673dc68a8a8a8a8f6040518663ffffffff1660e01b8152600401610d7e959493929190612dfd565b600060405180830381600087803b158015610d9857600080fd5b505af1158015610dac573d6000803e3d6000fd5b50505050600360009054906101000a900473ffffffffffffffffffffffffffffffffffffffff1673ffffffffffffffffffffffffffffffffffffffff16637e5465ba828c6040518363ffffffff1660e01b8152600401610e0d929190612e46565b600060405180830381600087803b158015610e2757600080fd5b505af1158015610e3b573d6000803e3d6000fd5b505050508073ffffffffffffffffffffffffffffffffffffffff167f55aca3d5e8fb9f865553e8daded233b5d3a97a8ac5bae7d88218a2263506f76260405160405180910390a29998505050505050505050565b600660003373ffffffffffffffffffffffffffffffffffffffff1673ffffffffffffffffffffffffffffffffffffffff16815260200190815260200160002060009054906101000a900460ff16610f1b576040517f08c379a0000000000000000000000000000000000000000000000000000000008152600401610f129061282b565b60405180910390fd5b600073ffffffffffffffffffffffffffffffffffffffff168173ffffffffffffffffffffffffffffffffffffffff1603610f8a576040517f08c379a0000000000000000000000000000000000000000000000000000000008152600401610f8190612a1a565b60405180910390fd5b80600260006101000a81548173ffffffffffffffffffffffffffffffffffffffff021916908373ffffffffffffffffffffffffffffffffffffffff160217905550600260009054906101000a900473ffffffffffffffffffffffffffffffffffffffff16600360006101000a81548173ffffffffffffffffffffffffffffffffffffffff021916908373ffffffffffffffffffffffffffffffffffffffff160217905550600160009054906101000a900473ffffffffffffffffffffffffffffffffffffffff1673ffffffffffffffffffffffffffffffffffffffff166396f4ada6826040518263ffffffff1660e01b81526004016110899190612e7e565b600060405180830381600087803b1580156110a357600080fd5b505af11580156110b7573d6000803e3d6000fd5b5050505050565b6000600660003373ffffffffffffffffffffffffffffffffffffffff1673ffffffffffffffffffffffffffffffffffffffff16815260200190815260200160002060009054906101000a900460ff1661114c576040517f08c379a00000000000000000000000000000000000000000000000000000000081526004016111439061282b565b60405180910390fd5b600073ffffffffffffffffffffffffffffffffffffffff168273ffffffffffffffffffffffffffffffffffffffff16036111bb576040517f08c379a00000000000000000000000000000000000000000000000000000000081526004016111b290612a1a565b60405180910390fd5b600160009054906101000a900473ffffffffffffffffffffffffffffffffffffffff1673ffffffffffffffffffffffffffffffffffffffff166356666e24836040518263ffffffff1660e01b815260040161121691906125f2565b602060405180830381865afa158015611233573d6000803e3d6000fd5b505050506040513d601f19601f8201168201806040525081019061125791906128fb565b9050919050565b600660003373ffffffffffffffffffffffffffffffffffffffff1673ffffffffffffffffffffffffffffffffffffffff16815260200190815260200160002060009054906101000a900460ff166112ea576040517f08c379a00000000000000000000000000000000000000000000000000000000081526004016112e19061282b565b60405180910390fd5b600073ffffffffffffffffffffffffffffffffffffffff168173ffffffffffffffffffffffffffffffffffffffff1603611359576040517f08c379a000000000000000000000000000000000000000000000000000000000815260040161135090612a1a565b60405180910390fd5b6001600660008373ffffffffffffffffffffffffffffffffffffffff1673ffffffffffffffffffffffffffffffffffffffff16815260200190815260200160002060006101000a81548160ff021916908315150217905550600160009054906101000a900473ffffffffffffffffffffffffffffffffffffffff1673ffffffffffffffffffffffffffffffffffffffff166370480275826040518263ffffffff1660e01b815260040161140c91906125f2565b600060405180830381600087803b15801561142657600080fd5b505af115801561143a573d6000803e3d6000fd5b5050505050565b600660003373ffffffffffffffffffffffffffffffffffffffff1673ffffffffffffffffffffffffffffffffffffffff16815260200190815260200160002060009054906101000a900460ff166114cd576040517f08c379a00000000000000000000000000000000000000000000000000000000081526004016114c49061282b565b60405180910390fd5b600073ffffffffffffffffffffffffffffffffffffffff168173ffffffffffffffffffffffffffffffffffffffff160361153c576040517f08c379a000000000000000000000000000000000000000000000000000000000815260040161153390612a1a565b60405180910390fd5b806000806101000a81548173ffffffffffffffffffffffffffffffffffffffff021916908373ffffffffffffffffffffffffffffffffffffffff16021790555060008054906101000a900473ffffffffffffffffffffffffffffffffffffffff16600160006101000a81548173ffffffffffffffffffffffffffffffffffffffff021916908373ffffffffffffffffffffffffffffffffffffffff160217905550600560009054906101000a900473ffffffffffffffffffffffffffffffffffffffff1673ffffffffffffffffffffffffffffffffffffffff1663dc38b0a2826040518263ffffffff1660e01b815260040161163891906125f2565b600060405180830381600087803b15801561165257600080fd5b505af1158015611666573d6000803e3d6000fd5b5050505050565b600073ffffffffffffffffffffffffffffffffffffffff168373ffffffffffffffffffffffffffffffffffffffff16141580156116d75750600073ffffffffffffffffffffffffffffffffffffffff168273ffffffffffffffffffffffffffffffffffffffff1614155b611716576040517f08c379a000000000000000000000000000000000000000000000000000000000815260040161170d90612a1a565b60405180910390fd5b60008103611759576040517f08c379a000000000000000000000000000000000000000000000000000000000815260040161175090612f31565b60405180910390fd5b600360009054906101000a900473ffffffffffffffffffffffffffffffffffffffff1673ffffffffffffffffffffffffffffffffffffffff166396d6aa308484846040518463ffffffff1660e01b81526004016117b893929190612f51565b600060405180830381600087803b1580156117d257600080fd5b505af11580156117e6573d6000803e3d6000fd5b50505050505050565b600660003373ffffffffffffffffffffffffffffffffffffffff1673ffffffffffffffffffffffffffffffffffffffff16815260200190815260200160002060009054906101000a900460ff1661187b576040517f08c379a00000000000000000000000000000000000000000000000000000000081526004016118729061282b565b60405180910390fd5b806000806101000a81548173ffffffffffffffffffffffffffffffffffffffff021916908373ffffffffffffffffffffffffffffffffffffffff16021790555080600160006101000a81548173ffffffffffffffffffffffffffffffffffffffff021916908373ffffffffffffffffffffffffffffffffffffffff160217905550600160009054906101000a900473ffffffffffffffffffffffffffffffffffffffff1673ffffffffffffffffffffffffffffffffffffffff16632274346b6040518163ffffffff1660e01b8152600401602060405180830381865afa158015611969573d6000803e3d6000fd5b505050506040513d601f19601f8201168201806040525081019061198d9190612f9d565b600260006101000a81548173ffffffffffffffffffffffffffffffffffffffff021916908373ffffffffffffffffffffffffffffffffffffffff160217905550600260009054906101000a900473ffffffffffffffffffffffffffffffffffffffff16600360006101000a81548173ffffffffffffffffffffffffffffffffffffffff021916908373ffffffffffffffffffffffffffffffffffffffff160217905550600160009054906101000a900473ffffffffffffffffffffffffffffffffffffffff1673ffffffffffffffffffffffffffffffffffffffff1663de11c94a6040518163ffffffff1660e01b8152600401602060405180830381865afa158015611a9d573d6000803e3d6000fd5b505050506040513d601f19601f82011682018060405250810190611ac191906128fb565b600460006101000a81548173ffffffffffffffffffffffffffffffffffffffff021916908373ffffffffffffffffffffffffffffffffffffffff160217905550600460009054906101000a900473ffffffffffffffffffffffffffffffffffffffff16600560006101000a81548173ffffffffffffffffffffffffffffffffffffffff021916908373ffffffffffffffffffffffffffffffffffffffff16021790555050565b600073ffffffffffffffffffffffffffffffffffffffff168673ffffffffffffffffffffffffffffffffffffffff1614158015611bd15750600073ffffffffffffffffffffffffffffffffffffffff168573ffffffffffffffffffffffffffffffffffffffff1614155b611c10576040517f08c379a0000000000000000000000000000000000000000000000000000000008152600401611c0790612a1a565b60405180910390fd5b60008484905003611c56576040517f08c379a0000000000000000000000000000000000000000000000000000000008152600401611c4d90612a86565b60405180910390fd5b611c6082826121ce565b611c9f576040517f08c379a0000000000000000000000000000000000000000000000000000000008152600401611c9690612b18565b60405180910390fd5b600360009054906101000a900473ffffffffffffffffffffffffffffffffffffffff1673ffffffffffffffffffffffffffffffffffffffff1663a8673dc6858585858a6040518663ffffffff1660e01b8152600401611d02959493929190612dfd565b600060405180830381600087803b158015611d1c57600080fd5b505af1158015611d30573d6000803e3d6000fd5b50505050600360009054906101000a900473ffffffffffffffffffffffffffffffffffffffff1673ffffffffffffffffffffffffffffffffffffffff166355d1ba33878785856040518563ffffffff1660e01b8152600401611d959493929190612fca565b600060405180830381600087803b158015611daf57600080fd5b505af1158015611dc3573d6000803e3d6000fd5b50505050505050505050565b600660003373ffffffffffffffffffffffffffffffffffffffff1673ffffffffffffffffffffffffffffffffffffffff16815260200190815260200160002060009054906101000a900460ff16611e5b576040517f08c379a0000000000000000000000000000000000000000000000000000000008152600401611e529061282b565b60405180910390fd5b600073ffffffffffffffffffffffffffffffffffffffff168173ffffffffffffffffffffffffffffffffffffffff1603611eca576040517f08c379a0000000000000000000000000000000000000000000000000000000008152600401611ec190612a1a565b60405180910390fd5b80600460006101000a81548173ffffffffffffffffffffffffffffffffffffffff021916908373ffffffffffffffffffffffffffffffffffffffff160217905550600460009054906101000a900473ffffffffffffffffffffffffffffffffffffffff16600560006101000a81548173ffffffffffffffffffffffffffffffffffffffff021916908373ffffffffffffffffffffffffffffffffffffffff160217905550600160009054906101000a900473ffffffffffffffffffffffffffffffffffffffff1673ffffffffffffffffffffffffffffffffffffffff1663d4241341826040518263ffffffff1660e01b8152600401611fc991906125f2565b600060405180830381600087803b158015611fe357600080fd5b505af1158015611ff7573d6000803e3d6000fd5b5050505050565b8073ffffffffffffffffffffffffffffffffffffffff1663095ea7b3306a084595161401484a0000006040518363ffffffff1660e01b815260040161204492919061304f565b6020604051808303816000875af1158015612063573d6000803e3d6000fd5b505050506040513d601f19601f8201168201806040525081019061208791906130a4565b508073ffffffffffffffffffffffffffffffffffffffff1663095ea7b3600260009054906101000a900473ffffffffffffffffffffffffffffffffffffffff166a084595161401484a0000006040518363ffffffff1660e01b81526004016120f0929190613126565b6020604051808303816000875af115801561210f573d6000803e3d6000fd5b505050506040513d601f19601f8201168201806040525081019061213391906130a4565b5050565b600080600090505b838390508110156121c257600073ffffffffffffffffffffffffffffffffffffffff1684848381811061217557612174612928565b5b905060200201602081019061218a9190612373565b73ffffffffffffffffffffffffffffffffffffffff16036121af5760009150506121c8565b80806121ba90612986565b91505061213f565b50600190505b92915050565b600080600090505b8383905081101561221f5760008484838181106121f6576121f5612928565b5b905060200201350361220c576000915050612225565b808061221790612986565b9150506121d6565b50600190505b92915050565b600081519050919050565b600082825260208201905092915050565b6000819050602082019050919050565b600073ffffffffffffffffffffffffffffffffffffffff82169050919050565b600061228282612257565b9050919050565b61229281612277565b82525050565b60006122a48383612289565b60208301905092915050565b6000602082019050919050565b60006122c88261222b565b6122d28185612236565b93506122dd83612247565b8060005b8381101561230e5781516122f58882612298565b9750612300836122b0565b9250506001810190506122e1565b5085935050505092915050565b6000602082019050818103600083015261233581846122bd565b905092915050565b600080fd5b600080fd5b61235081612277565b811461235b57600080fd5b50565b60008135905061236d81612347565b92915050565b6000602082840312156123895761238861233d565b5b60006123978482850161235e565b91505092915050565b60008115159050919050565b6123b5816123a0565b82525050565b60006020820190506123d060008301846123ac565b92915050565b600080fd5b600080fd5b600080fd5b60008083601f8401126123fb576123fa6123d6565b5b8235905067ffffffffffffffff811115612418576124176123db565b5b602083019150836020820283011115612434576124336123e0565b5b9250929050565b60008083601f840112612451576124506123d6565b5b8235905067ffffffffffffffff81111561246e5761246d6123db565b5b60208301915083602082028301111561248a576124896123e0565b5b9250929050565b60008083601f8401126124a7576124a66123d6565b5b8235905067ffffffffffffffff8111156124c4576124c36123db565b5b6020830191508360018202830111156124e0576124df6123e0565b5b9250929050565b600080600080600080600080600060a08a8c0312156125095761250861233d565b5b60006125178c828d0161235e565b99505060208a013567ffffffffffffffff81111561253857612537612342565b5b6125448c828d016123e5565b985098505060408a013567ffffffffffffffff81111561256757612566612342565b5b6125738c828d0161243b565b965096505060608a013567ffffffffffffffff81111561259657612595612342565b5b6125a28c828d01612491565b945094505060808a013567ffffffffffffffff8111156125c5576125c4612342565b5b6125d18c828d01612491565b92509250509295985092959850929598565b6125ec81612277565b82525050565b600060208201905061260760008301846125e3565b92915050565b600061261882612257565b9050919050565b6126288161260d565b811461263357600080fd5b50565b6000813590506126458161261f565b92915050565b6000602082840312156126615761266061233d565b5b600061266f84828501612636565b91505092915050565b6000819050919050565b61268b81612678565b811461269657600080fd5b50565b6000813590506126a881612682565b92915050565b6000806000606084860312156126c7576126c661233d565b5b60006126d58682870161235e565b93505060206126e68682870161235e565b92505060406126f786828701612699565b9150509250925092565b6000806000806000806080878903121561271e5761271d61233d565b5b600061272c89828a0161235e565b965050602061273d89828a0161235e565b955050604087013567ffffffffffffffff81111561275e5761275d612342565b5b61276a89828a016123e5565b9450945050606087013567ffffffffffffffff81111561278d5761278c612342565b5b61279989828a0161243b565b92509250509295509295509295565b600082825260208201905092915050565b7f4d617374657220436f6e7472616374202d204f6e6c792041646d696e7320636160008201527f6e206578656375746520746869732066756e6374696f6e000000000000000000602082015250565b60006128156037836127a8565b9150612820826127b9565b604082019050919050565b6000602082019050818103600083015261284481612808565b9050919050565b60008151905061285a81612682565b92915050565b6000602082840312156128765761287561233d565b5b60006128848482850161284b565b91505092915050565b7f4e487b7100000000000000000000000000000000000000000000000000000000600052604160045260246000fd5b6128c581612678565b82525050565b60006020820190506128e060008301846128bc565b92915050565b6000815190506128f581612347565b92915050565b6000602082840312156129115761291061233d565b5b600061291f848285016128e6565b91505092915050565b7f4e487b7100000000000000000000000000000000000000000000000000000000600052603260045260246000fd5b7f4e487b7100000000000000000000000000000000000000000000000000000000600052601160045260246000fd5b600061299182612678565b91507fffffffffffffffffffffffffffffffffffffffffffffffffffffffffffffffff82036129c3576129c2612957565b5b600182019050919050565b7f4164647265737320617267732063616e6e6f74206265206e756c6c0000000000600082015250565b6000612a04601b836127a8565b9150612a0f826129ce565b602082019050919050565b60006020820190508181036000830152612a33816129f7565b9050919050565b7f417272617920617267732063616e6e6f74206265206e756c6c2f656d70747900600082015250565b6000612a70601f836127a8565b9150612a7b82612a3a565b602082019050919050565b60006020820190508181036000830152612a9f81612a63565b9050919050565b7f436f6c6c61746572616c2061727261792063616e6e6f74206861766520616e2060008201527f656d70747920746f6b656e000000000000000000000000000000000000000000602082015250565b6000612b02602b836127a8565b9150612b0d82612aa6565b604082019050919050565b60006020820190508181036000830152612b3181612af5565b9050919050565b7f5175616e7469746965732061727261792063616e6e6f74206861766520616e2060008201527f656d70747920746f6b656e000000000000000000000000000000000000000000602082015250565b6000612b94602b836127a8565b9150612b9f82612b38565b604082019050919050565b60006020820190508181036000830152612bc381612b87565b9050919050565b82818337600083830152505050565b6000601f19601f8301169050919050565b6000612bf683856127a8565b9350612c03838584612bca565b612c0c83612bd9565b840190509392505050565b60006060820190508181036000830152612c32818789612bea565b90508181036020830152612c47818587612bea565b9050612c5660408301846125e3565b9695505050505050565b6000819050919050565b6000612c79602084018461235e565b905092915050565b6000602082019050919050565b6000612c9a8385612236565b9350612ca582612c60565b8060005b85811015612cde57612cbb8284612c6a565b612cc58882612298565b9750612cd083612c81565b925050600181019050612ca9565b5085925050509392505050565b600082825260208201905092915050565b600080fd5b6000612d0d8385612ceb565b93507f07ffffffffffffffffffffffffffffffffffffffffffffffffffffffffffffff831115612d4057612d3f612cfc565b5b602083029250612d51838584612bca565b82840190509392505050565b6000608082019050612d7260008301896125e3565b612d7f60208301886125e3565b8181036040830152612d92818688612c8e565b90508181036060830152612da7818486612d01565b9050979650505050505050565b6000606082019050612dc960008301886125e3565b8181036020830152612ddc818688612c8e565b90508181036040830152612df1818486612d01565b90509695505050505050565b60006060820190508181036000830152612e18818789612c8e565b90508181036020830152612e2d818587612d01565b9050612e3c60408301846125e3565b9695505050505050565b6000604082019050612e5b60008301856125e3565b612e6860208301846125e3565b9392505050565b612e788161260d565b82525050565b6000602082019050612e936000830184612e6f565b92915050565b7f43616e6e6f742072656465656d206e6f6e6520696e6465782e204d617962652060008201527f796f752073656e7420646563696d616c7320776974686f7574207472616e736660208201527f6f726d696e673f00000000000000000000000000000000000000000000000000604082015250565b6000612f1b6047836127a8565b9150612f2682612e99565b606082019050919050565b60006020820190508181036000830152612f4a81612f0e565b9050919050565b6000606082019050612f6660008301866125e3565b612f7360208301856125e3565b612f8060408301846128bc565b949350505050565b600081519050612f978161261f565b92915050565b600060208284031215612fb357612fb261233d565b5b6000612fc184828501612f88565b91505092915050565b6000606082019050612fdf60008301876125e3565b612fec60208301866125e3565b8181036040830152612fff818486612d01565b905095945050505050565b6000819050919050565b6000819050919050565b600061303961303461302f8461300a565b613014565b612678565b9050919050565b6130498161301e565b82525050565b600060408201905061306460008301856125e3565b6130716020830184613040565b9392505050565b613081816123a0565b811461308c57600080fd5b50565b60008151905061309e81613078565b92915050565b6000602082840312156130ba576130b961233d565b5b60006130c88482850161308f565b91505092915050565b60006130ec6130e76130e284612257565b613014565b612257565b9050919050565b60006130fe826130d1565b9050919050565b6000613110826130f3565b9050919050565b61312081613105565b82525050565b600060408201905061313b6000830185613117565b6131486020830184613040565b939250505056fea264697066735822122093437695d97964ae6af66b365735b8d680f25b98d11c3f53476bac2b14618b2b64736f6c634300080d0033",
  "immutableReferences": {},
  "source": "// SPDX-License-Identifier: GPL-3.0\npragma solidity >=0.8.13;\n\nimport {FactoryContract} from \"./FactoryContract.sol\";\nimport {VaultContract} from \"./VaultContract.sol\";\nimport {StorageContract} from \"./StorageContract.sol\";\nimport \"@openzeppelin/contracts/token/ERC20/ERC20.sol\";\n\n\ncontract MasterTools{\n    function checkEmptyInAddressArray(address[] calldata addressArray) internal pure returns(bool empty){\n        for(uint i=0; i<addressArray.length;i++){\n            if(addressArray[i]==address(0x0)){\n                return false;\n            }\n        }\n        return true;\n    }\n    function checkEmptyInUintArray(uint256[] calldata addressArray) internal pure returns(bool empty){\n    for(uint i=0; i<addressArray.length;i++){\n        if(addressArray[i]== 0){\n            return false;\n        }\n    }\n    return true;\n    }\n}\n\ncontract MasterContract is MasterTools{\n\n    address storageContract;\n    StorageContract storageContractInstance;\n    address payable vaultContract;\n    VaultContract vaultContractInstance;\n    address factoryContract;\n    FactoryContract factoryContractInstance;\n\n    event IndexCreated(\n        address indexed index_address\n    );\n    \n    mapping (address=>bool) public isAdmin;\n\n    constructor(){\n        isAdmin[msg.sender] = true;\n    }\n\n    modifier onlyAdmins(){\n        require(isAdmin[msg.sender],\"Master Contract - Only Admins can execute this function\");\n        _;\n    }\n\n    function initMasterContract(address _storageContract) external onlyAdmins{\n        // We load the addresses of the rest of the contracts\n        storageContract = _storageContract;\n        storageContractInstance = StorageContract(_storageContract);\n\n        vaultContract = storageContractInstance.vaultContract();\n        vaultContractInstance = VaultContract(vaultContract);\n\n        factoryContract = storageContractInstance.factoryContract();\n        factoryContractInstance = FactoryContract(factoryContract);\n    }\n\n    function addAdmin(address _admin) external onlyAdmins{\n        require(_admin != address(0x0),\"Address args cannot be null\");\n        isAdmin[_admin] = true;\n\n        storageContractInstance.addAdmin(_admin);\n    }\n\n    function removeAdmin(address _admin) external onlyAdmins{\n        require(_admin != address(0x0),\"Address args cannot be null\");\n        isAdmin[_admin] = false;\n    }\n\n    // Updaters\n\n    function updateStorageContract (address _storageContract) external onlyAdmins{\n        require(_storageContract != address(0x0),\"Address args cannot be null\");\n        storageContract = _storageContract;\n        storageContractInstance = StorageContract(storageContract);\n        factoryContractInstance.setStorageContract(_storageContract);\n    }\n\n    function updateFactoryContract (address _factoryContract) external onlyAdmins{\n        require(_factoryContract != address(0x0),\"Address args cannot be null\");\n        factoryContract = _factoryContract;\n        factoryContractInstance = FactoryContract(factoryContract);\n        storageContractInstance.setFactoryContract(_factoryContract);\n    }    \n    \n    function updateVaultContract (address payable _vaultContract) external onlyAdmins{\n        require(_vaultContract != address(0x0),\"Address args cannot be null\");\n        vaultContract = _vaultContract;\n        vaultContractInstance = VaultContract(vaultContract);\n        storageContractInstance.setVaultContract(_vaultContract);\n    }\n\n    function setMasterContract(address _masterContract) external onlyAdmins{\n        require(_masterContract != address(0x0),\"Address args cannot be null\");\n\n        storageContractInstance.setMasterContract(_masterContract);\n\n        vaultContractInstance.setMasterContract();\n        factoryContractInstance.setMasterContract();\n    }\n\n    // Interacting specifically with the Vault\n\n    function mint_index(address _index, address receiver, address[] calldata _collateral, uint256[] calldata _quantities) external{\n        require((_index != address(0x0))&&(receiver != address(0x0)),\"Address args cannot be null\");\n        require(_collateral.length!=0,\"Array args cannot be null/empty\");\n        require(checkEmptyInUintArray(_quantities),\"Collateral array cannot have an empty token\");\n\n        vaultContractInstance.receive_collateral(_collateral, _quantities,receiver);\n        vaultContractInstance.mint_index(_index, receiver, _quantities);       \n    }\n\n    function redeem_index(address _index, address receiver, uint index_amount_to_redeem) external{\n        require((_index != address(0x0))&&(receiver != address(0x0)),\"Address args cannot be null\");\n        require(index_amount_to_redeem != 0 , \"Cannot redeem none index. Maybe you sent decimals without transforming?\");\n\n        vaultContractInstance.redeem_index(_index, receiver, index_amount_to_redeem); \n    }\n\n    // Interacting specifically with the Storage\n\n    function getIndexCreator(address _index) public view onlyAdmins returns(address creator) {\n        require(_index != address(0x0),\"Address args cannot be null\");\n        return storageContractInstance.getIndexCreator(_index);\n    }\n\n    function getAllIndexCreators() external view onlyAdmins returns(address[] memory){\n        uint length = storageContractInstance.getIndicesLength();\n        address[] memory _array = new address[](length);\n        for (uint index = 0; index < length; index++) {\n            _array[index] = storageContractInstance.indices(index);\n        }\n        return _array;\n    }\n\n    // Bulk interactions\n\n    function create_index(address _creator, address[] calldata _collateral, uint256[] calldata _quantities, string calldata name, string calldata symbol) external returns (address new_index){\n        require(_creator != address(0x0),\"Address args cannot be null\");\n        \n        require((_collateral.length!=0)&&(_quantities.length!=0),\"Array args cannot be null/empty\");\n        require(checkEmptyInAddressArray(_collateral),\"Collateral array cannot have an empty token\");\n        require(checkEmptyInUintArray(_quantities),\"Quantities array cannot have an empty token\");\n\n        new_index = factoryContractInstance.createIndex(name, symbol, _creator);\n        \n        storageContractInstance.addNewIndex(new_index, _creator, _collateral, _quantities);\n        vaultContractInstance.register_index(new_index,  _collateral, _quantities);\n        vaultContractInstance.receive_collateral(_collateral, _quantities,_creator);\n        vaultContractInstance.approve(new_index, _creator);\n\n        emit IndexCreated(new_index);\n    }\n\n    function approve(address _token) external{\n        ERC20(_token).approve(address(this), 10000000*10**18);\n        ERC20(_token).approve(vaultContract, 10000000*10**18);\n    }\n\n    receive() external payable{\n\n    }\n}",
  "sourcePath": "/home/yildirim/TFM-DeFi/contracts/MasterContract.sol",
  "compiler": {
    "name": "solc",
    "version": "0.8.13+commit.abaa5c0e.Emscripten.clang"
  },
  "schemaVersion": "3.4.7",
  "updatedAt": "2022-07-09T20:16:26.206Z",
  "networkType": "ethereum",
  "devdoc": {
    "kind": "dev",
    "methods": {},
    "version": 1
  },
  "userdoc": {
    "kind": "user",
    "methods": {},
    "version": 1
  }
}