{
  "contractName": "MasterContract",
  "abi": [
    {
      "inputs": [],
      "stateMutability": "nonpayable",
      "type": "constructor"
    },
    {
      "inputs": [],
      "name": "factoryContract",
      "outputs": [
        {
          "internalType": "address",
          "name": "",
          "type": "address"
        }
      ],
      "stateMutability": "view",
      "type": "function",
      "constant": true
    },
    {
      "inputs": [],
      "name": "storageContract",
      "outputs": [
        {
          "internalType": "address",
          "name": "",
          "type": "address"
        }
      ],
      "stateMutability": "view",
      "type": "function",
      "constant": true
    },
    {
      "inputs": [],
      "name": "vaultContract",
      "outputs": [
        {
          "internalType": "address",
          "name": "",
          "type": "address"
        }
      ],
      "stateMutability": "view",
      "type": "function",
      "constant": true
    },
    {
      "inputs": [
        {
          "internalType": "address",
          "name": "_storageContract",
          "type": "address"
        }
      ],
      "name": "initMasterContract",
      "outputs": [],
      "stateMutability": "nonpayable",
      "type": "function"
    },
    {
      "inputs": [
        {
          "internalType": "address",
          "name": "_admin",
          "type": "address"
        }
      ],
      "name": "addAdmin",
      "outputs": [],
      "stateMutability": "nonpayable",
      "type": "function"
    },
    {
      "inputs": [
        {
          "internalType": "address",
          "name": "_admin",
          "type": "address"
        }
      ],
      "name": "removeAdmin",
      "outputs": [],
      "stateMutability": "nonpayable",
      "type": "function"
    },
    {
      "inputs": [
        {
          "internalType": "address",
          "name": "_storageContract",
          "type": "address"
        }
      ],
      "name": "updateStorageContract",
      "outputs": [],
      "stateMutability": "nonpayable",
      "type": "function"
    },
    {
      "inputs": [
        {
          "internalType": "address",
          "name": "_factoryContract",
          "type": "address"
        }
      ],
      "name": "updateFactoryContract",
      "outputs": [],
      "stateMutability": "nonpayable",
      "type": "function"
    },
    {
      "inputs": [
        {
          "internalType": "address",
          "name": "_vaultContract",
          "type": "address"
        }
      ],
      "name": "updateVaultContract",
      "outputs": [],
      "stateMutability": "nonpayable",
      "type": "function"
    },
    {
      "inputs": [
        {
          "internalType": "address",
          "name": "_masterContract",
          "type": "address"
        }
      ],
      "name": "setMasterContract",
      "outputs": [],
      "stateMutability": "nonpayable",
      "type": "function"
    },
    {
      "inputs": [
        {
          "internalType": "address",
          "name": "_index",
          "type": "address"
        },
        {
          "internalType": "address",
          "name": "receiver",
          "type": "address"
        },
        {
          "internalType": "uint256[]",
          "name": "_collateral",
          "type": "uint256[]"
        }
      ],
      "name": "mint_index",
      "outputs": [
        {
          "internalType": "bool",
          "name": "result",
          "type": "bool"
        }
      ],
      "stateMutability": "nonpayable",
      "type": "function"
    },
    {
      "inputs": [
        {
          "internalType": "address",
          "name": "_index",
          "type": "address"
        },
        {
          "internalType": "address",
          "name": "receiver",
          "type": "address"
        },
        {
          "internalType": "uint256",
          "name": "index_amount_to_redeem",
          "type": "uint256"
        }
      ],
      "name": "redeem_index",
      "outputs": [],
      "stateMutability": "nonpayable",
      "type": "function"
    },
    {
      "inputs": [
        {
          "internalType": "address",
          "name": "_index",
          "type": "address"
        }
      ],
      "name": "getIndexCreator",
      "outputs": [
        {
          "internalType": "address",
          "name": "creator",
          "type": "address"
        }
      ],
      "stateMutability": "view",
      "type": "function",
      "constant": true
    },
    {
      "inputs": [],
      "name": "getAllIndexCreators",
      "outputs": [
        {
          "internalType": "address[]",
          "name": "_array",
          "type": "address[]"
        }
      ],
      "stateMutability": "view",
      "type": "function",
      "constant": true
    },
    {
      "inputs": [
        {
          "internalType": "address",
          "name": "_creator",
          "type": "address"
        },
        {
          "internalType": "address[]",
          "name": "_collateral",
          "type": "address[]"
        },
        {
          "internalType": "uint256[]",
          "name": "_quantities",
          "type": "uint256[]"
        },
        {
          "internalType": "string",
          "name": "name",
          "type": "string"
        },
        {
          "internalType": "string",
          "name": "symbol",
          "type": "string"
        }
      ],
      "name": "create_index",
      "outputs": [
        {
          "internalType": "address",
          "name": "_index",
          "type": "address"
        }
      ],
      "stateMutability": "nonpayable",
      "type": "function"
    }
  ],
  "bytecode": "0x608060405234801561001057600080fd5b506001600660003373ffffffffffffffffffffffffffffffffffffffff1673ffffffffffffffffffffffffffffffffffffffff16815260200190815260200160002060006101000a81548160ff0219169083151502179055506127b1806100786000396000f3fe608060405234801561001057600080fd5b50600436106100f55760003560e01c806355d1ba331161009757806396d6aa301161006657806396d6aa3014610270578063a00ea8771461028c578063c2fb538e146102a8578063de11c94a146102c4576100f5565b806355d1ba33146101d857806356666e241461020857806370480275146102385780638fb6d99714610254576100f5565b80632274346b116100d35780632274346b146101525780632a3a236f1461017057806337848f001461018c57806347d666a3146101bc576100f5565b80630ca2d23f146100fa57806311ce0267146101185780631785f53c14610136575b600080fd5b6101026102e2565b60405161010f9190611d09565b60405180910390f35b610120610511565b60405161012d9190611d3a565b60405180910390f35b610150600480360381019061014b9190611d8b565b610535565b005b61015a61068b565b6040516101679190611d3a565b60405180910390f35b61018a60048036038101906101859190611d8b565b6106b1565b005b6101a660048036038101906101a19190611ec9565b610956565b6040516101b39190611d3a565b60405180910390f35b6101d660048036038101906101d19190611d8b565b610b64565b005b6101f260048036038101906101ed9190611fc5565b610d30565b6040516101ff9190612054565b60405180910390f35b610222600480360381019061021d9190611d8b565b610f17565b60405161022f9190611d3a565b60405180910390f35b610252600480360381019061024d9190611d8b565b6110b7565b005b61026e60048036038101906102699190611d8b565b61129a565b005b61028a600480360381019061028591906120a5565b611439565b005b6102a660048036038101906102a19190611d8b565b6115bb565b005b6102c260048036038101906102bd9190611d8b565b611933565b005b6102cc611aff565b6040516102d99190611d3a565b60405180910390f35b6060600660003373ffffffffffffffffffffffffffffffffffffffff1673ffffffffffffffffffffffffffffffffffffffff16815260200190815260200160002060009054906101000a900460ff16610370576040517f08c379a00000000000000000000000000000000000000000000000000000000081526004016103679061217b565b60405180910390fd5b6000600160009054906101000a900473ffffffffffffffffffffffffffffffffffffffff1673ffffffffffffffffffffffffffffffffffffffff1663c099ab936040518163ffffffff1660e01b8152600401602060405180830381865afa1580156103df573d6000803e3d6000fd5b505050506040513d601f19601f8201168201806040525081019061040391906121b0565b905060005b8181101561050c57600160009054906101000a900473ffffffffffffffffffffffffffffffffffffffff1673ffffffffffffffffffffffffffffffffffffffff1663a1a953fd826040518263ffffffff1660e01b815260040161046b91906121ec565b602060405180830381865afa158015610488573d6000803e3d6000fd5b505050506040513d601f19601f820116820180604052508101906104ac919061221c565b8382815181106104bf576104be612249565b5b602002602001019073ffffffffffffffffffffffffffffffffffffffff16908173ffffffffffffffffffffffffffffffffffffffff16815250508080610504906122a7565b915050610408565b505090565b60008054906101000a900473ffffffffffffffffffffffffffffffffffffffff1681565b600660003373ffffffffffffffffffffffffffffffffffffffff1673ffffffffffffffffffffffffffffffffffffffff16815260200190815260200160002060009054906101000a900460ff166105c1576040517f08c379a00000000000000000000000000000000000000000000000000000000081526004016105b89061217b565b60405180910390fd5b600073ffffffffffffffffffffffffffffffffffffffff168173ffffffffffffffffffffffffffffffffffffffff1603610630576040517f08c379a00000000000000000000000000000000000000000000000000000000081526004016106279061233b565b60405180910390fd5b6000600660008373ffffffffffffffffffffffffffffffffffffffff1673ffffffffffffffffffffffffffffffffffffffff16815260200190815260200160002060006101000a81548160ff02191690831515021790555050565b600260009054906101000a900473ffffffffffffffffffffffffffffffffffffffff1681565b600660003373ffffffffffffffffffffffffffffffffffffffff1673ffffffffffffffffffffffffffffffffffffffff16815260200190815260200160002060009054906101000a900460ff1661073d576040517f08c379a00000000000000000000000000000000000000000000000000000000081526004016107349061217b565b60405180910390fd5b600073ffffffffffffffffffffffffffffffffffffffff168173ffffffffffffffffffffffffffffffffffffffff16036107ac576040517f08c379a00000000000000000000000000000000000000000000000000000000081526004016107a39061233b565b60405180910390fd5b600360009054906101000a900473ffffffffffffffffffffffffffffffffffffffff1673ffffffffffffffffffffffffffffffffffffffff16632a3a236f826040518263ffffffff1660e01b81526004016108079190611d3a565b600060405180830381600087803b15801561082157600080fd5b505af1158015610835573d6000803e3d6000fd5b50505050600160009054906101000a900473ffffffffffffffffffffffffffffffffffffffff1673ffffffffffffffffffffffffffffffffffffffff16632a3a236f826040518263ffffffff1660e01b81526004016108949190611d3a565b600060405180830381600087803b1580156108ae57600080fd5b505af11580156108c2573d6000803e3d6000fd5b50505050600560009054906101000a900473ffffffffffffffffffffffffffffffffffffffff1673ffffffffffffffffffffffffffffffffffffffff16632a3a236f826040518263ffffffff1660e01b81526004016109219190611d3a565b600060405180830381600087803b15801561093b57600080fd5b505af115801561094f573d6000803e3d6000fd5b5050505050565b60008073ffffffffffffffffffffffffffffffffffffffff168a73ffffffffffffffffffffffffffffffffffffffff16036109c6576040517f08c379a00000000000000000000000000000000000000000000000000000000081526004016109bd9061233b565b60405180910390fd5b600089899050141580156109de575060008787905014155b610a1d576040517f08c379a0000000000000000000000000000000000000000000000000000000008152600401610a14906123a7565b60405180910390fd5b610a278989611b25565b610a66576040517f08c379a0000000000000000000000000000000000000000000000000000000008152600401610a5d90612439565b60405180910390fd5b610a708787611bbc565b610aaf576040517f08c379a0000000000000000000000000000000000000000000000000000000008152600401610aa6906124cb565b60405180910390fd5b600560009054906101000a900473ffffffffffffffffffffffffffffffffffffffff1673ffffffffffffffffffffffffffffffffffffffff1663a8a36d91868686868f6040518663ffffffff1660e01b8152600401610b12959493929190612538565b6020604051808303816000875af1158015610b31573d6000803e3d6000fd5b505050506040513d601f19601f82011682018060405250810190610b55919061221c565b90509998505050505050505050565b600660003373ffffffffffffffffffffffffffffffffffffffff1673ffffffffffffffffffffffffffffffffffffffff16815260200190815260200160002060009054906101000a900460ff16610bf0576040517f08c379a0000000000000000000000000000000000000000000000000000000008152600401610be79061217b565b60405180910390fd5b600073ffffffffffffffffffffffffffffffffffffffff168173ffffffffffffffffffffffffffffffffffffffff1603610c5f576040517f08c379a0000000000000000000000000000000000000000000000000000000008152600401610c569061233b565b60405180910390fd5b80600260006101000a81548173ffffffffffffffffffffffffffffffffffffffff021916908373ffffffffffffffffffffffffffffffffffffffff160217905550600160009054906101000a900473ffffffffffffffffffffffffffffffffffffffff1673ffffffffffffffffffffffffffffffffffffffff166396f4ada6826040518263ffffffff1660e01b8152600401610cfb9190611d3a565b600060405180830381600087803b158015610d1557600080fd5b505af1158015610d29573d6000803e3d6000fd5b5050505050565b60008073ffffffffffffffffffffffffffffffffffffffff168573ffffffffffffffffffffffffffffffffffffffff1614158015610d9b5750600073ffffffffffffffffffffffffffffffffffffffff168473ffffffffffffffffffffffffffffffffffffffff1614155b610dda576040517f08c379a0000000000000000000000000000000000000000000000000000000008152600401610dd19061233b565b60405180910390fd5b60008383905003610e20576040517f08c379a0000000000000000000000000000000000000000000000000000000008152600401610e17906123a7565b60405180910390fd5b610e2a8383611bbc565b610e69576040517f08c379a0000000000000000000000000000000000000000000000000000000008152600401610e6090612439565b60405180910390fd5b600360009054906101000a900473ffffffffffffffffffffffffffffffffffffffff1673ffffffffffffffffffffffffffffffffffffffff166355d1ba33868686866040518563ffffffff1660e01b8152600401610eca94939291906125f3565b6020604051808303816000875af1158015610ee9573d6000803e3d6000fd5b505050506040513d601f19601f82011682018060405250810190610f0d919061265f565b9050949350505050565b6000600660003373ffffffffffffffffffffffffffffffffffffffff1673ffffffffffffffffffffffffffffffffffffffff16815260200190815260200160002060009054906101000a900460ff16610fa5576040517f08c379a0000000000000000000000000000000000000000000000000000000008152600401610f9c9061217b565b60405180910390fd5b600073ffffffffffffffffffffffffffffffffffffffff168273ffffffffffffffffffffffffffffffffffffffff1603611014576040517f08c379a000000000000000000000000000000000000000000000000000000000815260040161100b9061233b565b60405180910390fd5b600160009054906101000a900473ffffffffffffffffffffffffffffffffffffffff1673ffffffffffffffffffffffffffffffffffffffff166356666e24836040518263ffffffff1660e01b815260040161106f9190611d3a565b602060405180830381865afa15801561108c573d6000803e3d6000fd5b505050506040513d601f19601f820116820180604052508101906110b0919061221c565b9050919050565b600660003373ffffffffffffffffffffffffffffffffffffffff1673ffffffffffffffffffffffffffffffffffffffff16815260200190815260200160002060009054906101000a900460ff16611143576040517f08c379a000000000000000000000000000000000000000000000000000000000815260040161113a9061217b565b60405180910390fd5b600073ffffffffffffffffffffffffffffffffffffffff168173ffffffffffffffffffffffffffffffffffffffff16036111b2576040517f08c379a00000000000000000000000000000000000000000000000000000000081526004016111a99061233b565b60405180910390fd5b6001600660008373ffffffffffffffffffffffffffffffffffffffff1673ffffffffffffffffffffffffffffffffffffffff16815260200190815260200160002060006101000a81548160ff021916908315150217905550600160009054906101000a900473ffffffffffffffffffffffffffffffffffffffff1673ffffffffffffffffffffffffffffffffffffffff166370480275826040518263ffffffff1660e01b81526004016112659190611d3a565b600060405180830381600087803b15801561127f57600080fd5b505af1158015611293573d6000803e3d6000fd5b5050505050565b600660003373ffffffffffffffffffffffffffffffffffffffff1673ffffffffffffffffffffffffffffffffffffffff16815260200190815260200160002060009054906101000a900460ff16611326576040517f08c379a000000000000000000000000000000000000000000000000000000000815260040161131d9061217b565b60405180910390fd5b600073ffffffffffffffffffffffffffffffffffffffff168173ffffffffffffffffffffffffffffffffffffffff1603611395576040517f08c379a000000000000000000000000000000000000000000000000000000000815260040161138c9061233b565b60405180910390fd5b806000806101000a81548173ffffffffffffffffffffffffffffffffffffffff021916908373ffffffffffffffffffffffffffffffffffffffff16021790555060008054906101000a900473ffffffffffffffffffffffffffffffffffffffff16600160006101000a81548173ffffffffffffffffffffffffffffffffffffffff021916908373ffffffffffffffffffffffffffffffffffffffff16021790555050565b600073ffffffffffffffffffffffffffffffffffffffff168373ffffffffffffffffffffffffffffffffffffffff16141580156114a35750600073ffffffffffffffffffffffffffffffffffffffff168273ffffffffffffffffffffffffffffffffffffffff1614155b6114e2576040517f08c379a00000000000000000000000000000000000000000000000000000000081526004016114d99061233b565b60405180910390fd5b60008103611525576040517f08c379a000000000000000000000000000000000000000000000000000000000815260040161151c90612724565b60405180910390fd5b600360009054906101000a900473ffffffffffffffffffffffffffffffffffffffff1673ffffffffffffffffffffffffffffffffffffffff166396d6aa308484846040518463ffffffff1660e01b815260040161158493929190612744565b600060405180830381600087803b15801561159e57600080fd5b505af11580156115b2573d6000803e3d6000fd5b50505050505050565b600660003373ffffffffffffffffffffffffffffffffffffffff1673ffffffffffffffffffffffffffffffffffffffff16815260200190815260200160002060009054906101000a900460ff16611647576040517f08c379a000000000000000000000000000000000000000000000000000000000815260040161163e9061217b565b60405180910390fd5b806000806101000a81548173ffffffffffffffffffffffffffffffffffffffff021916908373ffffffffffffffffffffffffffffffffffffffff16021790555080600160006101000a81548173ffffffffffffffffffffffffffffffffffffffff021916908373ffffffffffffffffffffffffffffffffffffffff160217905550600160009054906101000a900473ffffffffffffffffffffffffffffffffffffffff1673ffffffffffffffffffffffffffffffffffffffff16632274346b6040518163ffffffff1660e01b8152600401602060405180830381865afa158015611735573d6000803e3d6000fd5b505050506040513d601f19601f82011682018060405250810190611759919061221c565b600260006101000a81548173ffffffffffffffffffffffffffffffffffffffff021916908373ffffffffffffffffffffffffffffffffffffffff160217905550600260009054906101000a900473ffffffffffffffffffffffffffffffffffffffff16600360006101000a81548173ffffffffffffffffffffffffffffffffffffffff021916908373ffffffffffffffffffffffffffffffffffffffff160217905550600160009054906101000a900473ffffffffffffffffffffffffffffffffffffffff1673ffffffffffffffffffffffffffffffffffffffff1663de11c94a6040518163ffffffff1660e01b8152600401602060405180830381865afa158015611869573d6000803e3d6000fd5b505050506040513d601f19601f8201168201806040525081019061188d919061221c565b600460006101000a81548173ffffffffffffffffffffffffffffffffffffffff021916908373ffffffffffffffffffffffffffffffffffffffff160217905550600460009054906101000a900473ffffffffffffffffffffffffffffffffffffffff16600560006101000a81548173ffffffffffffffffffffffffffffffffffffffff021916908373ffffffffffffffffffffffffffffffffffffffff16021790555050565b600660003373ffffffffffffffffffffffffffffffffffffffff1673ffffffffffffffffffffffffffffffffffffffff16815260200190815260200160002060009054906101000a900460ff166119bf576040517f08c379a00000000000000000000000000000000000000000000000000000000081526004016119b69061217b565b60405180910390fd5b600073ffffffffffffffffffffffffffffffffffffffff168173ffffffffffffffffffffffffffffffffffffffff1603611a2e576040517f08c379a0000000000000000000000000000000000000000000000000000000008152600401611a259061233b565b60405180910390fd5b80600460006101000a81548173ffffffffffffffffffffffffffffffffffffffff021916908373ffffffffffffffffffffffffffffffffffffffff160217905550600160009054906101000a900473ffffffffffffffffffffffffffffffffffffffff1673ffffffffffffffffffffffffffffffffffffffff1663d4241341826040518263ffffffff1660e01b8152600401611aca9190611d3a565b600060405180830381600087803b158015611ae457600080fd5b505af1158015611af8573d6000803e3d6000fd5b5050505050565b600460009054906101000a900473ffffffffffffffffffffffffffffffffffffffff1681565b600080600090505b83839050811015611bb057600073ffffffffffffffffffffffffffffffffffffffff16848483818110611b6357611b62612249565b5b9050602002016020810190611b789190611d8b565b73ffffffffffffffffffffffffffffffffffffffff1603611b9d576000915050611bb6565b8080611ba8906122a7565b915050611b2d565b50600190505b92915050565b600080600090505b83839050811015611c0d576000848483818110611be457611be3612249565b5b9050602002013503611bfa576000915050611c13565b8080611c05906122a7565b915050611bc4565b50600190505b92915050565b600081519050919050565b600082825260208201905092915050565b6000819050602082019050919050565b600073ffffffffffffffffffffffffffffffffffffffff82169050919050565b6000611c7082611c45565b9050919050565b611c8081611c65565b82525050565b6000611c928383611c77565b60208301905092915050565b6000602082019050919050565b6000611cb682611c19565b611cc08185611c24565b9350611ccb83611c35565b8060005b83811015611cfc578151611ce38882611c86565b9750611cee83611c9e565b925050600181019050611ccf565b5085935050505092915050565b60006020820190508181036000830152611d238184611cab565b905092915050565b611d3481611c65565b82525050565b6000602082019050611d4f6000830184611d2b565b92915050565b600080fd5b600080fd5b611d6881611c65565b8114611d7357600080fd5b50565b600081359050611d8581611d5f565b92915050565b600060208284031215611da157611da0611d55565b5b6000611daf84828501611d76565b91505092915050565b600080fd5b600080fd5b600080fd5b60008083601f840112611ddd57611ddc611db8565b5b8235905067ffffffffffffffff811115611dfa57611df9611dbd565b5b602083019150836020820283011115611e1657611e15611dc2565b5b9250929050565b60008083601f840112611e3357611e32611db8565b5b8235905067ffffffffffffffff811115611e5057611e4f611dbd565b5b602083019150836020820283011115611e6c57611e6b611dc2565b5b9250929050565b60008083601f840112611e8957611e88611db8565b5b8235905067ffffffffffffffff811115611ea657611ea5611dbd565b5b602083019150836001820283011115611ec257611ec1611dc2565b5b9250929050565b600080600080600080600080600060a08a8c031215611eeb57611eea611d55565b5b6000611ef98c828d01611d76565b99505060208a013567ffffffffffffffff811115611f1a57611f19611d5a565b5b611f268c828d01611dc7565b985098505060408a013567ffffffffffffffff811115611f4957611f48611d5a565b5b611f558c828d01611e1d565b965096505060608a013567ffffffffffffffff811115611f7857611f77611d5a565b5b611f848c828d01611e73565b945094505060808a013567ffffffffffffffff811115611fa757611fa6611d5a565b5b611fb38c828d01611e73565b92509250509295985092959850929598565b60008060008060608587031215611fdf57611fde611d55565b5b6000611fed87828801611d76565b9450506020611ffe87828801611d76565b935050604085013567ffffffffffffffff81111561201f5761201e611d5a565b5b61202b87828801611e1d565b925092505092959194509250565b60008115159050919050565b61204e81612039565b82525050565b60006020820190506120696000830184612045565b92915050565b6000819050919050565b6120828161206f565b811461208d57600080fd5b50565b60008135905061209f81612079565b92915050565b6000806000606084860312156120be576120bd611d55565b5b60006120cc86828701611d76565b93505060206120dd86828701611d76565b92505060406120ee86828701612090565b9150509250925092565b600082825260208201905092915050565b7f4f6e6c792041646d696e732063616e206578656375746520746869732066756e60008201527f6374696f6e000000000000000000000000000000000000000000000000000000602082015250565b60006121656025836120f8565b915061217082612109565b604082019050919050565b6000602082019050818103600083015261219481612158565b9050919050565b6000815190506121aa81612079565b92915050565b6000602082840312156121c6576121c5611d55565b5b60006121d48482850161219b565b91505092915050565b6121e68161206f565b82525050565b600060208201905061220160008301846121dd565b92915050565b60008151905061221681611d5f565b92915050565b60006020828403121561223257612231611d55565b5b600061224084828501612207565b91505092915050565b7f4e487b7100000000000000000000000000000000000000000000000000000000600052603260045260246000fd5b7f4e487b7100000000000000000000000000000000000000000000000000000000600052601160045260246000fd5b60006122b28261206f565b91507fffffffffffffffffffffffffffffffffffffffffffffffffffffffffffffffff82036122e4576122e3612278565b5b600182019050919050565b7f4164647265737320617267732063616e6e6f74206265206e756c6c0000000000600082015250565b6000612325601b836120f8565b9150612330826122ef565b602082019050919050565b6000602082019050818103600083015261235481612318565b9050919050565b7f417272617920617267732063616e6e6f74206265206e756c6c2f656d70747900600082015250565b6000612391601f836120f8565b915061239c8261235b565b602082019050919050565b600060208201905081810360008301526123c081612384565b9050919050565b7f436f6c6c61746572616c2061727261792063616e6e6f74206861766520616e2060008201527f656d70747920746f6b656e000000000000000000000000000000000000000000602082015250565b6000612423602b836120f8565b915061242e826123c7565b604082019050919050565b6000602082019050818103600083015261245281612416565b9050919050565b7f5175616e7469746965732061727261792063616e6e6f74206861766520616e2060008201527f656d70747920746f6b656e000000000000000000000000000000000000000000602082015250565b60006124b5602b836120f8565b91506124c082612459565b604082019050919050565b600060208201905081810360008301526124e4816124a8565b9050919050565b82818337600083830152505050565b6000601f19601f8301169050919050565b600061251783856120f8565b93506125248385846124eb565b61252d836124fa565b840190509392505050565b6000606082019050818103600083015261255381878961250b565b9050818103602083015261256881858761250b565b90506125776040830184611d2b565b9695505050505050565b600082825260208201905092915050565b600080fd5b60006125a38385612581565b93507f07ffffffffffffffffffffffffffffffffffffffffffffffffffffffffffffff8311156125d6576125d5612592565b5b6020830292506125e78385846124eb565b82840190509392505050565b60006060820190506126086000830187611d2b565b6126156020830186611d2b565b8181036040830152612628818486612597565b905095945050505050565b61263c81612039565b811461264757600080fd5b50565b60008151905061265981612633565b92915050565b60006020828403121561267557612674611d55565b5b60006126838482850161264a565b91505092915050565b7f43616e6e6f742072656465656d206e6f6e6520696e6465782e204d617962652060008201527f796f752073656e7420646563696d616c7320776974686f7574207472616e736660208201527f6f726d696e673f00000000000000000000000000000000000000000000000000604082015250565b600061270e6047836120f8565b91506127198261268c565b606082019050919050565b6000602082019050818103600083015261273d81612701565b9050919050565b60006060820190506127596000830186611d2b565b6127666020830185611d2b565b61277360408301846121dd565b94935050505056fea26469706673582212203abba0c5c303809780b6dc18cd8ce647b98615ed44b8f9dd17515018ebfaf8c664736f6c634300080d0033",
  "immutableReferences": {},
  "source": "// SPDX-License-Identifier: GPL-3.0\npragma solidity >=0.8.13;\n\ncontract MasterTools{\n    function checkEmptyInAddressArray(address[] calldata addressArray) internal pure returns(bool empty){\n        for(uint i=0; i<addressArray.length;i++){\n            if(addressArray[i]==address(0x0)){\n                return false;\n            }\n        }\n        return true;\n    }\n    function checkEmptyInUintArray(uint[] calldata addressArray) internal pure returns(bool empty){\n    for(uint i=0; i<addressArray.length;i++){\n        if(addressArray[i]== 0){\n            return false;\n        }\n    }\n    return true;\n    }\n}\n\nabstract contract  VaultContract {\n\n    struct Index{\n        address[] collateral; // Which tokens the index references to\n        uint256[] quantities; // How many of each token the index references to\n    }\n\n    function get_index(address _index) virtual external view returns(Index memory __index);\n    function redeem_index(address _index, address receiver, uint index_amount_to_redeem) virtual external;\n    function register_index(address _index, address[] calldata _collateral, uint256[] calldata _quantities ) virtual external;\n    function mint_index(address _index, address receiver, uint256[] calldata _collateral) virtual external returns(bool result);\n    function setMasterContract(address _masterContract) virtual external;\n\n}\n\nabstract contract StorageContract {\n    address public masterContract;\n    address public vaultContract;\n    address public factoryContract;\n    address[] public indices;\n\n    function setMasterContract(address _masterContract) virtual external;\n    function setVaultContract(address _vaultContract) virtual external;\n    function setFactoryContract(address _factoryContract) virtual external;\n    function addNewIndex(address _index, address creator) virtual external;\n    function getIndexCreator(address _index) virtual external view returns(address creator);\n    function addAdmin(address new_admin) virtual external;\n    function getIndicesLength() virtual external view returns(uint length);\n\n}\n\nabstract contract FactoryContract {\n    function createIndex(string calldata name, string calldata symbol, address creator) virtual external returns(address index);\n    function setStorageContract(address _storageContract) virtual external;\n    function setMasterContract(address _masterContract) virtual external;\n}\n\ncontract MasterContract is MasterTools{\n\n    address public storageContract;\n    StorageContract storageContractInstance;\n    address public vaultContract;\n    VaultContract vaultContractInstance;\n    address public factoryContract;\n    FactoryContract factoryContractInstance;\n    \n    mapping (address=>bool) isAdmin;\n\n    constructor(){\n        isAdmin[msg.sender] = true;\n    }\n\n    modifier onlyAdmins(){\n        require(isAdmin[msg.sender],\"Only Admins can execute this function\");\n        _;\n    }\n\n    function initMasterContract(address _storageContract) external onlyAdmins{\n        // We load the addresses of the rest of the contracts\n        storageContract = _storageContract;\n        storageContractInstance = StorageContract(_storageContract);\n\n        vaultContract = storageContractInstance.vaultContract();\n        vaultContractInstance = VaultContract(vaultContract);\n\n        factoryContract = storageContractInstance.factoryContract();\n        factoryContractInstance = FactoryContract(factoryContract);\n    }\n\n    function addAdmin(address _admin) external onlyAdmins{\n        require(_admin != address(0x0),\"Address args cannot be null\");\n        isAdmin[_admin] = true;\n\n        storageContractInstance.addAdmin(_admin);\n\n    }\n\n    function removeAdmin(address _admin) external onlyAdmins{\n        require(_admin != address(0x0),\"Address args cannot be null\");\n        isAdmin[_admin] = false;\n    }\n\n    // Updaters\n\n    function updateStorageContract (address _storageContract) external onlyAdmins{\n        require(_storageContract != address(0x0),\"Address args cannot be null\");\n        storageContract = _storageContract;\n        storageContractInstance = StorageContract(storageContract);\n    }\n\n    function updateFactoryContract (address _factoryContract) external onlyAdmins{\n        require(_factoryContract != address(0x0),\"Address args cannot be null\");\n        factoryContract = _factoryContract;\n        \n        storageContractInstance.setFactoryContract(_factoryContract);\n    }    \n    \n    function updateVaultContract (address _vaultContract) external onlyAdmins{\n        require(_vaultContract != address(0x0),\"Address args cannot be null\");\n        vaultContract = _vaultContract;\n\n        storageContractInstance.setVaultContract(_vaultContract);\n    }\n\n    function setMasterContract(address _masterContract) external onlyAdmins{\n        require(_masterContract != address(0x0),\"Address args cannot be null\");\n\n        vaultContractInstance.setMasterContract(_masterContract);\n        storageContractInstance.setMasterContract(_masterContract);\n        factoryContractInstance.setMasterContract(_masterContract);\n    }\n\n    // Interacting specifically with the Vault\n\n    function mint_index(address _index, address receiver, uint256[] calldata _collateral) external  returns(bool result){\n        require((_index != address(0x0))&&(receiver != address(0x0)),\"Address args cannot be null\");\n        require(_collateral.length!=0,\"Array args cannot be null/empty\");\n        require(checkEmptyInUintArray(_collateral),\"Collateral array cannot have an empty token\");\n\n        result =  vaultContractInstance.mint_index(_index, receiver, _collateral);       \n    }\n\n    function redeem_index(address _index, address receiver, uint index_amount_to_redeem) external{\n        require((_index != address(0x0))&&(receiver != address(0x0)),\"Address args cannot be null\");\n        require(index_amount_to_redeem != 0 , \"Cannot redeem none index. Maybe you sent decimals without transforming?\");\n\n        vaultContractInstance.redeem_index(_index, receiver, index_amount_to_redeem); \n    }\n\n    // Interacting specifically with the Storage\n\n    function getIndexCreator(address _index) public view onlyAdmins returns(address creator) {\n        require(_index != address(0x0),\"Address args cannot be null\");\n        return storageContractInstance.getIndexCreator(_index);\n    }\n\n    function getAllIndexCreators() external view onlyAdmins returns(address[] memory _array){\n        uint length = storageContractInstance.getIndicesLength();\n        for (uint index = 0; index < length; index++) {\n            _array[index] = storageContractInstance.indices(index);\n        }\n        return _array;\n    }\n\n    // Bulk interactions\n\n    function create_index(address _creator, address[] calldata _collateral, uint256[] calldata _quantities, string calldata name, string calldata symbol) external returns(address _index){\n        require(_creator != address(0x0),\"Address args cannot be null\");\n        \n        require((_collateral.length!=0)&&(_quantities.length!=0),\"Array args cannot be null/empty\");\n        require(checkEmptyInAddressArray(_collateral),\"Collateral array cannot have an empty token\");\n        require(checkEmptyInUintArray(_quantities),\"Quantities array cannot have an empty token\");\n\n        return factoryContractInstance.createIndex(name, symbol, _creator);\n    }\n}",
  "sourcePath": "/home/yildirim/TFM-DeFi/contracts/MasterContract.sol",
  "compiler": {
    "name": "solc",
    "version": "0.8.13+commit.abaa5c0e.Emscripten.clang"
  },
  "schemaVersion": "3.4.7",
  "updatedAt": "2022-05-12T20:24:03.816Z",
  "networkType": "ethereum",
  "devdoc": {
    "kind": "dev",
    "methods": {},
    "version": 1
  },
  "userdoc": {
    "kind": "user",
    "methods": {},
    "version": 1
  }
}