{
  "contractName": "StorageContract",
  "abi": [
    {
      "inputs": [],
      "stateMutability": "nonpayable",
      "type": "constructor"
    },
    {
      "inputs": [],
      "name": "factoryContract",
      "outputs": [
        {
          "internalType": "address",
          "name": "",
          "type": "address"
        }
      ],
      "stateMutability": "view",
      "type": "function",
      "constant": true
    },
    {
      "inputs": [
        {
          "internalType": "uint256",
          "name": "",
          "type": "uint256"
        }
      ],
      "name": "indices",
      "outputs": [
        {
          "internalType": "address",
          "name": "",
          "type": "address"
        }
      ],
      "stateMutability": "view",
      "type": "function",
      "constant": true
    },
    {
      "inputs": [
        {
          "internalType": "address",
          "name": "",
          "type": "address"
        }
      ],
      "name": "is_admin",
      "outputs": [
        {
          "internalType": "bool",
          "name": "",
          "type": "bool"
        }
      ],
      "stateMutability": "view",
      "type": "function",
      "constant": true
    },
    {
      "inputs": [],
      "name": "masterContract",
      "outputs": [
        {
          "internalType": "address",
          "name": "",
          "type": "address"
        }
      ],
      "stateMutability": "view",
      "type": "function",
      "constant": true
    },
    {
      "inputs": [],
      "name": "vaultContract",
      "outputs": [
        {
          "internalType": "address payable",
          "name": "",
          "type": "address"
        }
      ],
      "stateMutability": "view",
      "type": "function",
      "constant": true
    },
    {
      "inputs": [
        {
          "internalType": "address",
          "name": "_masterContract",
          "type": "address"
        }
      ],
      "name": "setMasterContract",
      "outputs": [],
      "stateMutability": "nonpayable",
      "type": "function"
    },
    {
      "inputs": [
        {
          "internalType": "address payable",
          "name": "_vaultContract",
          "type": "address"
        }
      ],
      "name": "setVaultContract",
      "outputs": [],
      "stateMutability": "nonpayable",
      "type": "function"
    },
    {
      "inputs": [
        {
          "internalType": "address",
          "name": "_factoryContract",
          "type": "address"
        }
      ],
      "name": "setFactoryContract",
      "outputs": [],
      "stateMutability": "nonpayable",
      "type": "function"
    },
    {
      "inputs": [
        {
          "internalType": "address",
          "name": "new_admin",
          "type": "address"
        }
      ],
      "name": "addAdmin",
      "outputs": [],
      "stateMutability": "nonpayable",
      "type": "function"
    },
    {
      "inputs": [
        {
          "internalType": "address",
          "name": "_admin",
          "type": "address"
        }
      ],
      "name": "removeAdmin",
      "outputs": [],
      "stateMutability": "nonpayable",
      "type": "function"
    },
    {
      "inputs": [
        {
          "internalType": "address",
          "name": "_address",
          "type": "address"
        }
      ],
      "name": "checkIfAdmin",
      "outputs": [
        {
          "internalType": "bool",
          "name": "_is_admin",
          "type": "bool"
        }
      ],
      "stateMutability": "view",
      "type": "function",
      "constant": true
    },
    {
      "inputs": [
        {
          "internalType": "address",
          "name": "_index",
          "type": "address"
        },
        {
          "internalType": "address",
          "name": "creator",
          "type": "address"
        },
        {
          "internalType": "address[]",
          "name": "_collateral",
          "type": "address[]"
        },
        {
          "internalType": "uint256[]",
          "name": "_quantities",
          "type": "uint256[]"
        }
      ],
      "name": "addNewIndex",
      "outputs": [],
      "stateMutability": "nonpayable",
      "type": "function"
    },
    {
      "inputs": [
        {
          "internalType": "address",
          "name": "_index",
          "type": "address"
        }
      ],
      "name": "getIndexCreator",
      "outputs": [
        {
          "internalType": "address",
          "name": "creator",
          "type": "address"
        }
      ],
      "stateMutability": "view",
      "type": "function",
      "constant": true
    },
    {
      "inputs": [],
      "name": "getIndicesLength",
      "outputs": [
        {
          "internalType": "uint256",
          "name": "length",
          "type": "uint256"
        }
      ],
      "stateMutability": "view",
      "type": "function",
      "constant": true
    },
    {
      "inputs": [
        {
          "internalType": "address",
          "name": "_index",
          "type": "address"
        }
      ],
      "name": "get_collateral",
      "outputs": [
        {
          "internalType": "address[]",
          "name": "_collateral",
          "type": "address[]"
        },
        {
          "internalType": "uint256[]",
          "name": "_quantities",
          "type": "uint256[]"
        }
      ],
      "stateMutability": "view",
      "type": "function",
      "constant": true
    }
  ],
  "bytecode": "0x608060405234801561001057600080fd5b506001600360003373ffffffffffffffffffffffffffffffffffffffff1673ffffffffffffffffffffffffffffffffffffffff16815260200190815260200160002060006101000a81548160ff021916908315150217905550611787806100786000396000f3fe608060405234801561001057600080fd5b50600436106100f55760003560e01c80639b36d47b11610097578063cd446e2211610066578063cd446e2214610283578063d4241341146102a1578063d9fa9c1a146102bd578063de11c94a146102ed576100f5565b80639b36d47b146101e9578063a1a953fd14610205578063aac132de14610235578063c099ab9314610265576100f5565b806356666e24116100d357806356666e24146101505780636b35340a1461018057806370480275146101b157806396f4ada6146101cd576100f5565b80631785f53c146100fa5780632274346b146101165780632a3a236f14610134575b600080fd5b610114600480360381019061010f919061117e565b61030b565b005b61011e610461565b60405161012b91906111cc565b60405180910390f35b61014e6004803603810190610149919061117e565b610487565b005b61016a6004803603810190610165919061117e565b610627565b60405161017791906111f6565b60405180910390f35b61019a6004803603810190610195919061117e565b61071c565b6040516101a8929190611397565b60405180910390f35b6101cb60048036038101906101c6919061117e565b610880565b005b6101e760048036038101906101e291906113fa565b6109d6565b005b61020360048036038101906101fe91906114e2565b610aa6565b005b61021f600480360381019061021a91906115b5565b610d2e565b60405161022c91906111f6565b60405180910390f35b61024f600480360381019061024a919061117e565b610d6d565b60405161025c91906115fd565b60405180910390f35b61026d610d8d565b60405161027a9190611627565b60405180910390f35b61028b610e26565b60405161029891906111f6565b60405180910390f35b6102bb60048036038101906102b6919061117e565b610e4a565b005b6102d760048036038101906102d2919061117e565b610f1a565b6040516102e491906115fd565b60405180910390f35b6102f5610ffc565b60405161030291906111f6565b60405180910390f35b600360003373ffffffffffffffffffffffffffffffffffffffff1673ffffffffffffffffffffffffffffffffffffffff16815260200190815260200160002060009054906101000a900460ff16610397576040517f08c379a000000000000000000000000000000000000000000000000000000000815260040161038e906116c5565b60405180910390fd5b600073ffffffffffffffffffffffffffffffffffffffff168173ffffffffffffffffffffffffffffffffffffffff1603610406576040517f08c379a00000000000000000000000000000000000000000000000000000000081526004016103fd90611731565b60405180910390fd5b6000600360008373ffffffffffffffffffffffffffffffffffffffff1673ffffffffffffffffffffffffffffffffffffffff16815260200190815260200160002060006101000a81548160ff02191690831515021790555050565b600160009054906101000a900473ffffffffffffffffffffffffffffffffffffffff1681565b600360003373ffffffffffffffffffffffffffffffffffffffff1673ffffffffffffffffffffffffffffffffffffffff16815260200190815260200160002060009054906101000a900460ff16610513576040517f08c379a000000000000000000000000000000000000000000000000000000000815260040161050a906116c5565b60405180910390fd5b806000806101000a81548173ffffffffffffffffffffffffffffffffffffffff021916908373ffffffffffffffffffffffffffffffffffffffff1602179055506000600360008060009054906101000a900473ffffffffffffffffffffffffffffffffffffffff1673ffffffffffffffffffffffffffffffffffffffff1673ffffffffffffffffffffffffffffffffffffffff16815260200190815260200160002060006101000a81548160ff0219169083151502179055506001600360008373ffffffffffffffffffffffffffffffffffffffff1673ffffffffffffffffffffffffffffffffffffffff16815260200190815260200160002060006101000a81548160ff02191690831515021790555050565b6000600360003373ffffffffffffffffffffffffffffffffffffffff1673ffffffffffffffffffffffffffffffffffffffff16815260200190815260200160002060009054906101000a900460ff166106b5576040517f08c379a00000000000000000000000000000000000000000000000000000000081526004016106ac906116c5565b60405180910390fd5b600460008373ffffffffffffffffffffffffffffffffffffffff1673ffffffffffffffffffffffffffffffffffffffff16815260200190815260200160002060009054906101000a900473ffffffffffffffffffffffffffffffffffffffff169050919050565b606080600660008473ffffffffffffffffffffffffffffffffffffffff1673ffffffffffffffffffffffffffffffffffffffff1681526020019081526020016000206000018054806020026020016040519081016040528092919081815260200182805480156107e157602002820191906000526020600020905b8160009054906101000a900473ffffffffffffffffffffffffffffffffffffffff1673ffffffffffffffffffffffffffffffffffffffff1681526020019060010190808311610797575b50505050509150600660008473ffffffffffffffffffffffffffffffffffffffff1673ffffffffffffffffffffffffffffffffffffffff16815260200190815260200160002060010180548060200260200160405190810160405280929190818152602001828054801561087457602002820191906000526020600020905b815481526020019060010190808311610860575b50505050509050915091565b600360003373ffffffffffffffffffffffffffffffffffffffff1673ffffffffffffffffffffffffffffffffffffffff16815260200190815260200160002060009054906101000a900460ff1661090c576040517f08c379a0000000000000000000000000000000000000000000000000000000008152600401610903906116c5565b60405180910390fd5b600073ffffffffffffffffffffffffffffffffffffffff168173ffffffffffffffffffffffffffffffffffffffff160361097b576040517f08c379a000000000000000000000000000000000000000000000000000000000815260040161097290611731565b60405180910390fd5b6001600360008373ffffffffffffffffffffffffffffffffffffffff1673ffffffffffffffffffffffffffffffffffffffff16815260200190815260200160002060006101000a81548160ff02191690831515021790555050565b600360003373ffffffffffffffffffffffffffffffffffffffff1673ffffffffffffffffffffffffffffffffffffffff16815260200190815260200160002060009054906101000a900460ff16610a62576040517f08c379a0000000000000000000000000000000000000000000000000000000008152600401610a59906116c5565b60405180910390fd5b80600160006101000a81548173ffffffffffffffffffffffffffffffffffffffff021916908373ffffffffffffffffffffffffffffffffffffffff16021790555050565b600360003373ffffffffffffffffffffffffffffffffffffffff1673ffffffffffffffffffffffffffffffffffffffff16815260200190815260200160002060009054906101000a900460ff16610b32576040517f08c379a0000000000000000000000000000000000000000000000000000000008152600401610b29906116c5565b60405180910390fd5b6005869080600181540180825580915050600190039060005260206000200160009091909190916101000a81548173ffffffffffffffffffffffffffffffffffffffff021916908373ffffffffffffffffffffffffffffffffffffffff16021790555084600460008873ffffffffffffffffffffffffffffffffffffffff1673ffffffffffffffffffffffffffffffffffffffff16815260200190815260200160002060006101000a81548173ffffffffffffffffffffffffffffffffffffffff021916908373ffffffffffffffffffffffffffffffffffffffff1602179055506040518060400160405280858580806020026020016040519081016040528093929190818152602001838360200280828437600081840152601f19601f820116905080830192505050505050508152602001838380806020026020016040519081016040528093929190818152602001838360200280828437600081840152601f19601f82011690508083019250505050505050815250600660008873ffffffffffffffffffffffffffffffffffffffff1673ffffffffffffffffffffffffffffffffffffffff1681526020019081526020016000206000820151816000019080519060200190610d05929190611022565b506020820151816001019080519060200190610d229291906110ac565b50905050505050505050565b60058181548110610d3e57600080fd5b906000526020600020016000915054906101000a900473ffffffffffffffffffffffffffffffffffffffff1681565b60036020528060005260406000206000915054906101000a900460ff1681565b6000600360003373ffffffffffffffffffffffffffffffffffffffff1673ffffffffffffffffffffffffffffffffffffffff16815260200190815260200160002060009054906101000a900460ff16610e1b576040517f08c379a0000000000000000000000000000000000000000000000000000000008152600401610e12906116c5565b60405180910390fd5b600580549050905090565b60008054906101000a900473ffffffffffffffffffffffffffffffffffffffff1681565b600360003373ffffffffffffffffffffffffffffffffffffffff1673ffffffffffffffffffffffffffffffffffffffff16815260200190815260200160002060009054906101000a900460ff16610ed6576040517f08c379a0000000000000000000000000000000000000000000000000000000008152600401610ecd906116c5565b60405180910390fd5b80600260006101000a81548173ffffffffffffffffffffffffffffffffffffffff021916908373ffffffffffffffffffffffffffffffffffffffff16021790555050565b6000600360003373ffffffffffffffffffffffffffffffffffffffff1673ffffffffffffffffffffffffffffffffffffffff16815260200190815260200160002060009054906101000a900460ff16610fa8576040517f08c379a0000000000000000000000000000000000000000000000000000000008152600401610f9f906116c5565b60405180910390fd5b600360008373ffffffffffffffffffffffffffffffffffffffff1673ffffffffffffffffffffffffffffffffffffffff16815260200190815260200160002060009054906101000a900460ff169050919050565b600260009054906101000a900473ffffffffffffffffffffffffffffffffffffffff1681565b82805482825590600052602060002090810192821561109b579160200282015b8281111561109a5782518260006101000a81548173ffffffffffffffffffffffffffffffffffffffff021916908373ffffffffffffffffffffffffffffffffffffffff16021790555091602001919060010190611042565b5b5090506110a891906110f9565b5090565b8280548282559060005260206000209081019282156110e8579160200282015b828111156110e75782518255916020019190600101906110cc565b5b5090506110f591906110f9565b5090565b5b808211156111125760008160009055506001016110fa565b5090565b600080fd5b600080fd5b600073ffffffffffffffffffffffffffffffffffffffff82169050919050565b600061114b82611120565b9050919050565b61115b81611140565b811461116657600080fd5b50565b60008135905061117881611152565b92915050565b60006020828403121561119457611193611116565b5b60006111a284828501611169565b91505092915050565b60006111b682611120565b9050919050565b6111c6816111ab565b82525050565b60006020820190506111e160008301846111bd565b92915050565b6111f081611140565b82525050565b600060208201905061120b60008301846111e7565b92915050565b600081519050919050565b600082825260208201905092915050565b6000819050602082019050919050565b61124681611140565b82525050565b6000611258838361123d565b60208301905092915050565b6000602082019050919050565b600061127c82611211565b611286818561121c565b93506112918361122d565b8060005b838110156112c25781516112a9888261124c565b97506112b483611264565b925050600181019050611295565b5085935050505092915050565b600081519050919050565b600082825260208201905092915050565b6000819050602082019050919050565b6000819050919050565b61130e816112fb565b82525050565b60006113208383611305565b60208301905092915050565b6000602082019050919050565b6000611344826112cf565b61134e81856112da565b9350611359836112eb565b8060005b8381101561138a5781516113718882611314565b975061137c8361132c565b92505060018101905061135d565b5085935050505092915050565b600060408201905081810360008301526113b18185611271565b905081810360208301526113c58184611339565b90509392505050565b6113d7816111ab565b81146113e257600080fd5b50565b6000813590506113f4816113ce565b92915050565b6000602082840312156114105761140f611116565b5b600061141e848285016113e5565b91505092915050565b600080fd5b600080fd5b600080fd5b60008083601f84011261144c5761144b611427565b5b8235905067ffffffffffffffff8111156114695761146861142c565b5b60208301915083602082028301111561148557611484611431565b5b9250929050565b60008083601f8401126114a2576114a1611427565b5b8235905067ffffffffffffffff8111156114bf576114be61142c565b5b6020830191508360208202830111156114db576114da611431565b5b9250929050565b600080600080600080608087890312156114ff576114fe611116565b5b600061150d89828a01611169565b965050602061151e89828a01611169565b955050604087013567ffffffffffffffff81111561153f5761153e61111b565b5b61154b89828a01611436565b9450945050606087013567ffffffffffffffff81111561156e5761156d61111b565b5b61157a89828a0161148c565b92509250509295509295509295565b611592816112fb565b811461159d57600080fd5b50565b6000813590506115af81611589565b92915050565b6000602082840312156115cb576115ca611116565b5b60006115d9848285016115a0565b91505092915050565b60008115159050919050565b6115f7816115e2565b82525050565b600060208201905061161260008301846115ee565b92915050565b611621816112fb565b82525050565b600060208201905061163c6000830184611618565b92915050565b600082825260208201905092915050565b7f53746f7261676520436f6e7472616374202d204f6e6c7920616e2041646d696e60008201527f2063616e20696e746572616374207769746820746869732066756e6374696f6e602082015250565b60006116af604083611642565b91506116ba82611653565b604082019050919050565b600060208201905081810360008301526116de816116a2565b9050919050565b7f4164647265737320617267732063616e6e6f74206265206e756c6c0000000000600082015250565b600061171b601b83611642565b9150611726826116e5565b602082019050919050565b6000602082019050818103600083015261174a8161170e565b905091905056fea26469706673582212209cbfbfc3b136296ecea996486f44156941f3f9db92628466c7e59d84eb495bcc64736f6c634300080d0033",
  "immutableReferences": {},
  "source": "// SPDX-License-Identifier: GPL-3.0\npragma solidity >=0.8.13;\n\ncontract StorageContract {\n    address public masterContract;\n    address payable public vaultContract;\n    address public factoryContract;\n\n    mapping(address => bool) public is_admin;\n\n    mapping(address => address) index_creators;\n    address[] public indices;\n\n    struct Index{\n        address[] collateral; // Which tokens the index references to\n        uint256[] quantities; // How many of each token the index references to\n    }\n\n    mapping (address => Index) index;\n\n    modifier onlyAdmins{\n        require(\n            is_admin[msg.sender],\n            \"Storage Contract - Only an Admin can interact with this function\"\n        );\n        _;\n    }    \n\n    constructor(){\n        is_admin[msg.sender] = true;\n    }\n\n    // Setters\n    function setMasterContract(address _masterContract) external onlyAdmins{\n        masterContract = _masterContract;\n        is_admin[masterContract] = false;\n        is_admin[_masterContract] = true;\n    }\n    function setVaultContract(address payable _vaultContract) external onlyAdmins{\n        vaultContract = _vaultContract;\n    }    \n    function setFactoryContract(address _factoryContract) external onlyAdmins{\n        factoryContract = _factoryContract;\n    }\n\n    function addAdmin(address new_admin) external onlyAdmins{\n        require(new_admin != address(0x0),\"Address args cannot be null\");\n        is_admin[new_admin] = true;\n    }\n    function removeAdmin(address _admin) external onlyAdmins{\n        require(_admin != address(0x0),\"Address args cannot be null\");\n        is_admin[_admin] = false;\n    }\n    function checkIfAdmin(address _address) external onlyAdmins view returns(bool _is_admin){\n        _is_admin = is_admin[_address]; \n    }\n\n    function addNewIndex(address _index, address creator, address[] calldata _collateral, uint256[] calldata _quantities) external onlyAdmins{\n        indices.push(_index);\n        index_creators[_index] = creator;\n        index[_index] = Index({\n            collateral: _collateral,\n            quantities: _quantities\n        });\n    }\n\n    function getIndexCreator(address _index) external onlyAdmins view returns(address creator){\n        creator = index_creators[_index];\n    }\n\n    function getIndicesLength() external onlyAdmins view returns(uint length){\n        length = indices.length;\n    }\n\n    function get_collateral(address _index) external view returns(address[] memory  _collateral, uint256[] memory _quantities){\n        _collateral = index[_index].collateral;\n        _quantities = index[_index].quantities;\n    }\n}",
  "sourcePath": "/home/yildirim/TFM-DeFi/contracts/StorageContract.sol",
  "compiler": {
    "name": "solc",
    "version": "0.8.13+commit.abaa5c0e.Emscripten.clang"
  },
  "schemaVersion": "3.4.7",
  "updatedAt": "2022-07-06T20:52:35.910Z",
  "networkType": "ethereum",
  "devdoc": {
    "kind": "dev",
    "methods": {},
    "version": 1
  },
  "userdoc": {
    "kind": "user",
    "methods": {},
    "version": 1
  }
}