{
  "contractName": "VaultContract",
  "abi": [
    {
      "inputs": [],
      "stateMutability": "nonpayable",
      "type": "constructor"
    },
    {
      "inputs": [
        {
          "internalType": "address",
          "name": "",
          "type": "address"
        }
      ],
      "name": "is_admin",
      "outputs": [
        {
          "internalType": "bool",
          "name": "",
          "type": "bool"
        }
      ],
      "stateMutability": "view",
      "type": "function",
      "constant": true
    },
    {
      "stateMutability": "payable",
      "type": "receive",
      "payable": true
    },
    {
      "inputs": [
        {
          "internalType": "address",
          "name": "new_admin",
          "type": "address"
        }
      ],
      "name": "addAdmin",
      "outputs": [],
      "stateMutability": "nonpayable",
      "type": "function"
    },
    {
      "inputs": [
        {
          "internalType": "address",
          "name": "_admin",
          "type": "address"
        }
      ],
      "name": "removeAdmin",
      "outputs": [],
      "stateMutability": "nonpayable",
      "type": "function"
    },
    {
      "inputs": [
        {
          "internalType": "address",
          "name": "_storageContract",
          "type": "address"
        }
      ],
      "name": "setStorageContract",
      "outputs": [],
      "stateMutability": "nonpayable",
      "type": "function"
    },
    {
      "inputs": [],
      "name": "setMasterContract",
      "outputs": [],
      "stateMutability": "nonpayable",
      "type": "function"
    },
    {
      "inputs": [
        {
          "internalType": "address",
          "name": "_index",
          "type": "address"
        }
      ],
      "name": "get_index",
      "outputs": [
        {
          "components": [
            {
              "internalType": "address[]",
              "name": "collateral",
              "type": "address[]"
            },
            {
              "internalType": "uint256[]",
              "name": "quantities",
              "type": "uint256[]"
            }
          ],
          "internalType": "struct VaultContract.Index",
          "name": "__index",
          "type": "tuple"
        }
      ],
      "stateMutability": "view",
      "type": "function",
      "constant": true
    },
    {
      "inputs": [
        {
          "internalType": "uint256",
          "name": "a",
          "type": "uint256"
        },
        {
          "internalType": "uint256",
          "name": "b",
          "type": "uint256"
        }
      ],
      "name": "safeMul",
      "outputs": [
        {
          "internalType": "uint256",
          "name": "c",
          "type": "uint256"
        }
      ],
      "stateMutability": "pure",
      "type": "function",
      "constant": true
    },
    {
      "inputs": [
        {
          "internalType": "uint256",
          "name": "a",
          "type": "uint256"
        },
        {
          "internalType": "uint256",
          "name": "b",
          "type": "uint256"
        }
      ],
      "name": "safeDiv",
      "outputs": [
        {
          "internalType": "uint256",
          "name": "c",
          "type": "uint256"
        }
      ],
      "stateMutability": "pure",
      "type": "function",
      "constant": true
    },
    {
      "inputs": [
        {
          "internalType": "address",
          "name": "_index",
          "type": "address"
        },
        {
          "internalType": "address",
          "name": "receiver",
          "type": "address"
        },
        {
          "internalType": "uint256",
          "name": "index_amount_to_redeem",
          "type": "uint256"
        }
      ],
      "name": "redeem_index",
      "outputs": [],
      "stateMutability": "nonpayable",
      "type": "function"
    },
    {
      "inputs": [
        {
          "internalType": "address",
          "name": "_index",
          "type": "address"
        },
        {
          "internalType": "address[]",
          "name": "_collateral",
          "type": "address[]"
        },
        {
          "internalType": "uint256[]",
          "name": "_quantities",
          "type": "uint256[]"
        }
      ],
      "name": "register_index",
      "outputs": [],
      "stateMutability": "nonpayable",
      "type": "function"
    },
    {
      "inputs": [
        {
          "internalType": "address[]",
          "name": "_collateral",
          "type": "address[]"
        },
        {
          "internalType": "uint256[]",
          "name": "_quantities",
          "type": "uint256[]"
        },
        {
          "internalType": "address",
          "name": "_creator",
          "type": "address"
        }
      ],
      "name": "receive_collateral",
      "outputs": [],
      "stateMutability": "nonpayable",
      "type": "function"
    },
    {
      "inputs": [
        {
          "internalType": "address",
          "name": "_index",
          "type": "address"
        },
        {
          "internalType": "address",
          "name": "receiver",
          "type": "address"
        },
        {
          "internalType": "uint256[]",
          "name": "_collateral",
          "type": "uint256[]"
        }
      ],
      "name": "mint_index",
      "outputs": [],
      "stateMutability": "nonpayable",
      "type": "function"
    },
    {
      "inputs": [
        {
          "internalType": "address",
          "name": "token",
          "type": "address"
        },
        {
          "internalType": "address",
          "name": "receiver",
          "type": "address"
        }
      ],
      "name": "approve",
      "outputs": [],
      "stateMutability": "nonpayable",
      "type": "function"
    }
  ],
  "bytecode": "0x608060405234801561001057600080fd5b506001600560003373ffffffffffffffffffffffffffffffffffffffff1673ffffffffffffffffffffffffffffffffffffffff16815260200190815260200160002060006101000a81548160ff02191690831515021790555061209c806100786000396000f3fe6080604052600436106100c65760003560e01c80639bdf06a31161007f578063b5931f7c11610059578063b5931f7c14610245578063d05c78da14610282578063da2ffce7146102bf578063dc38b0a2146102fc576100cd565b80639bdf06a3146101c8578063a8673dc6146101df578063aac132de14610208576100cd565b80631785f53c146100d25780631f925c85146100fb57806355d1ba3314610124578063704802751461014d5780637e5465ba1461017657806396d6aa301461019f576100cd565b366100cd57005b600080fd5b3480156100de57600080fd5b506100f960048036038101906100f491906115bf565b610325565b005b34801561010757600080fd5b50610122600480360381019061011d91906116a7565b61047b565b005b34801561013057600080fd5b5061014b6004803603810190610146919061173c565b610620565b005b34801561015957600080fd5b50610174600480360381019061016f91906115bf565b6107bf565b005b34801561018257600080fd5b5061019d600480360381019061019891906117b0565b610915565b005b3480156101ab57600080fd5b506101c660048036038101906101c19190611826565b6109a1565b005b3480156101d457600080fd5b506101dd610db1565b005b3480156101eb57600080fd5b5061020660048036038101906102019190611879565b610fe8565b005b34801561021457600080fd5b5061022f600480360381019061022a91906115bf565b61115e565b60405161023c9190611929565b60405180910390f35b34801561025157600080fd5b5061026c60048036038101906102679190611944565b61117e565b6040516102799190611993565b60405180910390f35b34801561028e57600080fd5b506102a960048036038101906102a49190611944565b6111a0565b6040516102b69190611993565b60405180910390f35b3480156102cb57600080fd5b506102e660048036038101906102e191906115bf565b6111d8565b6040516102f39190611b6e565b60405180910390f35b34801561030857600080fd5b50610323600480360381019061031e91906115bf565b611316565b005b600560003373ffffffffffffffffffffffffffffffffffffffff1673ffffffffffffffffffffffffffffffffffffffff16815260200190815260200160002060009054906101000a900460ff166103b1576040517f08c379a00000000000000000000000000000000000000000000000000000000081526004016103a890611c13565b60405180910390fd5b600073ffffffffffffffffffffffffffffffffffffffff168173ffffffffffffffffffffffffffffffffffffffff1603610420576040517f08c379a000000000000000000000000000000000000000000000000000000000815260040161041790611c7f565b60405180910390fd5b6000600560008373ffffffffffffffffffffffffffffffffffffffff1673ffffffffffffffffffffffffffffffffffffffff16815260200190815260200160002060006101000a81548160ff02191690831515021790555050565b600560003373ffffffffffffffffffffffffffffffffffffffff1673ffffffffffffffffffffffffffffffffffffffff16815260200190815260200160002060009054906101000a900460ff16610507576040517f08c379a00000000000000000000000000000000000000000000000000000000081526004016104fe90611c13565b60405180910390fd5b6040518060400160405280858580806020026020016040519081016040528093929190818152602001838360200280828437600081840152601f19601f820116905080830192505050505050508152602001838380806020026020016040519081016040528093929190818152602001838360200280828437600081840152601f19601f820116905080830192505050505050508152506000808773ffffffffffffffffffffffffffffffffffffffff1673ffffffffffffffffffffffffffffffffffffffff16815260200190815260200160002060008201518160000190805190602001906105f8929190611449565b5060208201518160010190805190602001906106159291906114d3565b509050505050505050565b600560003373ffffffffffffffffffffffffffffffffffffffff1673ffffffffffffffffffffffffffffffffffffffff16815260200190815260200160002060009054906101000a900460ff166106ac576040517f08c379a00000000000000000000000000000000000000000000000000000000081526004016106a390611c13565b60405180910390fd5b60008060008673ffffffffffffffffffffffffffffffffffffffff1673ffffffffffffffffffffffffffffffffffffffff16815260200190815260200160002060010160008154811061070257610701611c9f565b5b9060005260206000200154905060006107358484600081811061072857610727611c9f565b5b905060200201358361117e565b90508573ffffffffffffffffffffffffffffffffffffffff166340c10f1986670de0b6b3a7640000846107689190611cfd565b6040518363ffffffff1660e01b8152600401610785929190611d66565b600060405180830381600087803b15801561079f57600080fd5b505af11580156107b3573d6000803e3d6000fd5b50505050505050505050565b600560003373ffffffffffffffffffffffffffffffffffffffff1673ffffffffffffffffffffffffffffffffffffffff16815260200190815260200160002060009054906101000a900460ff1661084b576040517f08c379a000000000000000000000000000000000000000000000000000000000815260040161084290611c13565b60405180910390fd5b600073ffffffffffffffffffffffffffffffffffffffff168173ffffffffffffffffffffffffffffffffffffffff16036108ba576040517f08c379a00000000000000000000000000000000000000000000000000000000081526004016108b190611c7f565b60405180910390fd5b6001600560008373ffffffffffffffffffffffffffffffffffffffff1673ffffffffffffffffffffffffffffffffffffffff16815260200190815260200160002060006101000a81548160ff02191690831515021790555050565b8173ffffffffffffffffffffffffffffffffffffffff1663095ea7b38268056bc75e2d631000006040518363ffffffff1660e01b8152600401610959929190611dd4565b6020604051808303816000875af1158015610978573d6000803e3d6000fd5b505050506040513d601f19601f8201168201806040525081019061099c9190611e29565b505050565b600560003373ffffffffffffffffffffffffffffffffffffffff1673ffffffffffffffffffffffffffffffffffffffff16815260200190815260200160002060009054906101000a900460ff16610a2d576040517f08c379a0000000000000000000000000000000000000000000000000000000008152600401610a2490611c13565b60405180910390fd5b6000839050818473ffffffffffffffffffffffffffffffffffffffff166370a08231856040518263ffffffff1660e01b8152600401610a6c9190611e56565b602060405180830381865afa158015610a89573d6000803e3d6000fd5b505050506040513d601f19601f82011682018060405250810190610aad9190611e86565b1015610aee576040517f08c379a0000000000000000000000000000000000000000000000000000000008152600401610ae590611f25565b60405180910390fd5b8073ffffffffffffffffffffffffffffffffffffffff166323b872dd8430856040518463ffffffff1660e01b8152600401610b2b93929190611f45565b6020604051808303816000875af1158015610b4a573d6000803e3d6000fd5b505050506040513d601f19601f82011682018060405250810190610b6e9190611e29565b508073ffffffffffffffffffffffffffffffffffffffff166342966c68836040518263ffffffff1660e01b8152600401610ba89190611993565b600060405180830381600087803b158015610bc257600080fd5b505af1158015610bd6573d6000803e3d6000fd5b5050505060005b6000808673ffffffffffffffffffffffffffffffffffffffff1673ffffffffffffffffffffffffffffffffffffffff16815260200190815260200160002060000180549050811015610daa5760008060008773ffffffffffffffffffffffffffffffffffffffff1673ffffffffffffffffffffffffffffffffffffffff1681526020019081526020016000206000018281548110610c7e57610c7d611c9f565b5b9060005260206000200160009054906101000a900473ffffffffffffffffffffffffffffffffffffffff16905060008060008873ffffffffffffffffffffffffffffffffffffffff1673ffffffffffffffffffffffffffffffffffffffff1681526020019081526020016000206001018381548110610d0057610cff611c9f565b5b906000526020600020015490508173ffffffffffffffffffffffffffffffffffffffff1663a9059cbb87610d3484896111a0565b6040518363ffffffff1660e01b8152600401610d51929190611d66565b6020604051808303816000875af1158015610d70573d6000803e3d6000fd5b505050506040513d601f19601f82011682018060405250810190610d949190611e29565b5050508080610da290611f7c565b915050610bdd565b5050505050565b600560003373ffffffffffffffffffffffffffffffffffffffff1673ffffffffffffffffffffffffffffffffffffffff16815260200190815260200160002060009054906101000a900460ff16610e3d576040517f08c379a0000000000000000000000000000000000000000000000000000000008152600401610e3490611c13565b60405180910390fd5b6000600360009054906101000a900473ffffffffffffffffffffffffffffffffffffffff1673ffffffffffffffffffffffffffffffffffffffff1663cd446e226040518163ffffffff1660e01b8152600401602060405180830381865afa158015610eac573d6000803e3d6000fd5b505050506040513d601f19601f82011682018060405250810190610ed09190611fd9565b9050600060056000600460009054906101000a900473ffffffffffffffffffffffffffffffffffffffff1673ffffffffffffffffffffffffffffffffffffffff1673ffffffffffffffffffffffffffffffffffffffff16815260200190815260200160002060006101000a81548160ff0219169083151502179055506001600560008373ffffffffffffffffffffffffffffffffffffffff1673ffffffffffffffffffffffffffffffffffffffff16815260200190815260200160002060006101000a81548160ff02191690831515021790555080600460006101000a81548173ffffffffffffffffffffffffffffffffffffffff021916908373ffffffffffffffffffffffffffffffffffffffff16021790555050565b600560003373ffffffffffffffffffffffffffffffffffffffff1673ffffffffffffffffffffffffffffffffffffffff16815260200190815260200160002060009054906101000a900460ff16611074576040517f08c379a000000000000000000000000000000000000000000000000000000000815260040161106b90611c13565b60405180910390fd5b60005b858590508110156111565785858281811061109557611094611c9f565b5b90506020020160208101906110aa91906115bf565b73ffffffffffffffffffffffffffffffffffffffff166323b872dd83308787868181106110da576110d9611c9f565b5b905060200201356040518463ffffffff1660e01b81526004016110ff93929190611f45565b6020604051808303816000875af115801561111e573d6000803e3d6000fd5b505050506040513d601f19601f820116820180604052508101906111429190611e29565b50808061114e90611f7c565b915050611077565b505050505050565b60056020528060005260406000206000915054906101000a900460ff1681565b600080821161118c57600080fd5b81836111989190612035565b905092915050565b600081836111ae9190611cfd565b905060008314806111c957508183826111c79190612035565b145b6111d257600080fd5b92915050565b6111e0611520565b6000808373ffffffffffffffffffffffffffffffffffffffff1673ffffffffffffffffffffffffffffffffffffffff168152602001908152602001600020604051806040016040529081600082018054806020026020016040519081016040528092919081815260200182805480156112ae57602002820191906000526020600020905b8160009054906101000a900473ffffffffffffffffffffffffffffffffffffffff1673ffffffffffffffffffffffffffffffffffffffff1681526020019060010190808311611264575b505050505081526020016001820180548060200260200160405190810160405280929190818152602001828054801561130657602002820191906000526020600020905b8154815260200190600101908083116112f2575b5050505050815250509050919050565b600560003373ffffffffffffffffffffffffffffffffffffffff1673ffffffffffffffffffffffffffffffffffffffff16815260200190815260200160002060009054906101000a900460ff166113a2576040517f08c379a000000000000000000000000000000000000000000000000000000000815260040161139990611c13565b60405180910390fd5b80600260006101000a81548173ffffffffffffffffffffffffffffffffffffffff021916908373ffffffffffffffffffffffffffffffffffffffff160217905550600260009054906101000a900473ffffffffffffffffffffffffffffffffffffffff16600360006101000a81548173ffffffffffffffffffffffffffffffffffffffff021916908373ffffffffffffffffffffffffffffffffffffffff16021790555050565b8280548282559060005260206000209081019282156114c2579160200282015b828111156114c15782518260006101000a81548173ffffffffffffffffffffffffffffffffffffffff021916908373ffffffffffffffffffffffffffffffffffffffff16021790555091602001919060010190611469565b5b5090506114cf919061153a565b5090565b82805482825590600052602060002090810192821561150f579160200282015b8281111561150e5782518255916020019190600101906114f3565b5b50905061151c919061153a565b5090565b604051806040016040528060608152602001606081525090565b5b8082111561155357600081600090555060010161153b565b5090565b600080fd5b600080fd5b600073ffffffffffffffffffffffffffffffffffffffff82169050919050565b600061158c82611561565b9050919050565b61159c81611581565b81146115a757600080fd5b50565b6000813590506115b981611593565b92915050565b6000602082840312156115d5576115d4611557565b5b60006115e3848285016115aa565b91505092915050565b600080fd5b600080fd5b600080fd5b60008083601f840112611611576116106115ec565b5b8235905067ffffffffffffffff81111561162e5761162d6115f1565b5b60208301915083602082028301111561164a576116496115f6565b5b9250929050565b60008083601f840112611667576116666115ec565b5b8235905067ffffffffffffffff811115611684576116836115f1565b5b6020830191508360208202830111156116a05761169f6115f6565b5b9250929050565b6000806000806000606086880312156116c3576116c2611557565b5b60006116d1888289016115aa565b955050602086013567ffffffffffffffff8111156116f2576116f161155c565b5b6116fe888289016115fb565b9450945050604086013567ffffffffffffffff8111156117215761172061155c565b5b61172d88828901611651565b92509250509295509295909350565b6000806000806060858703121561175657611755611557565b5b6000611764878288016115aa565b9450506020611775878288016115aa565b935050604085013567ffffffffffffffff8111156117965761179561155c565b5b6117a287828801611651565b925092505092959194509250565b600080604083850312156117c7576117c6611557565b5b60006117d5858286016115aa565b92505060206117e6858286016115aa565b9150509250929050565b6000819050919050565b611803816117f0565b811461180e57600080fd5b50565b600081359050611820816117fa565b92915050565b60008060006060848603121561183f5761183e611557565b5b600061184d868287016115aa565b935050602061185e868287016115aa565b925050604061186f86828701611811565b9150509250925092565b60008060008060006060868803121561189557611894611557565b5b600086013567ffffffffffffffff8111156118b3576118b261155c565b5b6118bf888289016115fb565b9550955050602086013567ffffffffffffffff8111156118e2576118e161155c565b5b6118ee88828901611651565b93509350506040611901888289016115aa565b9150509295509295909350565b60008115159050919050565b6119238161190e565b82525050565b600060208201905061193e600083018461191a565b92915050565b6000806040838503121561195b5761195a611557565b5b600061196985828601611811565b925050602061197a85828601611811565b9150509250929050565b61198d816117f0565b82525050565b60006020820190506119a86000830184611984565b92915050565b600081519050919050565b600082825260208201905092915050565b6000819050602082019050919050565b6119e381611581565b82525050565b60006119f583836119da565b60208301905092915050565b6000602082019050919050565b6000611a19826119ae565b611a2381856119b9565b9350611a2e836119ca565b8060005b83811015611a5f578151611a4688826119e9565b9750611a5183611a01565b925050600181019050611a32565b5085935050505092915050565b600081519050919050565b600082825260208201905092915050565b6000819050602082019050919050565b611aa1816117f0565b82525050565b6000611ab38383611a98565b60208301905092915050565b6000602082019050919050565b6000611ad782611a6c565b611ae18185611a77565b9350611aec83611a88565b8060005b83811015611b1d578151611b048882611aa7565b9750611b0f83611abf565b925050600181019050611af0565b5085935050505092915050565b60006040830160008301518482036000860152611b478282611a0e565b91505060208301518482036020860152611b618282611acc565b9150508091505092915050565b60006020820190508181036000830152611b888184611b2a565b905092915050565b600082825260208201905092915050565b7f5661756c7420436f6e7472616374202d204f6e6c7920616e2041646d696e206360008201527f616e20696e746572616374207769746820746869732066756e6374696f6e0000602082015250565b6000611bfd603e83611b90565b9150611c0882611ba1565b604082019050919050565b60006020820190508181036000830152611c2c81611bf0565b9050919050565b7f4164647265737320617267732063616e6e6f74206265206e756c6c0000000000600082015250565b6000611c69601b83611b90565b9150611c7482611c33565b602082019050919050565b60006020820190508181036000830152611c9881611c5c565b9050919050565b7f4e487b7100000000000000000000000000000000000000000000000000000000600052603260045260246000fd5b7f4e487b7100000000000000000000000000000000000000000000000000000000600052601160045260246000fd5b6000611d08826117f0565b9150611d13836117f0565b9250817fffffffffffffffffffffffffffffffffffffffffffffffffffffffffffffffff0483118215151615611d4c57611d4b611cce565b5b828202905092915050565b611d6081611581565b82525050565b6000604082019050611d7b6000830185611d57565b611d886020830184611984565b9392505050565b6000819050919050565b6000819050919050565b6000611dbe611db9611db484611d8f565b611d99565b6117f0565b9050919050565b611dce81611da3565b82525050565b6000604082019050611de96000830185611d57565b611df66020830184611dc5565b9392505050565b611e068161190e565b8114611e1157600080fd5b50565b600081519050611e2381611dfd565b92915050565b600060208284031215611e3f57611e3e611557565b5b6000611e4d84828501611e14565b91505092915050565b6000602082019050611e6b6000830184611d57565b92915050565b600081519050611e80816117fa565b92915050565b600060208284031215611e9c57611e9b611557565b5b6000611eaa84828501611e71565b91505092915050565b7f43616e6e6f742061736b20666f72206d6f726520696e6465782074686174207460008201527f6865207573657220616c72656164792068617300000000000000000000000000602082015250565b6000611f0f603383611b90565b9150611f1a82611eb3565b604082019050919050565b60006020820190508181036000830152611f3e81611f02565b9050919050565b6000606082019050611f5a6000830186611d57565b611f676020830185611d57565b611f746040830184611984565b949350505050565b6000611f87826117f0565b91507fffffffffffffffffffffffffffffffffffffffffffffffffffffffffffffffff8203611fb957611fb8611cce565b5b600182019050919050565b600081519050611fd381611593565b92915050565b600060208284031215611fef57611fee611557565b5b6000611ffd84828501611fc4565b91505092915050565b7f4e487b7100000000000000000000000000000000000000000000000000000000600052601260045260246000fd5b6000612040826117f0565b915061204b836117f0565b92508261205b5761205a612006565b5b82820490509291505056fea26469706673582212208c8c96e401c0a5dc5c44409e248e67d6f22e6b5e8ddaa715c24771844166fbc264736f6c634300080d0033",
  "immutableReferences": {},
  "source": "// SPDX-License-Identifier: GPL-3.O\npragma solidity >=0.8.13;\n \nimport {IndexContract} from \"./IndexContract.sol\";\nimport {StorageContract} from \"./StorageContract.sol\";\nimport \"@openzeppelin/contracts/token/ERC20/ERC20.sol\";\n\ncontract VaultContract{\n\n    struct Index{\n        address[] collateral; // Which tokens the index references to\n        uint256[] quantities; // How many of each token the index references to\n    }\n\n    mapping (address => Index) index;\n    address[] registered_indexes;\n\n    address storageContract;\n    StorageContract storageContractInstance;\n    address private masterContract;\n\n\n    mapping(address => bool) public is_admin;\n\n    modifier onlyAdmins{\n        require(\n            is_admin[msg.sender],\n            \"Vault Contract - Only an Admin can interact with this function\"\n        );\n        _;\n    }    \n\n    constructor(){\n        is_admin[msg.sender] = true;\n    }\n\n    function addAdmin(address new_admin) external onlyAdmins{\n        require(new_admin != address(0x0),\"Address args cannot be null\");\n        is_admin[new_admin] = true;\n    }\n    function removeAdmin(address _admin) external onlyAdmins{\n        require(_admin != address(0x0),\"Address args cannot be null\");\n        is_admin[_admin] = false;\n    }\n\n    function setStorageContract(address _storageContract) external onlyAdmins {\n        storageContract = _storageContract;\n        storageContractInstance = StorageContract(storageContract);\n    }\n\n    function setMasterContract() external onlyAdmins{\n        address _masterContract = storageContractInstance.masterContract();\n        is_admin[masterContract] = false;\n        is_admin[_masterContract] = true;\n        masterContract = _masterContract;\n\n    }\n    function get_index(address _index) external view returns(Index memory __index) {\n        return index[_index];\n    }\n\n    //Safe Math Interface\n    function safeMul(uint a, uint b) public pure returns (uint c) {\n        c = a * b;\n        require(a == 0 || c / a == b);\n    }\n \n    function safeDiv(uint a, uint b) public pure returns (uint c) {\n        require(b > 0);\n        c = a / b;\n    }\n    //\n\n    function redeem_index(address _index, address receiver, uint index_amount_to_redeem) external onlyAdmins{\n        IndexContract index_ = IndexContract(_index);\n        \n        require(IndexContract(_index).balanceOf(receiver)>=index_amount_to_redeem, \"Cannot ask for more index that the user already has\"); // The ERC-20 token has the accounting of balances, so we call it\n\n        index_.transferFrom(receiver,address(this), index_amount_to_redeem);\n        index_.burn(index_amount_to_redeem);\n\n        for(uint i = 0; i< index[_index].collateral.length;i++){\n            address token = index[_index].collateral[i];\n            uint256 quantity = index[_index].quantities[i];\n            ERC20(token).transfer(receiver, safeMul(quantity,index_amount_to_redeem));\n        }\n    }\n\n    function register_index(address _index, address[] calldata _collateral, uint256[] calldata _quantities) external onlyAdmins{\n        index[_index] = Index({\n            collateral: _collateral,\n            quantities: _quantities\n        });\n    }\n\n    function receive_collateral(address[] calldata _collateral, uint256[] calldata _quantities, address _creator) external onlyAdmins{\n        for(uint256 indx = 0; indx < _collateral.length; indx++ ){\n            ERC20(_collateral[indx]).transferFrom(_creator, address(this), _quantities[indx]);\n        }\n    }\n\n    function mint_index(address _index, address receiver, uint256[] calldata _collateral) external onlyAdmins{\n        // Since the receiver MUST send the collateral at the exact ratio of collateral, we can safely do the calculations with one of the collateral tokens\n        uint256 registered_collateral = index[_index].quantities[0];\n        uint256 index_to_mint = safeDiv(_collateral[0], registered_collateral);\n        IndexContract(_index).mint(receiver, index_to_mint *10 **18);\n    }\n\n    function approve(address token, address receiver) external {\n        ERC20(token).approve(receiver, 100*10**18);\n    }\n\n    receive() external payable {\n    }\n}",
  "sourcePath": "/home/yildirim/TFM-DeFi/contracts/VaultContract.sol",
  "compiler": {
    "name": "solc",
    "version": "0.8.13+commit.abaa5c0e.Emscripten.clang"
  },
  "schemaVersion": "3.4.7",
  "updatedAt": "2022-06-14T22:07:02.081Z",
  "networkType": "ethereum",
  "devdoc": {
    "kind": "dev",
    "methods": {},
    "version": 1
  },
  "userdoc": {
    "kind": "user",
    "methods": {},
    "version": 1
  }
}