{
  "contractName": "VaultContract",
  "abi": [
    {
      "inputs": [],
      "stateMutability": "nonpayable",
      "type": "constructor"
    },
    {
      "inputs": [
        {
          "internalType": "address",
          "name": "",
          "type": "address"
        }
      ],
      "name": "is_admin",
      "outputs": [
        {
          "internalType": "bool",
          "name": "",
          "type": "bool"
        }
      ],
      "stateMutability": "view",
      "type": "function",
      "constant": true
    },
    {
      "stateMutability": "payable",
      "type": "receive",
      "payable": true
    },
    {
      "inputs": [
        {
          "internalType": "address",
          "name": "new_admin",
          "type": "address"
        }
      ],
      "name": "addAdmin",
      "outputs": [],
      "stateMutability": "nonpayable",
      "type": "function"
    },
    {
      "inputs": [
        {
          "internalType": "address",
          "name": "_admin",
          "type": "address"
        }
      ],
      "name": "removeAdmin",
      "outputs": [],
      "stateMutability": "nonpayable",
      "type": "function"
    },
    {
      "inputs": [
        {
          "internalType": "address",
          "name": "_storageContract",
          "type": "address"
        }
      ],
      "name": "setStorageContract",
      "outputs": [],
      "stateMutability": "nonpayable",
      "type": "function"
    },
    {
      "inputs": [],
      "name": "setMasterContract",
      "outputs": [],
      "stateMutability": "nonpayable",
      "type": "function"
    },
    {
      "inputs": [
        {
          "internalType": "address",
          "name": "_index",
          "type": "address"
        }
      ],
      "name": "get_index",
      "outputs": [
        {
          "components": [
            {
              "internalType": "address[]",
              "name": "collateral",
              "type": "address[]"
            },
            {
              "internalType": "uint256[]",
              "name": "quantities",
              "type": "uint256[]"
            }
          ],
          "internalType": "struct VaultContract.Index",
          "name": "__index",
          "type": "tuple"
        }
      ],
      "stateMutability": "view",
      "type": "function",
      "constant": true
    },
    {
      "inputs": [
        {
          "internalType": "uint256",
          "name": "a",
          "type": "uint256"
        },
        {
          "internalType": "uint256",
          "name": "b",
          "type": "uint256"
        }
      ],
      "name": "safeMul",
      "outputs": [
        {
          "internalType": "uint256",
          "name": "c",
          "type": "uint256"
        }
      ],
      "stateMutability": "pure",
      "type": "function",
      "constant": true
    },
    {
      "inputs": [
        {
          "internalType": "uint256",
          "name": "a",
          "type": "uint256"
        },
        {
          "internalType": "uint256",
          "name": "b",
          "type": "uint256"
        }
      ],
      "name": "safeDiv",
      "outputs": [
        {
          "internalType": "uint256",
          "name": "c",
          "type": "uint256"
        }
      ],
      "stateMutability": "pure",
      "type": "function",
      "constant": true
    },
    {
      "inputs": [
        {
          "internalType": "address",
          "name": "_index",
          "type": "address"
        },
        {
          "internalType": "address",
          "name": "receiver",
          "type": "address"
        },
        {
          "internalType": "uint256",
          "name": "index_amount_to_redeem",
          "type": "uint256"
        }
      ],
      "name": "redeem_index",
      "outputs": [],
      "stateMutability": "nonpayable",
      "type": "function"
    },
    {
      "inputs": [
        {
          "internalType": "address",
          "name": "_index",
          "type": "address"
        },
        {
          "internalType": "address[]",
          "name": "_collateral",
          "type": "address[]"
        },
        {
          "internalType": "uint256[]",
          "name": "_quantities",
          "type": "uint256[]"
        }
      ],
      "name": "register_index",
      "outputs": [],
      "stateMutability": "nonpayable",
      "type": "function"
    },
    {
      "inputs": [
        {
          "internalType": "address[]",
          "name": "_collateral",
          "type": "address[]"
        },
        {
          "internalType": "uint256[]",
          "name": "_quantities",
          "type": "uint256[]"
        },
        {
          "internalType": "address",
          "name": "_creator",
          "type": "address"
        }
      ],
      "name": "receive_collateral",
      "outputs": [],
      "stateMutability": "nonpayable",
      "type": "function"
    },
    {
      "inputs": [
        {
          "internalType": "address",
          "name": "_index",
          "type": "address"
        },
        {
          "internalType": "address",
          "name": "receiver",
          "type": "address"
        },
        {
          "internalType": "uint256[]",
          "name": "_collateral",
          "type": "uint256[]"
        }
      ],
      "name": "mint_index",
      "outputs": [],
      "stateMutability": "nonpayable",
      "type": "function"
    },
    {
      "inputs": [
        {
          "internalType": "address",
          "name": "token",
          "type": "address"
        },
        {
          "internalType": "address",
          "name": "receiver",
          "type": "address"
        }
      ],
      "name": "approve",
      "outputs": [],
      "stateMutability": "nonpayable",
      "type": "function"
    }
  ],
  "bytecode": "0x608060405234801561001057600080fd5b506001600560003373ffffffffffffffffffffffffffffffffffffffff1673ffffffffffffffffffffffffffffffffffffffff16815260200190815260200160002060006101000a81548160ff02191690831515021790555061204a806100786000396000f3fe6080604052600436106100c65760003560e01c80639bdf06a31161007f578063b5931f7c11610059578063b5931f7c14610245578063d05c78da14610282578063da2ffce7146102bf578063dc38b0a2146102fc576100cd565b80639bdf06a3146101c8578063a8673dc6146101df578063aac132de14610208576100cd565b80631785f53c146100d25780631f925c85146100fb57806355d1ba3314610124578063704802751461014d5780637e5465ba1461017657806396d6aa301461019f576100cd565b366100cd57005b600080fd5b3480156100de57600080fd5b506100f960048036038101906100f4919061156d565b610325565b005b34801561010757600080fd5b50610122600480360381019061011d9190611655565b61047b565b005b34801561013057600080fd5b5061014b600480360381019061014691906116ea565b610620565b005b34801561015957600080fd5b50610174600480360381019061016f919061156d565b6107bf565b005b34801561018257600080fd5b5061019d6004803603810190610198919061175e565b610915565b005b3480156101ab57600080fd5b506101c660048036038101906101c191906117d4565b6109a9565b005b3480156101d457600080fd5b506101dd610d5f565b005b3480156101eb57600080fd5b5061020660048036038101906102019190611827565b610f96565b005b34801561021457600080fd5b5061022f600480360381019061022a919061156d565b61110c565b60405161023c91906118d7565b60405180910390f35b34801561025157600080fd5b5061026c600480360381019061026791906118f2565b61112c565b6040516102799190611941565b60405180910390f35b34801561028e57600080fd5b506102a960048036038101906102a491906118f2565b61114e565b6040516102b69190611941565b60405180910390f35b3480156102cb57600080fd5b506102e660048036038101906102e1919061156d565b611186565b6040516102f39190611b1c565b60405180910390f35b34801561030857600080fd5b50610323600480360381019061031e919061156d565b6112c4565b005b600560003373ffffffffffffffffffffffffffffffffffffffff1673ffffffffffffffffffffffffffffffffffffffff16815260200190815260200160002060009054906101000a900460ff166103b1576040517f08c379a00000000000000000000000000000000000000000000000000000000081526004016103a890611bc1565b60405180910390fd5b600073ffffffffffffffffffffffffffffffffffffffff168173ffffffffffffffffffffffffffffffffffffffff1603610420576040517f08c379a000000000000000000000000000000000000000000000000000000000815260040161041790611c2d565b60405180910390fd5b6000600560008373ffffffffffffffffffffffffffffffffffffffff1673ffffffffffffffffffffffffffffffffffffffff16815260200190815260200160002060006101000a81548160ff02191690831515021790555050565b600560003373ffffffffffffffffffffffffffffffffffffffff1673ffffffffffffffffffffffffffffffffffffffff16815260200190815260200160002060009054906101000a900460ff16610507576040517f08c379a00000000000000000000000000000000000000000000000000000000081526004016104fe90611bc1565b60405180910390fd5b6040518060400160405280858580806020026020016040519081016040528093929190818152602001838360200280828437600081840152601f19601f820116905080830192505050505050508152602001838380806020026020016040519081016040528093929190818152602001838360200280828437600081840152601f19601f820116905080830192505050505050508152506000808773ffffffffffffffffffffffffffffffffffffffff1673ffffffffffffffffffffffffffffffffffffffff16815260200190815260200160002060008201518160000190805190602001906105f89291906113f7565b506020820151816001019080519060200190610615929190611481565b509050505050505050565b600560003373ffffffffffffffffffffffffffffffffffffffff1673ffffffffffffffffffffffffffffffffffffffff16815260200190815260200160002060009054906101000a900460ff166106ac576040517f08c379a00000000000000000000000000000000000000000000000000000000081526004016106a390611bc1565b60405180910390fd5b60008060008673ffffffffffffffffffffffffffffffffffffffff1673ffffffffffffffffffffffffffffffffffffffff16815260200190815260200160002060010160008154811061070257610701611c4d565b5b9060005260206000200154905060006107358484600081811061072857610727611c4d565b5b905060200201358361112c565b90508573ffffffffffffffffffffffffffffffffffffffff166340c10f1986670de0b6b3a7640000846107689190611cab565b6040518363ffffffff1660e01b8152600401610785929190611d14565b600060405180830381600087803b15801561079f57600080fd5b505af11580156107b3573d6000803e3d6000fd5b50505050505050505050565b600560003373ffffffffffffffffffffffffffffffffffffffff1673ffffffffffffffffffffffffffffffffffffffff16815260200190815260200160002060009054906101000a900460ff1661084b576040517f08c379a000000000000000000000000000000000000000000000000000000000815260040161084290611bc1565b60405180910390fd5b600073ffffffffffffffffffffffffffffffffffffffff168173ffffffffffffffffffffffffffffffffffffffff16036108ba576040517f08c379a00000000000000000000000000000000000000000000000000000000081526004016108b190611c2d565b60405180910390fd5b6001600560008373ffffffffffffffffffffffffffffffffffffffff1673ffffffffffffffffffffffffffffffffffffffff16815260200190815260200160002060006101000a81548160ff02191690831515021790555050565b8173ffffffffffffffffffffffffffffffffffffffff1663095ea7b382701d6329f1c35ca4bfabb9f56100000000006040518363ffffffff1660e01b8152600401610961929190611d82565b6020604051808303816000875af1158015610980573d6000803e3d6000fd5b505050506040513d601f19601f820116820180604052508101906109a49190611dd7565b505050565b600560003373ffffffffffffffffffffffffffffffffffffffff1673ffffffffffffffffffffffffffffffffffffffff16815260200190815260200160002060009054906101000a900460ff16610a35576040517f08c379a0000000000000000000000000000000000000000000000000000000008152600401610a2c90611bc1565b60405180910390fd5b6000839050818473ffffffffffffffffffffffffffffffffffffffff166370a08231856040518263ffffffff1660e01b8152600401610a749190611e04565b602060405180830381865afa158015610a91573d6000803e3d6000fd5b505050506040513d601f19601f82011682018060405250810190610ab59190611e34565b1015610af6576040517f08c379a0000000000000000000000000000000000000000000000000000000008152600401610aed90611ed3565b60405180910390fd5b8073ffffffffffffffffffffffffffffffffffffffff166323b872dd8430856040518463ffffffff1660e01b8152600401610b3393929190611ef3565b6020604051808303816000875af1158015610b52573d6000803e3d6000fd5b505050506040513d601f19601f82011682018060405250810190610b769190611dd7565b5060005b6000808673ffffffffffffffffffffffffffffffffffffffff1673ffffffffffffffffffffffffffffffffffffffff16815260200190815260200160002060000180549050811015610d585760008060008773ffffffffffffffffffffffffffffffffffffffff1673ffffffffffffffffffffffffffffffffffffffff1681526020019081526020016000206000018281548110610c1b57610c1a611c4d565b5b9060005260206000200160009054906101000a900473ffffffffffffffffffffffffffffffffffffffff16905060008060008873ffffffffffffffffffffffffffffffffffffffff1673ffffffffffffffffffffffffffffffffffffffff1681526020019081526020016000206001018381548110610c9d57610c9c611c4d565b5b906000526020600020015490508173ffffffffffffffffffffffffffffffffffffffff1663a9059cbb87610ce284610cdd8a670de0b6b3a764000061112c565b61114e565b6040518363ffffffff1660e01b8152600401610cff929190611d14565b6020604051808303816000875af1158015610d1e573d6000803e3d6000fd5b505050506040513d601f19601f82011682018060405250810190610d429190611dd7565b5050508080610d5090611f2a565b915050610b7a565b5050505050565b600560003373ffffffffffffffffffffffffffffffffffffffff1673ffffffffffffffffffffffffffffffffffffffff16815260200190815260200160002060009054906101000a900460ff16610deb576040517f08c379a0000000000000000000000000000000000000000000000000000000008152600401610de290611bc1565b60405180910390fd5b6000600360009054906101000a900473ffffffffffffffffffffffffffffffffffffffff1673ffffffffffffffffffffffffffffffffffffffff1663cd446e226040518163ffffffff1660e01b8152600401602060405180830381865afa158015610e5a573d6000803e3d6000fd5b505050506040513d601f19601f82011682018060405250810190610e7e9190611f87565b9050600060056000600460009054906101000a900473ffffffffffffffffffffffffffffffffffffffff1673ffffffffffffffffffffffffffffffffffffffff1673ffffffffffffffffffffffffffffffffffffffff16815260200190815260200160002060006101000a81548160ff0219169083151502179055506001600560008373ffffffffffffffffffffffffffffffffffffffff1673ffffffffffffffffffffffffffffffffffffffff16815260200190815260200160002060006101000a81548160ff02191690831515021790555080600460006101000a81548173ffffffffffffffffffffffffffffffffffffffff021916908373ffffffffffffffffffffffffffffffffffffffff16021790555050565b600560003373ffffffffffffffffffffffffffffffffffffffff1673ffffffffffffffffffffffffffffffffffffffff16815260200190815260200160002060009054906101000a900460ff16611022576040517f08c379a000000000000000000000000000000000000000000000000000000000815260040161101990611bc1565b60405180910390fd5b60005b858590508110156111045785858281811061104357611042611c4d565b5b9050602002016020810190611058919061156d565b73ffffffffffffffffffffffffffffffffffffffff166323b872dd833087878681811061108857611087611c4d565b5b905060200201356040518463ffffffff1660e01b81526004016110ad93929190611ef3565b6020604051808303816000875af11580156110cc573d6000803e3d6000fd5b505050506040513d601f19601f820116820180604052508101906110f09190611dd7565b5080806110fc90611f2a565b915050611025565b505050505050565b60056020528060005260406000206000915054906101000a900460ff1681565b600080821161113a57600080fd5b81836111469190611fe3565b905092915050565b6000818361115c9190611cab565b9050600083148061117757508183826111759190611fe3565b145b61118057600080fd5b92915050565b61118e6114ce565b6000808373ffffffffffffffffffffffffffffffffffffffff1673ffffffffffffffffffffffffffffffffffffffff1681526020019081526020016000206040518060400160405290816000820180548060200260200160405190810160405280929190818152602001828054801561125c57602002820191906000526020600020905b8160009054906101000a900473ffffffffffffffffffffffffffffffffffffffff1673ffffffffffffffffffffffffffffffffffffffff1681526020019060010190808311611212575b50505050508152602001600182018054806020026020016040519081016040528092919081815260200182805480156112b457602002820191906000526020600020905b8154815260200190600101908083116112a0575b5050505050815250509050919050565b600560003373ffffffffffffffffffffffffffffffffffffffff1673ffffffffffffffffffffffffffffffffffffffff16815260200190815260200160002060009054906101000a900460ff16611350576040517f08c379a000000000000000000000000000000000000000000000000000000000815260040161134790611bc1565b60405180910390fd5b80600260006101000a81548173ffffffffffffffffffffffffffffffffffffffff021916908373ffffffffffffffffffffffffffffffffffffffff160217905550600260009054906101000a900473ffffffffffffffffffffffffffffffffffffffff16600360006101000a81548173ffffffffffffffffffffffffffffffffffffffff021916908373ffffffffffffffffffffffffffffffffffffffff16021790555050565b828054828255906000526020600020908101928215611470579160200282015b8281111561146f5782518260006101000a81548173ffffffffffffffffffffffffffffffffffffffff021916908373ffffffffffffffffffffffffffffffffffffffff16021790555091602001919060010190611417565b5b50905061147d91906114e8565b5090565b8280548282559060005260206000209081019282156114bd579160200282015b828111156114bc5782518255916020019190600101906114a1565b5b5090506114ca91906114e8565b5090565b604051806040016040528060608152602001606081525090565b5b808211156115015760008160009055506001016114e9565b5090565b600080fd5b600080fd5b600073ffffffffffffffffffffffffffffffffffffffff82169050919050565b600061153a8261150f565b9050919050565b61154a8161152f565b811461155557600080fd5b50565b60008135905061156781611541565b92915050565b60006020828403121561158357611582611505565b5b600061159184828501611558565b91505092915050565b600080fd5b600080fd5b600080fd5b60008083601f8401126115bf576115be61159a565b5b8235905067ffffffffffffffff8111156115dc576115db61159f565b5b6020830191508360208202830111156115f8576115f76115a4565b5b9250929050565b60008083601f8401126116155761161461159a565b5b8235905067ffffffffffffffff8111156116325761163161159f565b5b60208301915083602082028301111561164e5761164d6115a4565b5b9250929050565b60008060008060006060868803121561167157611670611505565b5b600061167f88828901611558565b955050602086013567ffffffffffffffff8111156116a05761169f61150a565b5b6116ac888289016115a9565b9450945050604086013567ffffffffffffffff8111156116cf576116ce61150a565b5b6116db888289016115ff565b92509250509295509295909350565b6000806000806060858703121561170457611703611505565b5b600061171287828801611558565b945050602061172387828801611558565b935050604085013567ffffffffffffffff8111156117445761174361150a565b5b611750878288016115ff565b925092505092959194509250565b6000806040838503121561177557611774611505565b5b600061178385828601611558565b925050602061179485828601611558565b9150509250929050565b6000819050919050565b6117b18161179e565b81146117bc57600080fd5b50565b6000813590506117ce816117a8565b92915050565b6000806000606084860312156117ed576117ec611505565b5b60006117fb86828701611558565b935050602061180c86828701611558565b925050604061181d868287016117bf565b9150509250925092565b60008060008060006060868803121561184357611842611505565b5b600086013567ffffffffffffffff8111156118615761186061150a565b5b61186d888289016115a9565b9550955050602086013567ffffffffffffffff8111156118905761188f61150a565b5b61189c888289016115ff565b935093505060406118af88828901611558565b9150509295509295909350565b60008115159050919050565b6118d1816118bc565b82525050565b60006020820190506118ec60008301846118c8565b92915050565b6000806040838503121561190957611908611505565b5b6000611917858286016117bf565b9250506020611928858286016117bf565b9150509250929050565b61193b8161179e565b82525050565b60006020820190506119566000830184611932565b92915050565b600081519050919050565b600082825260208201905092915050565b6000819050602082019050919050565b6119918161152f565b82525050565b60006119a38383611988565b60208301905092915050565b6000602082019050919050565b60006119c78261195c565b6119d18185611967565b93506119dc83611978565b8060005b83811015611a0d5781516119f48882611997565b97506119ff836119af565b9250506001810190506119e0565b5085935050505092915050565b600081519050919050565b600082825260208201905092915050565b6000819050602082019050919050565b611a4f8161179e565b82525050565b6000611a618383611a46565b60208301905092915050565b6000602082019050919050565b6000611a8582611a1a565b611a8f8185611a25565b9350611a9a83611a36565b8060005b83811015611acb578151611ab28882611a55565b9750611abd83611a6d565b925050600181019050611a9e565b5085935050505092915050565b60006040830160008301518482036000860152611af582826119bc565b91505060208301518482036020860152611b0f8282611a7a565b9150508091505092915050565b60006020820190508181036000830152611b368184611ad8565b905092915050565b600082825260208201905092915050565b7f5661756c7420436f6e7472616374202d204f6e6c7920616e2041646d696e206360008201527f616e20696e746572616374207769746820746869732066756e6374696f6e0000602082015250565b6000611bab603e83611b3e565b9150611bb682611b4f565b604082019050919050565b60006020820190508181036000830152611bda81611b9e565b9050919050565b7f4164647265737320617267732063616e6e6f74206265206e756c6c0000000000600082015250565b6000611c17601b83611b3e565b9150611c2282611be1565b602082019050919050565b60006020820190508181036000830152611c4681611c0a565b9050919050565b7f4e487b7100000000000000000000000000000000000000000000000000000000600052603260045260246000fd5b7f4e487b7100000000000000000000000000000000000000000000000000000000600052601160045260246000fd5b6000611cb68261179e565b9150611cc18361179e565b9250817fffffffffffffffffffffffffffffffffffffffffffffffffffffffffffffffff0483118215151615611cfa57611cf9611c7c565b5b828202905092915050565b611d0e8161152f565b82525050565b6000604082019050611d296000830185611d05565b611d366020830184611932565b9392505050565b6000819050919050565b6000819050919050565b6000611d6c611d67611d6284611d3d565b611d47565b61179e565b9050919050565b611d7c81611d51565b82525050565b6000604082019050611d976000830185611d05565b611da46020830184611d73565b9392505050565b611db4816118bc565b8114611dbf57600080fd5b50565b600081519050611dd181611dab565b92915050565b600060208284031215611ded57611dec611505565b5b6000611dfb84828501611dc2565b91505092915050565b6000602082019050611e196000830184611d05565b92915050565b600081519050611e2e816117a8565b92915050565b600060208284031215611e4a57611e49611505565b5b6000611e5884828501611e1f565b91505092915050565b7f43616e6e6f742061736b20666f72206d6f726520696e6465782074686174207460008201527f6865207573657220616c72656164792068617300000000000000000000000000602082015250565b6000611ebd603383611b3e565b9150611ec882611e61565b604082019050919050565b60006020820190508181036000830152611eec81611eb0565b9050919050565b6000606082019050611f086000830186611d05565b611f156020830185611d05565b611f226040830184611932565b949350505050565b6000611f358261179e565b91507fffffffffffffffffffffffffffffffffffffffffffffffffffffffffffffffff8203611f6757611f66611c7c565b5b600182019050919050565b600081519050611f8181611541565b92915050565b600060208284031215611f9d57611f9c611505565b5b6000611fab84828501611f72565b91505092915050565b7f4e487b7100000000000000000000000000000000000000000000000000000000600052601260045260246000fd5b6000611fee8261179e565b9150611ff98361179e565b92508261200957612008611fb4565b5b82820490509291505056fea2646970667358221220e8c6b18d0025c4ffdd3c1870b226526c1b187060189032ea95b21b8d4c1cbd4b64736f6c634300080d0033",
  "immutableReferences": {},
  "source": "// SPDX-License-Identifier: GPL-3.O\npragma solidity >=0.8.13;\n \nimport {IndexContract} from \"./IndexContract.sol\";\nimport {StorageContract} from \"./StorageContract.sol\";\nimport \"@openzeppelin/contracts/token/ERC20/ERC20.sol\";\n\ncontract VaultContract{\n\n    struct Index{\n        address[] collateral; // Which tokens the index references to\n        uint256[] quantities; // How many of each token the index references to\n    }\n\n    mapping (address => Index) index;\n    address[] registered_indexes;\n\n    address storageContract;\n    StorageContract storageContractInstance;\n    address private masterContract;\n\n\n    mapping(address => bool) public is_admin;\n\n    modifier onlyAdmins{\n        require(\n            is_admin[msg.sender],\n            \"Vault Contract - Only an Admin can interact with this function\"\n        );\n        _;\n    }    \n\n    constructor(){\n        is_admin[msg.sender] = true;\n    }\n\n    function addAdmin(address new_admin) external onlyAdmins{\n        require(new_admin != address(0x0),\"Address args cannot be null\");\n        is_admin[new_admin] = true;\n    }\n    function removeAdmin(address _admin) external onlyAdmins{\n        require(_admin != address(0x0),\"Address args cannot be null\");\n        is_admin[_admin] = false;\n    }\n\n    function setStorageContract(address _storageContract) external onlyAdmins {\n        storageContract = _storageContract;\n        storageContractInstance = StorageContract(storageContract);\n    }\n\n    function setMasterContract() external onlyAdmins{\n        address _masterContract = storageContractInstance.masterContract();\n        is_admin[masterContract] = false;\n        is_admin[_masterContract] = true;\n        masterContract = _masterContract;\n\n    }\n    function get_index(address _index) external view returns(Index memory __index) {\n        return index[_index];\n    }\n\n    //Safe Math Interface\n    function safeMul(uint a, uint b) public pure returns (uint c) {\n        c = a * b;\n        require(a == 0 || c / a == b);\n    }\n \n    function safeDiv(uint a, uint b) public pure returns (uint c) {\n        require(b > 0);\n        c = a / b;\n    }\n    //\n\n    function redeem_index(address _index, address receiver, uint index_amount_to_redeem) external onlyAdmins{\n        IndexContract index_ = IndexContract(_index);\n        \n        require(IndexContract(_index).balanceOf(receiver)>=index_amount_to_redeem, \"Cannot ask for more index that the user already has\"); // The ERC-20 token has the accounting of balances, so we call it\n\n        index_.transferFrom(receiver,address(this), index_amount_to_redeem);\n\n        for(uint i = 0; i< index[_index].collateral.length;i++){\n            address token = index[_index].collateral[i];\n            uint256 quantity = index[_index].quantities[i];\n            ERC20(token).transfer(receiver, safeMul(quantity,safeDiv(index_amount_to_redeem,1*10**18)));\n        }\n    }\n\n    function register_index(address _index, address[] calldata _collateral, uint256[] calldata _quantities) external onlyAdmins{\n        index[_index] = Index({\n            collateral: _collateral,\n            quantities: _quantities\n        });\n    }\n\n    function receive_collateral(address[] calldata _collateral, uint256[] calldata _quantities, address _creator) external onlyAdmins{\n        for(uint256 indx = 0; indx < _collateral.length; indx++ ){\n            ERC20(_collateral[indx]).transferFrom(_creator, address(this), _quantities[indx]);\n        }\n    }\n\n    function mint_index(address _index, address receiver, uint256[] calldata _collateral) external onlyAdmins{\n        // Since the receiver MUST send the collateral at the exact ratio of collateral, we can safely do the calculations with one of the collateral tokens\n        uint256 registered_collateral = index[_index].quantities[0];\n        uint256 index_to_mint = safeDiv(_collateral[0], registered_collateral);\n        IndexContract(_index).mint(receiver, index_to_mint *10 **18);\n    }\n\n    function approve(address token, address receiver) external {\n        ERC20(token).approve(receiver, 10**40);\n    }\n\n    receive() external payable {\n    }\n}",
  "sourcePath": "/home/yildirim/TFM-DeFi/contracts/VaultContract.sol",
  "compiler": {
    "name": "solc",
    "version": "0.8.13+commit.abaa5c0e.Emscripten.clang"
  },
  "schemaVersion": "3.4.7",
  "updatedAt": "2022-07-09T20:16:26.194Z",
  "networkType": "ethereum",
  "devdoc": {
    "kind": "dev",
    "methods": {},
    "version": 1
  },
  "userdoc": {
    "kind": "user",
    "methods": {},
    "version": 1
  }
}