{
  "contractName": "SafeMath",
  "abi": [
    {
      "inputs": [
        {
          "internalType": "uint256",
          "name": "a",
          "type": "uint256"
        },
        {
          "internalType": "uint256",
          "name": "b",
          "type": "uint256"
        }
      ],
      "name": "safeAdd",
      "outputs": [
        {
          "internalType": "uint256",
          "name": "c",
          "type": "uint256"
        }
      ],
      "stateMutability": "pure",
      "type": "function"
    },
    {
      "inputs": [
        {
          "internalType": "uint256",
          "name": "a",
          "type": "uint256"
        },
        {
          "internalType": "uint256",
          "name": "b",
          "type": "uint256"
        }
      ],
      "name": "safeSub",
      "outputs": [
        {
          "internalType": "uint256",
          "name": "c",
          "type": "uint256"
        }
      ],
      "stateMutability": "pure",
      "type": "function"
    },
    {
      "inputs": [
        {
          "internalType": "uint256",
          "name": "a",
          "type": "uint256"
        },
        {
          "internalType": "uint256",
          "name": "b",
          "type": "uint256"
        }
      ],
      "name": "safeMul",
      "outputs": [
        {
          "internalType": "uint256",
          "name": "c",
          "type": "uint256"
        }
      ],
      "stateMutability": "pure",
      "type": "function"
    },
    {
      "inputs": [
        {
          "internalType": "uint256",
          "name": "a",
          "type": "uint256"
        },
        {
          "internalType": "uint256",
          "name": "b",
          "type": "uint256"
        }
      ],
      "name": "safeDiv",
      "outputs": [
        {
          "internalType": "uint256",
          "name": "c",
          "type": "uint256"
        }
      ],
      "stateMutability": "pure",
      "type": "function"
    }
  ],
  "bytecode": "0x608060405234801561001057600080fd5b506103ff806100206000396000f3fe608060405234801561001057600080fd5b506004361061004c5760003560e01c8063a293d1e814610051578063b5931f7c14610081578063d05c78da146100b1578063e6cb9013146100e1575b600080fd5b61006b600480360381019061006691906101ec565b610111565b604051610078919061023b565b60405180910390f35b61009b600480360381019061009691906101ec565b610134565b6040516100a8919061023b565b60405180910390f35b6100cb60048036038101906100c691906101ec565b610156565b6040516100d8919061023b565b60405180910390f35b6100fb60048036038101906100f691906101ec565b61018e565b604051610108919061023b565b60405180910390f35b60008282111561012057600080fd5b818361012c9190610285565b905092915050565b600080821161014257600080fd5b818361014e91906102e8565b905092915050565b600081836101649190610319565b9050600083148061017f575081838261017d91906102e8565b145b61018857600080fd5b92915050565b6000818361019c9190610373565b9050828110156101ab57600080fd5b92915050565b600080fd5b6000819050919050565b6101c9816101b6565b81146101d457600080fd5b50565b6000813590506101e6816101c0565b92915050565b60008060408385031215610203576102026101b1565b5b6000610211858286016101d7565b9250506020610222858286016101d7565b9150509250929050565b610235816101b6565b82525050565b6000602082019050610250600083018461022c565b92915050565b7f4e487b7100000000000000000000000000000000000000000000000000000000600052601160045260246000fd5b6000610290826101b6565b915061029b836101b6565b9250828210156102ae576102ad610256565b5b828203905092915050565b7f4e487b7100000000000000000000000000000000000000000000000000000000600052601260045260246000fd5b60006102f3826101b6565b91506102fe836101b6565b92508261030e5761030d6102b9565b5b828204905092915050565b6000610324826101b6565b915061032f836101b6565b9250817fffffffffffffffffffffffffffffffffffffffffffffffffffffffffffffffff048311821515161561036857610367610256565b5b828202905092915050565b600061037e826101b6565b9150610389836101b6565b9250827fffffffffffffffffffffffffffffffffffffffffffffffffffffffffffffffff038211156103be576103bd610256565b5b82820190509291505056fea2646970667358221220053380f22e6ee2ba369b3c1e740d51a2573afe8290e2f0d84aa35623bf743a2e64736f6c634300080d0033",
  "immutableReferences": {},
  "source": "// SPDX-License-Identifier: GPL-3.O\npragma solidity >=0.8.13;\n \n// ERC-20 Interface\ninterface ERC20Interface {\n    function totalSupply() external view returns (uint);\n    function balanceOf(address tokenOwner) external view returns (uint balance);\n    function allowance(address tokenOwner, address spender) external view returns (uint remaining);\n    function transfer(address to, uint tokens) external returns (bool success);\n    function approve(address spender, uint tokens) external returns (bool success);\n    function transferFrom(address from, address to, uint tokens) external returns (bool success);\n \n    event Transfer(address indexed from, address indexed to, uint tokens);\n    event Approval(address indexed tokenOwner, address indexed spender, uint tokens);\n}\n\n//Safe Math Interface\n \ncontract SafeMath {\n \n    function safeAdd(uint a, uint b) public pure returns (uint c) {\n        c = a + b;\n        require(c >= a);\n    }\n \n    function safeSub(uint a, uint b) public pure returns (uint c) {\n        require(b <= a);\n        c = a - b;\n    }\n \n    function safeMul(uint a, uint b) public pure returns (uint c) {\n        c = a * b;\n        require(a == 0 || c / a == b);\n    }\n \n    function safeDiv(uint a, uint b) public pure returns (uint c) {\n        require(b > 0);\n        c = a / b;\n    }\n}\n \ncontract VaultContract is SafeMath{\n\n    struct Index{\n        address[] collateral; // Which tokens the index references to\n        uint256[] quantities; // How many of each token the index references to\n    }\n\n    mapping (address => Index) index;\n    address[] registered_indexes;\n\n    address public masterContract;\n\n    constructor(){\n        masterContract = msg.sender; // Initially the deployer is the \"master contract\". We will then change that with \"setMasterContract\"\n    }\n\n    modifier onlyMasterContract{\n        require(\n            msg.sender == masterContract,\n            \"Only the Master Contract can interact with me\"\n        );\n        _;\n    }\n\n    function get_index(address _index) external view returns(Index memory __index) {\n        return index[_index];\n    }\n\n    function redeem_index(address _index, address receiver, uint index_amount_to_redeem) external onlyMasterContract{\n        require(ERC20Interface(_index).balanceOf(receiver)>=index_amount_to_redeem, \"Cannot ask for more index that the user already has\"); // The ERC-20 token has the accounting of balances, so we call it\n        ERC20Interface(_index).transfer(address(this), index_amount_to_redeem);\n        for(uint i = 0; i< index[_index].collateral.length;i++){\n            address token = index[_index].collateral[i];\n            uint256 quantity = index[_index].quantities[i];\n            ERC20Interface(token).transfer(receiver, safeMul(quantity,index_amount_to_redeem));\n        }\n    }\n\n    function register_index(address _index, address[] calldata _collateral, uint256[] calldata _quantities ) external onlyMasterContract{\n        index[_index] = Index({\n            collateral: _collateral,\n            quantities: _quantities\n        });\n\n    }\n\n    function mint_index(address _index, address receiver, uint256[] calldata _collateral) external onlyMasterContract returns(bool result){\n        // Since the receiver MUST send the collateral at the exact ratio of collateral, we can safely do the calculations with one of the collateral tokens\n        uint256 registered_collateral = index[_index].quantities[0];\n        uint256 index_to_mint = safeDiv(_collateral[0], registered_collateral);\n        return ERC20Interface(_index).transferFrom(address(this),receiver, index_to_mint);\n    }\n\n    function setMasterContract(address _masterContract) external onlyMasterContract {\n        masterContract = _masterContract;\n    }\n\n    receive() external payable {\n    }\n}",
  "sourcePath": "/home/yildirim/TFM-DeFi/contracts/VaultContract.sol",
  "compiler": {
    "name": "solc",
    "version": "0.8.13+commit.abaa5c0e.Emscripten.clang"
  },
  "schemaVersion": "3.4.7",
  "updatedAt": "2022-05-12T20:13:27.099Z",
  "devdoc": {
    "kind": "dev",
    "methods": {},
    "version": 1
  },
  "userdoc": {
    "kind": "user",
    "methods": {},
    "version": 1
  }
}